S02A00002E2E2F48414E636F6465725F453430375F5454415F436F6E74726F6C6C65725F76332E7372656379
S31508004000C4D600205D6A0208000000000000000017
S315080040100000000000000000000000000000000092
S315080040200000000000000000000000004D380208F3
S315080040300000000000000000E938020839390208CB
S315080040400000000000000000000000000000000062
S315080040500000000000000000000000000000000052
S3150800406000000000294602080000000000000000C9
S315080040700000000000000000000000000000000032
S31508004080000000000000000000000000752C020877
S315080040902D2C0208512C0208992C02080000000059
S315080040A01546020801460208ED450208DD450208E4
S315080040B0C9450208B5450208A145020800000000E6
S315080040C000000000000000000000000000000000E2
S315080040D0000000002D500208455002085D500208F5
S315080040E00000000000000000255102080000000042
S315080040F08D45020879450208694502080000000056
S31508004100000000008D5002080000000000000000BA
S315080041100000000000000000000000000000000091
S315080041200000000000000000000000009150020896
S31508004130000000005946020800000000052D02088C
S31508004140BD2C0208E12C0208292D02085551020847
S315080041500000000000000000000000007550020882
S315080041600000000000000000000000000000000041
S315080041700000000000000000000000000000000031
S311080041800000000000000000EE11AA5527
S3150800C000000000000000000000000000000044409E
S3150800C0100000000000004640000000000000474005
S3150800C02000000000000048400000000000004940F1
S3150800C0300000000000004A400000000000005740D1
S3150800C04000000000000058400000000000005940B1
S3150800C05000000000008061400000000000C0614050
S3150800C06000000000000062400000000000806240FE
S3150800C07000000000008067400000000000006840E3
S3150800C08000000000008068400000000000006940D1
S3150800C09000000000008069400000000000006A40BF
S3150800C0A000000000000000000000000000004440FE
S3150800C0B00000000000004640000000000000474065
S3150800C0C00000000000004840000000000000564044
S3150800C0D000000000008056400000000000005740A5
S3150800C0E000000000008060400000000000C06040C2
S3150800C0F00000000000006140000000000080614070
S3150800C100000000000000624000000000008062405D
S3150800C1100000000000806740000000000000684042
S3150800C1200000000000006D400000000000806D4027
S3150800C1300000000000A06D400000000000E06D4017
S3150800C1400000000000006E40000000000080714002
S3150800C1500000000000A071400000000000C071400F
S3150800C1600000000000E07140000000000000000030
S3150800C170000000000000F03F000000000000F03F53
S3150800C180000000000000F03F000000000000F03F43
S3150800C190000000000000F03F000000000000000062
S3150800C1A0000000000000F03F000000000000F03F23
S3150800C1B00000000000000000000000000000F03F42
S3150800C1C0000000000000F03F000000000000F03F03
S3150800C1D00000000000000000000000000000F03F22
S3150800C1E0000000000000F03F000000000000F03FE3
S3150800C1F0000000000000F03F000000000000F03FD3
S3150800C200000000000000F03F0000000000000000F1
S3150800C210000000000000F03F000000000000F03FB2
S3150800C220000000000000F03F0000000000000000D1
S3150800C230000000000000F03F000000000000F03F92
S3150800C2400000000000000000000000000000F03FB1
S3150800C250000000000000F03F000000000000F03F72
S3150800C260000000000000F03F000000000000F03F62
S3150800C2700000000000000000000000000000F03F81
S3150800C2800000000000000000000000000000F03F71
S3150800C290000000000000F03F000000000000F03F32
S3150800C2A0000000000000F03F000000000000000051
S3150800C2B0000000000000F03F000000000000F03F12
S3150800C2C0000000000000F03F000000000000F03F02
S3150800C2D00000010101000100010100000001000148
S3150800C2E000000000000072400000000000C071401D
S3150800C2F00000000000006140000000000000464009
S3150800C3000000000000004840000000000000444013
S3150800C31000000000008071400000000000806040BE
S3150800C320000000A09999A93F0000000000003040D5
S3150800C330000000000000B03F000000000000304090
S3150800C340000000000000B03F000000000000304080
S3150800C350000000000000B03F000000000000304070
S3150800C360000000000000B03F000000000000B03FE1
S3150800C3700000000000003040000000000000B03F50
S3150800C3800000000000003040000000000000B03F40
S3150800C3900000000000003040000000000000B03F30
S3150800C3A0000000000000304000000000000062406D
S3150800C3B00000000000006A4000000000000046403F
S3150800C3C0000000000000484000000000000059403E
S3150800C3D00000000000004A4000000000000058402D
S3150800C3E0000000000000444000000000000061401A
S3150800C3F000000000000072400000000000005740E6
S3150800C4000000000000004640000000000000484010
S3150800C41000000000000044400000000000005640F4
S3150800C420000000000000903F00000000000050409F
S3150800C430000000000000C03F00000000000020408F
S3150800C440000000000000903F00000000000050407F
S3150800C4500000000000004A400000000000006A409A
S3150800C46000000000000046400000000000004840B0
S3150800C4700000000000004440000000000080624008
S3150800C48000000000008061400000000000006240DB
S3150800C4900000000000007240000000000000684034
S3150800C4A00000000000806D400000000000C07140E0
S3150800C4B00000000000006140000000000000574036
S3150800C4C000000000000046400000000000006E402A
S3150800C4D00000000000004840000000000000444042
S3150800C4E000000000008067400000000000006D406A
S3150800C4F00000000000807140000000000000564067
S3150800C5000000000000806040000000000000F03FCE
S3150800C510000000000000F03F000000000000F03FAF
S3150800C520000000000000F03F000000000000F03F9F
S3150800C530000000000000F03F000000000000F03F8F
S3150800C540000000000000F03F000000000000F03F7F
S3150800C550000000000000F03F000000000000F03F6F
S3150800C560000000000000F03F000000000000F03F5F
S3150800C570000000000000F03F000000000000F03F4F
S3150800C580000000000000F03F000000000000F03F3F
S3150800C590000000000000F03F000000000000F03F2F
S3150800C5A0000000000000F03F000000000000F03F1F
S3150800C5B0000000000000F03F000000000000F03F0F
S3150800C5C0000000000000F03F0000000000003040BE
S3150800C5D0000000000000B03F0000000000003040EE
S3150800C5E0000000000000B03F0000000000003040DE
S3150800C5F0000000000000B03F0000000000003040CE
S3150800C600000000000000B03F0000000000003040BD
S3150800C610000000000000B03F0000000000003040AD
S3150800C620000000000000B03F00000000000030409D
S3150800C630000000000000B03F00000000000030408D
S3150800C640000000000000B03F00000000000050405D
S3150800C650000000000000903F00000000000050406D
S3150800C660000000000000903F00000000000020408D
S3150800C670000000000000C03F00000000000030403D
S3150800C680000000000000B03F00000000000030403D
S3150800C690000000000000B03F00000000000030402D
S3150800C6A0000000000000B03F00000000000030401D
S3150800C6B0000000000000B03F000000A09999A93FC3
S3150800C6C0000000000000903F0000000000005040FD
S3150800C6D0000000000000C03F0000000000002040ED
S3150800C6E0000000000000903F0000000000005040DD
S3150800C6F0000000000000B03F0000000000003040CD
S3150800C700000000000000B03F0000000000003040BC
S3150800C710000000000000B03F0000000000003040AC
S3150800C720000000000000B03F00000000000030409C
S3150800C7300000000000006940000000000080694019
S3150800C7400000000000806A400000000000006A4007
S3150800C75000000000000046400000000000004840BD
S3150800C7600000000000004A40000000000000594098
S3150800C77000000000000058400000000000806240F1
S3150800C78000000000000062400000000000806840D1
S3150800C790000000000000684000000000000044405F
S3150800C7A000000000008067400000000000005740BD
S3150800C7B000000000008061400000000000003040DA
S3150800C7C0000000000000B03F0000000000003040FC
S3150800C7D0000000000000B03F0000000000002040FC
S3150800C7E0000000000000C03F0000000000005040AC
S3150800C7F0000000000000903F0000000000005040CC
S3150800C800000000000000903F000000000000F03F1C
S3150800C810000000000000000000000000000000000A
S3150800C82000000000000000000000000000000001F9
S3150800C830000001000000000000000000000010C019
S3150800C840000000000000B03F00000000000030407B
S3150800C85000000000000008C0000000000000C03F03
S3150800C860000000000000204000000000000018C082
S3150800C870000000000000903F00000000000050404B
S3150800C88000000000000018C0000000000000903FF3
S3150800C890000000000000504000000000000010C02A
S3150800C8A0000000000000B03F00000000000030401B
S3150800C8B00100000001000000010000000100000066
S3150800C8C0000000000000000016000000160000002E
S3150800C8D01600000016000000000000001900000005
S3150800C8E019000000190000001900000000000000EF
S3150800C8F0000001000000000000000000000010C059
S3150800C900000000000000B03F0000000000003040BA
S3150800C91000000000000008C0000000000000C03F42
S3150800C920000000000000204000000000000018C0C1
S3150800C930000000000000903F00000000000050408A
S3150800C94000000000000018C0000000000000903F32
S3150800C950000000000000504000000000000010C069
S3150800C960000000000000B03F00000000000030405A
S3150800C97001000000010000000100000001000000A5
S3150800C980000000000000000000000000000010C0C9
S3150800C990000000000000B03F00000000000030402A
S3150800C9A000000000000008C0000000000000C03FB2
S3150800C9B0000000000000204000000000000018C031
S3150800C9C0000000000000903F0000000000005040FA
S3150800C9D000000000000018C0000000000000903FA2
S3150800C9E0000000000000504000000000000010C0D9
S3150800C9F0000000000000B03F0000000000003040CA
S3150800CA000100000001000000010000000100000014
S3150800CA1000000000000000001500000015000000DE
S3150800CA2015000000150000000000000000000100CD
S3150800CA3000000000000010C0000000000000B03F29
S3150800CA40000000000000304000000000000008C0A0
S3150800CA50000000000000C03F000000000000204069
S3150800CA6000000000000018C0000000000000903F11
S3150800CA70000000000000504000000000000018C040
S3150800CA80000000000000903F000000000000504039
S3150800CA9000000000000010C0000000000000B03FC9
S3150800CAA00000000000003040010000000100000006
S3150800CAB00100000001000000000000000000000066
S3150800CAC000000000000010C0000000000000B03F99
S3150800CAD0000000000000304000000000000008C010
S3150800CAE0000000000000C03F0000000000002040D9
S3150800CAF000000000000018C0000000000000903F81
S3150800CB00000000000000504000000000000018C0AF
S3150800CB10000000000000903F0000000000005040A8
S3150800CB2000000000000010C0000000000000B03F38
S3150800CB300000000000003040010000000100000075
S3150800CB4001000000010000000000000015000000C0
S3150800CB501500000015000000150000000000000088
S3150800CB60160000001600000016000000160000005F
S3150800CB70000000001900000019000000190000005C
S3150800CB80190000000000000000000000000010C0AE
S3150800CB90000000000000B03F000000000000304028
S3150800CBA000000000000010C0000000000000B03FB8
S3150800CBB0000000000000304000000000000010C027
S3150800CBC0000000000000B03F0000000000003040F8
S3150800CBD000000000000010C0000000000000B03F88
S3150800CBE00000000000003040180000001800000097
S3150800CBF018000000180000000000000000000000F7
S3150800CC0000000000000010C0000000000000B03F57
S3150800CC10000000000000304000000000000010C0C6
S3150800CC20000000000000B03F000000000000304097
S3150800CC3000000000000010C0000000000000B03F27
S3150800CC40000000000000304000000000000010C096
S3150800CC50000000000000B03F000000000000304067
S3150800CC60170000001700000017000000170000005A
S3150800CC70000000000D0000000D0000000D0000007F
S3150800CC800D000000000000000C0000000C00000071
S3150800CC900C0000000C000000000000000B00000063
S3150800CCA00B0000000B0000000B0000000000000055
S3150800CCB000000000000010C0000000000000B03FA7
S3150800CCC0000000000000304000000000000008C01E
S3150800CCD0000000000000C03F0000000000002040E7
S3150800CCE000000000000018C0000000000000903F8F
S3150800CCF0000000000000504000000000000018C0BE
S3150800CD00000000000000903F0000000000005040B6
S3150800CD1000000000000010C0000000000000B03F46
S3150800CD200000000000003040010000000100000083
S3150800CD3001000000010000000000000000000000E3
S3150800CD406464640048414E636F6465725F453430BD
S3150800CD50375F5454415F436F6E74726F6C6C6572C3
S3150800CD605F76335F736F66747761726549445F7681
S3150800CD70315F3135303232325F3131303934330058
S3150800CD804170704374726C5461736B0048414E6312
S3150800CD906F6465725F453430375F5454415F436F43
S3150800CDA06E74726F6C6C65725F76332E630000006A
S3150800CDB020000000001402400800090020000000BE
S3150800CDC00014024010000E0020000000001402406B
S3150800CDD020000F002000000000140240400004005C
S3150800CDE0200000000014024080000500200000001A
S3150800CDF00014024000010600200000000014024052
S3150800CE000002070020000000001402400004080089
S3150800CE10040000000008024001000A0004000000A7
S3150800CE200008024004000C00414443636F6E7665B7
S3150800CE307273696F6E5461736B0000002E2E2F6239
S3150800CE406C6F636B7365742F7274772F53544D33FD
S3150800CE50322F7372632F686561705F342E6300002A
S3150800CE60546D724370754C6F6164000049444C45BB
S3150800CE70000000002E2E2F626C6F636B7365742F93
S3150800CE807274772F53544D33322F7372632F746134
S3150800CE90736B732E630000002E2E2F626C6F636B0C
S3150800CEA07365742F7274772F53544D33322F737200
S3150800CEB0632F74696D6572732E630000546D72205A
S3150800CEC05376630043616E4576656E745461736B81
S3150800CED00000000043616E5472616E736D6974548C
S3150800CEE061736B002E2E2F626C6F636B7365742FE4
S3150800CEF07274772F53544D33322F7372632F5354F2
S3150800CF004D33325F453430372F63616E2E63000030
S3150800CF10006400400000000208000000000C024007
S3150800CF200100000008000000000C02400200010099
S3150800CF3009131415160000000068004000000004DC
S3150800CF400200000000040240200005000200000064
S3150800CF500004024040000600093F4041420000002C
S3150800CF600101020102020202020302020402020392
S3150800CF700303040303050303060303050404060465
S3150800CF80040704040804040705050805050806053A
S3150800CF900807050807060808060808070808080015
S3150800CFA0457643686E6C3100457643686E6C320090
S3150800CFB0457643686E6C33002E2E2F626C6F636B5A
S3150800CFC07365742F7274772F53544D33322F7372DF
S3150800CFD0632F53544D33325F453430372F6D6163B9
S3150800CFE02E6300002E2E2F626C6F636B7365742F91
S3150800CFF07274772F53544D33322F7372632F5354F1
S3150800D0004D33325F453430372F706F72742E63009C
S3150800D01000000140010000000201000010000000AD
S3150800D0200010024000020900100000000010024033
S3150800D03000080B0000040040020000000102000086
S3150800D0400100000000000240400006000200000047
S3150800D050000402402000050000080040040000000B
S3150800D0600102000008000000000C024000100C003D
S3150800D07008000000000C024000200D0000040140DA
S3150800D080020000000203000004000000000802403D
S3150800D0904000060004000000000802408000070067
S3150800D0A000000140010000000201190000000040D4
S3150800D0B00100000001021C000004004002000000FC
S3150800D0C001021D00000800400400000001021E00C5
S3150800D0D0000401400200000002012C00004001404B
S3150800D0E0000001000201180000440140000002008F
S3150800D0F002011900004801400000040002011A005C
S3150800D100001C00408000000001022C0000200040A6
S3150800D1100001000001022D00040000000008024082
S3150800D120010000002000000000140240400000003A
S3150800D13020000000001402408000000020000000CB
S3150800D1400014024000010000200000000014024004
S3150800D1500002000020000000001402400004000045
S3150800D16002000000000402408000000002000000E7
S3150800D17000040240400000001000000000100240B9
S3150800D180040000001000000000100240100000001B
S3150800D19010000000001002402000000010000000EF
S3150800D1A00010024040000000400000000018024045
S3150800D1B08000000040000000001802400001000046
S3150800D1C04000000000180240001000004000000067
S3150800D1D00018024000800000010000000000024024
S3150800D1E010000000020000000004024020000000B9
S3150800D1F0010000000000024040000000010000009D
S3150800D200000002402000000008000000000C024058
S3150800D2100100000008000000000C024002000000A7
S3150800D22008000000000C024004000000080000008E
S3150800D230000C02400800000008000000000C024034
S3150800D2401000000008000000000C0240200000004A
S3150800D25008000000000C0240400000000800000022
S3150800D260000C02408000000008000000000C02408C
S3150800D2700001000008000000000C02400002000047
S3150800D28008000000000C024000040000080000002E
S3150800D290000C02400008000008000000000C0240D4
S3150800D2A00010000008000000000C024000200000EA
S3150800D2B008000000000C02400040000008000000C2
S3150800D2C0000C024000800000100000000010024020
S3150800D2D001000000100000000010024002000000DB
S3150800D2E010000000001002400800000010000000B6
S3150800D2F000100240800000001000000000100240EC
S3150800D30000010000100000000010024000020000AA
S3150800D3101000000000100240000400001000000089
S3150800D3200010024000080000100000000010024033
S3150800D330001000001000000000100240002000004D
S3150800D340100000000010024000400000100000001D
S3150800D3500010024000800000200000000014024077
S3150800D3600100000020000000001402400200000036
S3150800D3702000000000140240040000002000000005
S3150800D38000140240080000002000000000140240BB
S3150800D39010000000200000000014024020000000D9
S3150800D3A020000000001402400008000020000000D1
S3150800D3B00014024000100000200000000014024083
S3150800D3C00020000020000000001402400040000079
S3150800D3D02000000000140240008000004000000009
S3150800D3E0001802400100000040000000001802403A
S3150800D3F0020000004000000000180240040000007F
S3150800D400400000000018024008000000400000002C
S3150800D41000180240100000004000000000180240FA
S3150800D42020000000400000000018024040000000F4
S3150800D4304000000000180240000200004000000002
S3150800D44000180240000400004000000000180240D6
S3150800D45000080000400000000018024000200000FC
S3150800D46040000000001802400040000001000000D3
S3150800D470000002400100000004000000000802400D
S3150800D48001000000200000000014024040000000D7
S3150800D4902000000000140240800000002000000068
S3150800D4A000140240000100002000000000140240A1
S3150800D4B000020000200000000014024000040000E2
S3150800D4C00200000000040240800000000200000084
S3150800D4D00004024040000000100000000010024056
S3150800D4E004000000100000000010024010000000B8
S3150800D4F0100000000010024020000000100000008C
S3150800D50000100240400000004000000000180240E1
S3150800D51080000000400000000018024000010000E2
S3150800D5204000000000180240001000004000000003
S3150800D53000180240008000000100000000000240C0
S3150800D5401000000002000000000402402000000055
S3150800D5500100000000000240400000000100000039
S3150800D560000002402000000008000000000C0240F5
S3150800D5700100000008000000000C02400200000044
S3150800D58008000000000C024004000000080000002B
S3150800D590000C02400800000008000000000C0240D1
S3150800D5A01000000008000000000C024020000000E7
S3150800D5B008000000000C02404000000008000000BF
S3150800D5C0000C02408000000008000000000C024029
S3150800D5D00001000008000000000C024000020000E4
S3150800D5E008000000000C02400004000008000000CB
S3150800D5F0000C02400008000008000000000C024071
S3150800D6000010000008000000000C02400020000086
S3150800D61008000000000C024000400000080000005E
S3150800D620000C0240008000001000000000100240BC
S3150800D6300100000010000000001002400200000077
S3150800D6401000000000100240080000001000000052
S3150800D6500010024080000000100000000010024088
S3150800D6600001000010000000001002400002000047
S3150800D6701000000000100240000400001000000026
S3150800D68000100240000800001000000000100240D0
S3150800D69000100000100000000010024000200000EA
S3150800D6A010000000001002400040000010000000BA
S3150800D6B00010024000800000200000000014024014
S3150800D6C001000000200000000014024002000000D3
S3150800D6D020000000001402400400000020000000A2
S3150800D6E00014024008000000200000000014024058
S3150800D6F01000000020000000001402402000000076
S3150800D700200000000014024000080000200000006D
S3150800D710001402400010000020000000001402401F
S3150800D7200020000020000000001402400040000015
S3150800D73020000000001402400080000040000000A5
S3150800D74000180240010000004000000000180240D6
S3150800D750020000004000000000180240040000001B
S3150800D76040000000001802400800000040000000C9
S3150800D7700018024010000000400000000018024097
S3150800D7802000000040000000001802404000000091
S3150800D790400000000018024000020000400000009F
S3150800D7A00018024000040000400000000018024073
S3150800D7B00008000040000000001802400020000099
S3150800D7C0400000000018024000400000040000006D
S3150800D7D0000802400020000000000140010000008F
S3150800D7E002011B00000000400100000001021C00AD
S3150800D7F0000400400200000001021D00000800406D
S3150800D8000400000001021E0000040140020000009E
S3150800D81002012E000040014000000100020118002C
S3150800D82000440140000002000201190000480140BE
S3150800D8300000040002011A00001C004080000000DD
S3150800D84001022C00002000400001000001022D000A
S3150800D8501000000000100240000200000200020052
S3150800D8600100090010000000001002400008000135
S3150800D8700400200001000B00100000000010024008
S3150800D880002000020800000201000D001000000040
S3150800D89000100240004000031000002001000E00A6
S3150800D8A00100000000000240200001000200020002
S3150800D8B001000500010000000000024040000200CF
S3150800D8C002000200020006000200000000040240F6
S3150800D8D020000201040020000200050008000000E4
S3150800D8E0000C0240001003000200020002000C00B7
S3150800D8F008000000000C024000200301040020007C
S3150800D90002000D0004000000000802404000040068
S3150800D910020002000300060004000000000802409E
S3150800D9208000040104002000030007001000000026
S3150800D9300010024020000500020002000300050056
S3150800D94010000000001002404000050104002000FD
S3150800D95003000600200000000014024040000600F4
S3150800D9600200020003000600200000000014024026
S3150800D97080000700020002000300070020000000E4
S3150800D9800014024000010800020002000900080015
S3150800D99020000000001402400002090002000200F4
S3150800D9A009000900001001401000000002250000CF
S3150800D9B002000000000402404000060002000000C9
S3150800D9C000040240800007000700000000440040F1
S3150800D9D0000002000126000008000000000C0240BA
S3150800D9E02000050008000000000C02404000060068
S3150800D9F0070000000048004000000400012700005E
S3150800DA0008000000000C02400001080008000000A1
S3150800DA10000C024000020900070000000014014043
S3150800DA202000000002470000040000000008024031
S3150800DA3040000600040000000008024080000700BD
S3150800DA400800000056435020436F6E666967000061
S3150800DA5056435020496E746572666163650000001E
S3150800DA6053544D6963726F656C656374726F6E6942
S3150800DA706373000053544D333220566972747561CE
S3150800DA806C20436F6D506F727420696E2048532066
S3150800DA906D6F64650000000053544D33322056699B
S3150800DAA0727475616C20436F6D506F727420696E65
S3150800DAB0204653204D6F646500000000303030303A
S3150800DAC030303030303530420000000030303030F1
S3150800DAD0303030303035304300000000000001405F
S3150800DAE00100000002011B000000004001000000C8
S3150800DAF001021C00000400400200000001021D0093
S3150800DB00000800400400000001021E000004014055
S3150800DB100200000002012E00004001400000010042
S3150800DB200201180000440140000002000201190029
S3150800DB30004801400000040002011A00001C0040D1
S3150800DB408000000001022C000020004000010000B7
S3150800DB5001022D0010000000001002400002000023
S3150800DB600200020001000900100000000010024037
S3150800DB70000800010400200001000B00100000004E
S3150800DB8000100240002000020800000201000D00FB
S3150800DB9010000000001002400040000310000020A2
S3150800DBA001000E00010000000000024020000100F4
S3150800DBB0020002000100050001000000000002400A
S3150800DBC040000200020002000200060002000000F7
S3150800DBD000040240200002010400200002000500A3
S3150800DBE008000000000C02400010030002000200BA
S3150800DBF002000C0008000000000C0240002003018F
S3150800DC000400200002000D00040000000008024085
S3150800DC1040000400020002000300060004000000A1
S3150800DC2000080240800004010400200003000700E9
S3150800DC30100000000010024020000500020002004B
S3150800DC400300050010000000001002404000050116
S3150800DC500400200003000600200000000014024013
S3150800DC604000060002000200030006002000000033
S3150800DC7000140240800007000200020003000700AB
S3150800DC802000000000140240000108000200020003
S3150800DC9009000800200000000014024000020900E4
S3150800DCA002000200090009002E2E2F626C6F636BBA
S3150800DCB07365742F7274772F53544D33322F7372E2
S3150800DCC0632F71756575652E6300000004040400F2
S3150800DCD0E0DC0008E8DC0008F0DC000807070700BD
S3150800DCE0457643686E6C3100457643686E6C320043
S3150800DCF0457643686E6C330050505000666D6F640D
S3150800DD000000000000000000000000000000000005
S3110800DD1000000000000000804300000036
S315080100000B78FF2B00D070474B78002BFBD110F0F3
S315080100109DBF00BF08B5012010F08EFA034A40F2D1
S3150801002067610020BDE8084012F0E6BF010001083B
S31508010030002010F005B900BF704700BF2DE9F04751
S31508010040DDF820E0099E9EF800C004460D4692465A
S315080100501F46BCF1000F02D101238EF8003030880B
S3150801006019F09AF922462B468046894619F062FC10
S31508010070E0B10E9A3B6813600D9A7B6813600C9A7F
S31508010080BB7A1370109A3B7A13700B9AFB7A13702A
S315080100900F9A7B7A13700A9A002313605360119A98
S315080100A01370308819F078F98046894642464B46DE
S315080100B02046294619F048FC68B10B9B1B78D3B931
S315080100C001238AF800300C9B1B787BB901238AF837
S315080100D00130BDE8F087002642464B4620462946B0
S315080100E08AF8006019F030FC0028ECD100238AF860
S315080100F00130BDE8F08700238AF800300C9B1B7895
S31508010100002BF3D1E2E700BF2DE9F04F83B0164685
S315080101101F4682468B4618F05BFE002200230446E2
S315080101200D4619F007FCD8BB80460022002320465D
S3150801013029465FFA88F819F0FDFB50B93046394669
S3150801014018F0BEFD02460B463046394619F01AFC30
S3150801015090BBB8F1000F5FD15046594600220023E3
S315080101604FF0010919F0F0FB20B3002300223046B5
S31508010170394619F0E9FB4FF00103A0B15FFA89F995
S31508010180DBB2994507D02046294632463B4618F048
S31508010190B7FF04460D462046294603B0BDE8F08F51
S315080101A04FF00108C1E703465FFA89F9DBB29945C1
S315080101B0E9D1F0E7C146D8E732463B4650465946AB
S315080101C019F07AFA21F000490022194B494680466E
S315080101D018F096FF18F074FD02460B46404649464C
S315080101E018F08CFF0B46024623F000434046009266
S315080101F0019300220F4B494619F034F902460B4682
S31508010200DDE9000119F0AAFB4FF0010858B15FFAC0
S3150801021088F8B8F1000F9FD000240025204629460A
S3150801022003B0BDE8F08F80465FFA88F8F1E700BFB2
S315080102300000E03F0000B03C2DE9F0410999089C17
S3150801024091F800E0DDF82880054616461F46BEF1FE
S31508010250000F01D101230B702B785B00DBB25A0921
S3150801026007EE902AB8EEE77AF7EE007AB4EEE77A67
S31508010270F1EE10FAA372227307DDD8E90001002214
S315080102801B4B18F03DFFC8E900012878C0096073C7
S315080102902B781B01DBB24FEA1318637284F80B80C3
S315080102A019F07AF832463B4619F044FB50B14046FC
S315080102B019F072F8DDE9062319F03CFB4FF001034A
S315080102C098B1D8B220726B782370AB786370EB78EB
S315080102D0A3702B79E3706B792371AB796371EB7931
S315080102E0A3710023E371BDE8F0810346E9E700BF86
S315080102F00000F03F2DE9F0410999089C91F800E0CA
S31508010300DDF82880054616461F46BEF1000F01D1C5
S3150801031001230B702B785B00DBB25A0907EE902A92
S31508010320B8EEE77AF7EE007AB4EEE77AF1EE10FA6C
S31508010330A372227307DDD8E9000100221B4B18F0CE
S31508010340DFFEC8E900012878C00960732B781B0114
S31508010350DBB24FEA1318637284F80B8019F01CF8A4
S3150801036032463B4619F0E6FA50B1404619F014F800
S31508010370DDE9062319F0DEFA4FF0010398B1D8B288
S3150801038020726B782370AB786370EB78A3702B7946
S31508010390E3706B792371AB796371EB79A3710023F0
S315080103A0E371BDE8F0810346E9E700BF0000F03FCD
S315080103B02DE9F0410799069C91F800E0DDF82080C7
S315080103C0054616461F46BEF1000F01D101230B70E3
S315080103D02B785B00DBB25A0907EE902AB8EEE77A6A
S315080103E0F7EE007AB4EEE77AF1EE10FAA372227309
S315080103F007DDD8E900010022154B18F081FEC8E98E
S3150801040000016B782370AB786370EB78A3702B7956
S31508010410E3706B792371AB796371EB79A37100236F
S31508010420E3712B781B01DBB218096372E07218F0CD
S31508010430B3FF3B46324619F07DFA4FF0010300B986
S31508010440034623722B78DB096373BDE8F08100BF8D
S315080104500000F03F2DE9F0410799069C91F800E06C
S31508010460DDF82080054616461F46BEF1000F01D16C
S3150801047001230B702B785B00DBB25A0907EE902A31
S31508010480B8EEE77AF7EE007AB4EEE77AF1EE10FA0B
S31508010490A372227307DDD8E900010022154B18F073
S315080104A02FFEC8E900016B782370AB786370EB788F
S315080104B0A3702B79E3706B792371AB796371EB794F
S315080104C0A3710023E3712B781B01DBB21809637250
S315080104D0E07218F061FF3B46324619F02BFA4FF0ED
S315080104E0010300B9034623722B78DB096373BDE860
S315080104F0F08100BF0000F03F2DE9F04F89B080463A
S315080105001B999DF8484091F800E004949DF84C40E9
S3150801051005949DF850509DF854609DF858709DF8C3
S315080105205CA09DF860B01D9CBEF1000F01D10120B1
S315080105300870DFF84CE110461946DEE9002318F089
S31508010540DFFDCDE90001404618F016FF00224A4BAF
S31508010550CDE9020118F0D4FDDDE9002318F0CEFD3E
S3150801056000220023CDE9060119F0E4F900284AD052
S31508010570209B1878199BC0015FFA80F983F80190CE
S315080105801F9BD3E9000119F045FA199B00015FFA8F
S3150801059080F883F802801C9BD3E9000119F03AFA26
S315080105A09DF81030637040449DF81430A370484498
S315080105B01A9B2070E5702671677184F806A084F885
S315080105C007B01E9A1B681360DDE90023DDE9020105
S315080105D018F094FD0022002306460F4619F0AAF9E1
S315080105E0804600283CD1254BD3E90045002200234B
S315080105F02046294619F09EF9E8B1199B83F800802F
S3150801060009B0BDE8F08F1D4BD3E90089002200230C
S315080106104046494619F08EF90028D5D142464B463F
S31508010620DDE90601FFF770FD0022002319F082F9C2
S315080106300028C9D09CE722462B4630463946FFF7A3
S3150801064063FD0022002319F075F94FF0010878B10E
S315080106505FFA88F8199B83F8008009B0BDE8F08F26
S31508010660199B4FF0010883F8008009B0BDE8F08FA7
S3150801067080465FFA88F8EDE70000F03F6000002049
S31508010680780000202DE9F04F89B080461B999DF826
S31508010690484091F800E004949DF84C4005949DF873
S315080106A050509DF854609DF858709DF85CA09DF8CF
S315080106B060B01D9CBEF1000F01D101200870DFF862
S315080106C04CE110461946DEE9002318F019FDCDE97B
S315080106D00001404618F050FE00224A4BCDE90201BE
S315080106E018F00EFDDDE9002318F008FD00220023AD
S315080106F0CDE9060119F01EF900284AD0209B187881
S31508010700199BC0015FFA80F983F801901F9BD3E911
S31508010710000119F07FF9199B00015FFA80F883F847
S3150801072002801C9BD3E9000119F074F99DF8103079
S31508010730637040449DF81430A37048441A9B207096
S31508010740E5702671677184F806A084F807B01E9AC9
S315080107501B681360DDE90023DDE9020118F0CEFC10
S315080107600022002306460F4619F0E4F880460028C1
S315080107703CD1254BD3E900450022002320462946D2
S3150801078019F0D8F8E8B1199B83F8008009B0BDE8DB
S31508010790F08F1D4BD3E900890022002340464946C4
S315080107A019F0C8F80028D5D142464B46DDE90601BD
S315080107B0FFF7AAFC0022002319F0BCF80028C9D0CB
S315080107C09CE722462B4630463946FFF79DFC002218
S315080107D0002319F0AFF84FF0010878B15FFA88F8ED
S315080107E0199B83F8008009B0BDE8F08F199B4FF07B
S315080107F0010883F8008009B0BDE8F08F80465FFAEA
S3150801080088F8EDE70000F03F68000020800000202E
S315080108102DE9F04F89B0064619999DF8544091F88B
S3150801082000E003949DF848709DF84C809DF850901F
S315080108309DF858501B9CBEF1000F01D1012008708C
S31508010840DFF848E110461946DEE9002318F058FC9E
S31508010850824630468B4618F08FFD0022494BCDE97A
S31508010860000118F04DFC52465B4618F047FC002281
S315080108700023CDE9060119F05DF8002846D01E9B34
S31508010880179A1878C001C3B2537004931D9BD3E914
S31508010890000119F0BFF8179B0001C6B29E701A9B9A
S315080108A0D3E9000119F0B6F8049B6770304418447F
S315080108B09DF80C302371189B207084F8028084F807
S315080108C003906571A571E5711C9A1B681360524600
S315080108D05B46DDE9000118F011FC002200230646FB
S315080108E00F4619F027F8804600283ED1264BD3E952
S315080108F00045002200232046294619F01BF8F8B1C5
S31508010900179B83F8008009B0BDE8F08F1E4B93ED65
S31508010910007B0022002351EC170B8DED047B19F0A7
S3150801092009F80028D3D1DDE90423DDE90601FFF73B
S31508010930EBFB0022002318F0FDFF0028C7D09EE735
S3150801094022462B4630463946FFF7DEFB00220023B6
S3150801095018F0F0FF4FF0010878B15FFA88F8179B95
S3150801096083F8008009B0BDE8F08F179B4FF00108A6
S3150801097083F8008009B0BDE8F08F80465FFA88F8F1
S31508010980EDE700BF0000F03F60000020780000207E
S315080109902DE9F04F89B0064619999DF8544091F80A
S315080109A000E003949DF848709DF84C809DF850909E
S315080109B09DF858501B9CBEF1000F01D1012008700B
S315080109C0DFF848E110461946DEE9002318F098FBDE
S315080109D0824630468B4618F0CFFC0022494BCDE9BA
S315080109E0000118F08DFB52465B4618F087FB002282
S315080109F00023CDE9060118F09DFF002846D01E9B6D
S31508010A00179A1878C001C3B2537004931D9BD3E992
S31508010A10000118F0FFFF179B0001C6B29E701A9BD2
S31508010A20D3E9000118F0F6FF049B677030441844B7
S31508010A309DF80C302371189B207084F8028084F885
S31508010A4003906571A571E5711C9A1B68136052467E
S31508010A505B46DDE9000118F051FB0022002306463A
S31508010A600F4618F067FF804600283ED1264BD3E98A
S31508010A700045002200232046294618F05BFFF8B1FD
S31508010A80179B83F8008009B0BDE8F08F1E4B93EDE4
S31508010A90007B0022002351EC170B8DED047B18F027
S31508010AA049FF0028D3D1DDE90423DDE90601FFF773
S31508010AB02BFB0022002318F03DFF0028C7D09EE734
S31508010AC022462B4630463946FFF71EFB00220023F5
S31508010AD018F030FF4FF0010878B15FFA88F8179BD4
S31508010AE083F8008009B0BDE8F08F179B4FF0010825
S31508010AF083F8008009B0BDE8F08F80465FFA88F870
S31508010B00EDE700BF0000F03F6800002080000020EC
S31508010B102DE9F04F89B0074618999DF8488091F854
S31508010B2000E09DF84C909DF850A09DF85460169DE4
S31508010B301A9CBEF1000F01D101200870DFF830E1DF
S31508010B4010461946DEE9002318F0DAFACDE9000164
S31508010B50384618F011FC0022434BCDE9020118F082
S31508010B60CFFADDE9002318F0C9FA00220023CDE9FE
S31508010B70060118F0DFFE002841D01D9B18781C9B42
S31508010B80C0015FFA80FB85F801B0D3E9000118F0CE
S31508010B9041FF0001C7B2199BAF70D3E9000118F0F4
S31508010BA039FF38445844179B207084F8018084F82B
S31508010BB0029084F803A026716671A671E6711B9AE4
S31508010BC01B681360DDE90023DDE9020118F096FAD6
S31508010BD0002200238046894618F0ACFE0446002808
S31508010BE039D1224BD3E90067002200233046394622
S31508010BF018F0A0FEE8B12C7009B0BDE8F08F1B4BC8
S31508010C0093ED007B0022002351EC170B8DED047B3D
S31508010C1018F090FE0028D5D1DDE90423DDE90601A7
S31508010C20FFF772FA0022002318F084FE0028C9D0C3
S31508010C30A3E732463B4640464946FFF765FA002296
S31508010C40002318F077FE4FF0010448B1E4B22C7086
S31508010C5009B0BDE8F08F01242C7009B0BDE8F08F0A
S31508010C600446E4B2F3E700BF0000F03F600000204D
S31508010C70780000202DE9F04F89B0074618999DF8AC
S31508010C80488091F800E09DF84C909DF850A09DF899
S31508010C905460169D1A9CBEF1000F01D101200870FF
S31508010CA0DFF830E110461946DEE9002318F028FA84
S31508010CB0CDE90001384618F05FFB0022434BCDE928
S31508010CC0020118F01DFADDE9002318F017FA0022CF
S31508010CD00023CDE9060118F02DFE002841D01D9B01
S31508010CE018781C9BC0015FFA80FB85F801B0D3E92F
S31508010CF0000118F08FFE0001C7B2199BAF70D3E946
S31508010D00000118F087FE38445844179B207084F870
S31508010D10018084F8029084F803A026716671A67191
S31508010D20E6711B9A1B681360DDE90023DDE9020100
S31508010D3018F0E4F9002200238046894618F0FAFDE6
S31508010D400446002839D1224BD3E900670022002343
S31508010D503046394618F0EEFDE8B12C7009B0BDE809
S31508010D60F08F1B4B93ED007B0022002351EC170BF0
S31508010D708DED047B18F0DEFD0028D5D1DDE90423CD
S31508010D80DDE90601FFF7C0F90022002318F0D2FDBC
S31508010D900028C9D0A3E732463B4640464946FFF7F5
S31508010DA0B3F90022002318F0C5FD4FF0010448B13C
S31508010DB0E4B22C7009B0BDE8F08F01242C7009B09B
S31508010DC0BDE8F08F0446E4B2F3E700BF0000F03F48
S31508010DD068000020800000202DE9F0410799069C53
S31508010DE091F800E0DDF82080054616461F46BEF15B
S31508010DF0000F01D101230B702B785B00DBB25A0976
S31508010E0007EE902AB8EEE77AF7EE007AB4EEE77ABB
S31508010E10F1EE10FAA372227307DDD8E90001002268
S31508010E20154B18F06DF9C8E900016B782370AB789A
S31508010E306370EB78A3702B79E3706B792371AB79C7
S31508010E406371EB79A3710023E3712878C009607394
S31508010E5018F0A2FA3B46324618F06CFD4FF0010332
S31508010E6000B9034623722B781B01DBB21A09637298
S31508010E70E272BDE8F08100BF0000F03F2DE9F041C4
S31508010E800799069C91F800E0DDF82080054616468C
S31508010E901F46BEF1000F01D101230B702B785B00B1
S31508010EA0DBB25A0907EE902AB8EEE77AF7EE007A2E
S31508010EB0B4EEE77AF1EE10FAA372227307DDD8E9E8
S31508010EC000010022154B18F01BF9C8E900016B78DF
S31508010ED02370AB786370EB78A3702B79E3706B7929
S31508010EE02371AB796371EB79A3710023E3712878D8
S31508010EF0C009607318F050FA3B46324618F01AFDDD
S31508010F004FF0010300B9034623722B781B01DBB2AC
S31508010F101A096372E272BDE8F08100BF0000F03F72
S31508010F202DE9F04F83B00C460E9FDDF834809946C3
S31508010F300546324BD7E900011646002218F0E0F8BB
S31508010F400123C7E9000189F8003023682C4A0C9966
S31508010F50013313602360D8F8003007EE903AB8EEF3
S31508010F60677AF7EE007AB4EE677AF1EE10FA05D1F0
S31508010F70DFF888904FF00008C1E9008937780193B6
S31508010F80384618F0F9F9DFF884801E4A019B136088
S31508010F90C8E900012B602F7196F807E085F805E08E
S31508010FA096F801C085F806C096F8028085F807808C
S31508010FB096F8039085F8089096F804A085F809A094
S31508010FC096F805B0104C85F80AB0B079E87219465A
S31508010FD0A071234608220020277084F805B084F8FA
S31508010FE004A084F8039084F8028084F801C084F888
S31508010FF007E003B0BDE8F04F11F08ABD0000F03FED
S31508011000CCC6002078C100203807002028C7002058
S3150801101008B50121002011F07FFF0B21002011F0F6
S315080110207BFF0C21002011F077FF0D21002011F024
S3150801103073FF1521002011F06FFF1621002011F012
S315080110406BFF1721002011F067FF1821002011F00E
S3150801105063FF19210020BDE8084011F05DBF00BFFC
S315080110602DE9F04F2DED088B0D460968E34CE44E4A
S3150801107083B00131216029601699DDF85C90096811
S31508011080316007EE901AB8EE678AF7EE007AB4EE89
S31508011090678AF1EE10FA1F4604469246EB7940F04C
S315080110A09A820BB90123EB71DFF858830022434674
S315080110B000921046012111F05BFF002884F84B00CD
S315080110C040F3A28398F80130637698F80230A37644
S315080110D098F80330E37698F804302377D6ED007A4A
S315080110E098F80530637798F80630A37798F80720BB
S315080110F098F80030E277F8EE678A2376F2EE067AF8
S31508011100F4EE678AF1EE10FAAB7940F0E3820BB997
S315080111100123AB71DFF8F0820022434600921046A4
S315080111200B2111F025FF002884F84A0040F3838338
S3150801113098F80130637498F80230A37498F803306C
S31508011140E37498F804302375D6ED007A98F80530DB
S31508011150637598F80630A37598F8072098F8003053
S31508011160E275B8EE679A2374F2EE087AB4EE679AD6
S31508011170F1EE10FA6B7940F09C820BB901236B7181
S31508011180DFF8888200224346009210460C2111F0AE
S31508011190EFFE002884F8490040F36183D6ED007A12
S315080111A098F8073098F8062098F8051098F804007A
S315080111B098F803E098F802C098F801B098F800800A
S315080111C084F809B0F8EE679A84F80AC084F80BE047
S315080111D020736173A273E37384F80880F2EE0A7AC6
S315080111E0F4EE679AF1EE10FA2B7940F050820BB9BA
S315080111F001232B71DFF8188200224346009210461C
S315080112000D2111F0B5FE002884F848001BDD98F879
S3150801121001B098F802E098F8030098F800C098F829
S31508011220041098F8052098F8063098F8078084F88D
S31508011230078084F801B084F800C084F802E0E07001
S3150801124021716271A371D6ED007AB8EE67AAF3EE41
S31508011250057AB4EE67AAF1EE10FA2B7A40F0FD8111
S315080112600BB901232B72DFF8AC81002243460092A9
S315080112701046152111F07CFE002884F84C0040F335
S31508011280E98298F8013084F8213098F8023084F818
S31508011290223098F8033084F8233098F8043084F81B
S315080112A02430D6ED007A98F8053084F8253098F878
S315080112B0063084F8263098F8072098F8003084F824
S315080112C02720F8EE67AA84F82030F3EE067AF4EEC2
S315080112D067AAF1EE10FA6B7A40F040820BB9012346
S315080112E06B72DFF8348100224346009210461621BC
S315080112F011F03EFE002884F84D0040F3A68298F8C6
S31508011300013084F8293098F8023084F82A3098F8A0
S31508011310033084F82B3098F8043084F82C30D6ED55
S31508011320007A98F8053084F82D3098F8063084F854
S315080113302E3098F8072098F8003084F82F20B8EE58
S3150801134067BA84F82830F3EE077AB4EE67BAF1EE95
S3150801135010FA2B7B40F0D0810BB901232B73DFF8F0
S31508011360BC800022434600921046172111F000FE68
S31508011370002884F8500040F3638298F8013084F815
S31508011380413098F8023084F8423098F8033084F8EE
S31508011390433098F8043084F84430D6ED007A98F84A
S315080113A0053084F8453098F8063084F8463098F8C0
S315080113B0072098F8003084F84720F8EE67BA84F8D1
S315080113C04030F3EE087AF4EE67BAF1EE10FAEB7AEA
S315080113D040F0AB810BB90123EB72DFF844800022A0
S315080113E0434600921046182111F0C2FD002884F8E0
S315080113F04F00D6ED007A40F31B8213E0C0C00020EF
S3150801140094C10020C80600201007002020070020EC
S3150801141030070020D0060020D8060020E806002064
S31508011420F806002098F8013084F8393098F8023027
S3150801143084F83A3098F8033084F83B3098F8043049
S3150801144084F83C3098F8053084F83D3098F8063031
S3150801145084F83E3098F8072098F8003084F83F2041
S31508011460F8EE677A84F83830B3EE097AF4EE477AFB
S31508011470F1EE10FAAB7A40F0D8800BB90123AB72C2
S31508011480C84D00222B4600921046192111F070FD15
S31508011490002884F84E0017DD6B78AA7884F8313075
S315080114A0EB7884F8322084F833302A796B7984F81A
S315080114B03420A97984F83530EA792B7884F83610FE
S315080114C084F8372084F83030F7EE007AB4EE678A6C
S315080114D0F1EE10FA40F0928094F94B30207E94F8A0
S315080114E019C094F81AE0E67E257F617FA27F07EE90
S315080114F0103AE37F99F8004007EE904AF8EEE77A4A
S31508011500F7EE006AF4EE667AF1EE10FA15D1F8EE06
S31508011510C77AF5EE407AF1EE10FA57D1189C4FF0DA
S3150801152002084FF0010B89F8008084F800B099F899
S31508011530004007EE904AF8EEE77AF0EE006AF4EE1C
S31508011540667AF1EE10FA37D1B8EEC77AB7EE008AA5
S31508011550B4EEC87AF1EE10FA38DBFB71189B87F8FE
S3150801156001C001243870BA7187F802E0FE703D7136
S3150801157079711C70159B8C4A1C704FF0030C89F805
S3150801158000C0BAF800301380149A138017F0F4FEDD
S31508011590169BD3ED007A854BF8EE677AC3E900010D
S315080115A0F4EE487AF1EE10FA00F0288199F8003045
S315080115B007EE903AF8EEE77AF5EE407AF1EE10FA90
S315080115C004D1189A012389F80030137003B0BDECD1
S315080115D0088BBDE8F08F73B1002380F84B30037692
S315080115E043768376C376037743778377C377F0EEBB
S315080115F0488AEB7182E5F0EE488A7FE5F2EE067AD3
S31508011600F4EE678AF1EE10FA40F0D28094F94A3086
S31508011610207C94F811C094F812E0E67C257D617D62
S31508011620A27D07EE103AE37D64E7002B3FF44CAF49
S31508011630002384F84E3084F8303084F8313084F849
S31508011640323084F8333084F8343084F8353084F80D
S31508011650363084F83730AB7236E7002B00F09680C7
S31508011660002384F84C3084F8203084F8213084F83B
S31508011670223084F8233084F8243084F8253084F81D
S31508011680263084F82730F0EE4AAA2B721DE6002B85
S3150801169000F08280002384F8483023706370A370B9
S315080116A0E37023716371A371E371B0EE69AA2B71BB
S315080116B0CDE5002B73D0002384F849302372637279
S315080116C0A372E37223736373A373E373F0EE499A08
S315080116D06B7183E5002B00F08B80002384F84A3078
S315080116E023746374A374E37423756375A375E3752F
S315080116F0B0EE689AAB7137E5002B76D0002384F8F3
S31508011700503084F8403084F8413084F8423084F807
S31508011710433084F8443084F8453084F8463084F8F8
S315080117204730F0EE4BBA2B734BE6002B63D0002300
S3150801173084F84F3084F8383084F8393084F83A30F0
S3150801174084F83B3084F83C3084F83D3084F83E30E8
S3150801175084F83F30F0EE6B7AEB7285E6CBB1002365
S3150801176084F84D3084F8283084F8293084F82A30F2
S3150801177084F82B3084F82C3084F82D3084F82E30F8
S3150801178084F82F30B0EE6ABA6B72DCE5F0EE4AAA3D
S315080117909BE5B0EE6ABAD6E5B0EE69AA57E5F0EE72
S315080117A0499A1BE50807002090C10020F8C10020CE
S315080117B0F2EE087AB4EE679AF1EE10FA29D0F2EE53
S315080117C00A7AF4EE679AF1EE10FA4DD194F9483097
S315080117D0207894F801C094F802E0E67825796179D1
S315080117E0A27907EE103AE37984E6F0EE4BBAE8E51A
S315080117F0B0EE689AB8E4F0EE6B7A35E65D4B199966
S315080118000022C1E90023D1E6D6ED007AF8EE678A0F
S3150801181074E494F94930207A94F809C094F80AE0F6
S31508011820E67A257B617BA27B07EE103AE37B61E6CC
S31508011830F8EE677A18E6D6ED007AB8EE679A93E479
S31508011840D6ED007AF8EE67BABBE5D6ED007AB8EEC2
S3150801185067BA78E5D6ED007AF8EE67AA35E5D6EDEA
S31508011860007AF8EE679AB9E4F3EE057AB4EE67AA58
S31508011870F1EE10FA1BD0F3EE067AF4EE67AAF1EE52
S3150801188010FA29D194F94D3094F8280094F829C012
S3150801189094F82AE094F82B6094F82C5094F82D10BB
S315080118A094F82E2007EE103A94F82F3022E694F990
S315080118B04C3094F8200094F821C094F822E094F86A
S315080118C0236094F8245094F8251094F8262007EEFE
S315080118D0103A94F827300DE6F3EE077AB4EE67BAB4
S315080118E0F1EE10FA14D194F9503094F8400094F8B6
S315080118F041C094F842E094F8436094F8445094F84F
S31508011900451094F8462007EE103A94F84730F1E569
S31508011910F3EE087AF4EE67BAF1EE10FA14D194F9F7
S315080119204F3094F8380094F839C094F83AE094F8AE
S315080119303B6094F83C5094F83D1094F83E2007EE2D
S31508011940103A94F83F30D5E594F94E3094F83000C2
S3150801195094F831C094F832E094F8336094F834502E
S3150801196094F8351094F8362007EE103A94F8373083
S31508011970C0E500BF0000F03F012108B5084611F097
S31508011980CBFA0B21012011F0C7FA0C21012011F025
S31508011990C3FA0D21012011F0BFFA1521012011F01A
S315080119A0BBFA1621012011F0B7FA1721012011F00F
S315080119B0B3FA1821012011F0AFFA19210120BDE867
S315080119C0084011F0A9BA00BF2DE9F04F2DED088B9B
S315080119D00D460968E34CE44E83B001312160296064
S315080119E01699DDF85C900968316007EE901AB8EE31
S315080119F0678AF7EE007AB4EE678AF1EE10FA1F46A7
S31508011A0004469246EB7940F09A820BB90123EB71B1
S31508011A10DFF858830022012143460092084611F057
S31508011A20A7FA002884F84B0040F3A28398F80130FE
S31508011A30637698F80230A37698F80330E37698F837
S31508011A4004302377D6ED007A98F80530637798F84D
S31508011A500630A37798F8072098F80030E277F8EE71
S31508011A60678A2376F2EE067AF4EE678AF1EE10FAC1
S31508011A70AB7940F0E3820BB90123AB71DFF8F08251
S31508011A800022434600920B21012011F071FA002829
S31508011A9084F84A0040F3838398F80130637498F810
S31508011AA00230A37498F80330E37498F80430237568
S31508011AB0D6ED007A98F80530637598F80630A3755F
S31508011AC098F8072098F80030E275B8EE679A2374FB
S31508011AD0F2EE087AB4EE679AF1EE10FA6B7940F0F5
S31508011AE09C820BB901236B71DFF888820022434679
S31508011AF000920C21012011F03BFA002884F84900D4
S31508011B0040F36183D6ED007A98F8073098F80620F5
S31508011B1098F8051098F8040098F803E098F802C0B8
S31508011B2098F801B098F8008084F809B0F8EE679A39
S31508011B3084F80AC084F80BE020736173A273E37317
S31508011B4084F80880F2EE0A7AF4EE679AF1EE10FA52
S31508011B502B7940F050820BB901232B71DFF81882DB
S31508011B600022434600920D21012011F001FA0028B6
S31508011B7084F848001BDD98F801B098F802E098F857
S31508011B80030098F800C098F8041098F8052098F80A
S31508011B90063098F8078084F8078084F801B084F83D
S31508011BA000C084F802E0E07021716271A371D6ED7C
S31508011BB0007AB8EE67AAF3EE057AB4EE67AAF1EEF3
S31508011BC010FA2B7A40F0FD810BB901232B72DFF84D
S31508011BD0AC810022434600921521012011F0C8F973
S31508011BE0002884F84C0040F3E98298F8013084F81B
S31508011BF0213098F8023084F8223098F8033084F8B6
S31508011C00233098F8043084F82430D6ED007A98F811
S31508011C10053084F8253098F8063084F8263098F887
S31508011C20072098F8003084F82720F8EE67AA84F888
S31508011C302030F3EE067AF4EE67AAF1EE10FA6B7A23
S31508011C4040F040820BB901236B72DFF83481002220
S31508011C50434600921621012011F08AF9002884F8DA
S31508011C604D0040F3A68298F8013084F8293098F897
S31508011C70023084F82A3098F8033084F82B3098F823
S31508011C80043084F82C30D6ED007A98F8053084F8BB
S31508011C902D3098F8063084F82E3098F8072098F8F1
S31508011CA0003084F82F20B8EE67BA84F82830F3EEAE
S31508011CB0077AB4EE67BAF1EE10FA2B7B40F0D081C1
S31508011CC00BB901232B73DFF8BC800022434600922F
S31508011CD01721012011F04CF9002884F8500040F32F
S31508011CE0638298F8013084F8413098F8023084F814
S31508011CF0423098F8033084F8433098F8043084F871
S31508011D004430D6ED007A98F8053084F8453098F8CD
S31508011D10063084F8463098F8072098F8003084F899
S31508011D204720F8EE67BA84F84030F3EE087AF4EE05
S31508011D3067BAF1EE10FAEB7A40F0AB810BB90123E1
S31508011D40EB72DFF8448000224346009218210120F5
S31508011D5011F00EF9002884F84F00D6ED007A40F309
S31508011D601B8213E018C200200CC70020B006002011
S31508011D70B806002040070020C0060020F006002013
S31508011D8000070020180700202807002098F80130CE
S31508011D9084F8393098F8023084F83A3098F80330E4
S31508011DA084F83B3098F8043084F83C3098F80530CC
S31508011DB084F83D3098F8063084F83E3098F80720C4
S31508011DC098F8003084F83F20F8EE677A84F83830BE
S31508011DD0B3EE097AF4EE477AF1EE10FAAB7A40F0EF
S31508011DE0D8800BB90123AB72C84D00222B4600924D
S31508011DF01921012011F0BCF8002884F84E0017DDDE
S31508011E006B78AA7884F83130EB7884F8322084F834
S31508011E1033302A796B7984F83420A97984F83530F6
S31508011E20EA792B7884F8361084F8372084F830302C
S31508011E30F7EE007AB4EE678AF1EE10FA40F0928076
S31508011E4094F94B30207E94F819C094F81AE0E67E8E
S31508011E50257F617FA27F07EE103AE37F99F800405C
S31508011E6007EE904AF8EEE77AF7EE006AF4EE667A3C
S31508011E70F1EE10FA15D1F8EEC77AF5EE407AF1EEE1
S31508011E8010FA57D1189C4FF002084FF0010B89F848
S31508011E90008084F800B099F8004007EE904AF8EE01
S31508011EA0E77AF0EE006AF4EE667AF1EE10FA37D1C7
S31508011EB0B8EEC77AB7EE008AB4EEC87AF1EE10FA30
S31508011EC038DBFB71189B87F801C001243870BA7199
S31508011ED087F802E0FE703D7179711C70159B8C4A7A
S31508011EE01C704FF0030C89F800C0BAF80030138053
S31508011EF0149A138017F040FA169BD3ED007A854B96
S31508011F00F8EE677AC3E90001F4EE487AF1EE10FAC1
S31508011F1000F0288199F8003007EE903AF8EEE77A52
S31508011F20F5EE407AF1EE10FA04D1189A012389F8F0
S31508011F300030137003B0BDEC088BBDE8F08F73B1A8
S31508011F40002380F84B30037643768376C37603778E
S31508011F5043778377C377F0EE488AEB7182E5F0EE33
S31508011F60488A7FE5F2EE067AF4EE678AF1EE10FA10
S31508011F7040F0D28094F94A30207C94F811C094F844
S31508011F8012E0E67C257D617DA27D07EE103AE37DB0
S31508011F9064E7002B3FF44CAF002384F84E3084F8F5
S31508011FA0303084F8313084F8323084F8333084F8AC
S31508011FB0343084F8353084F8363084F83730AB72EB
S31508011FC036E7002B00F09680002384F84C3084F81D
S31508011FD0203084F8213084F8223084F8233084F8BC
S31508011FE0243084F8253084F8263084F82730F0EE3A
S31508011FF04AAA2B721DE6002B00F08280002384F882
S31508012000483023706370A370E37023716371A37101
S31508012010E371B0EE69AA2B71CDE5002B73D00023CD
S3150801202084F8493023726372A372E372237363736C
S31508012030A373E373F0EE499A6B7183E5002B00F005
S315080120408B80002384F84A3023746374A374E37481
S3150801205023756375A375E375B0EE689AAB7137E5B9
S31508012060002B76D0002384F8503084F8403084F869
S31508012070413084F8423084F8433084F8443084F897
S31508012080453084F8463084F84730F0EE4BBA2B7366
S315080120904BE6002B63D0002384F84F3084F83830A0
S315080120A084F8393084F83A3084F83B3084F83C3087
S315080120B084F83D3084F83E3084F83F30F0EE6B7A90
S315080120C0EB7285E6CBB1002384F84D3084F82830CD
S315080120D084F8293084F82A3084F82B3084F82C3097
S315080120E084F82D3084F82E3084F82F30B0EE6ABA91
S315080120F06B72DCE5F0EE4AAA9BE5B0EE6ABAD6E564
S31508012100B0EE69AA57E5F0EE499A1BE5E00600200C
S3150801211032C7002010C70020F2EE087AB4EE679A9B
S31508012120F1EE10FA29D0F2EE0A7AF4EE679AF1EE98
S3150801213010FA4DD194F94830207894F801C094F8F2
S3150801214002E0E67825796179A27907EE103AE37912
S3150801215084E6F0EE4BBAE8E5B0EE689AB8E4F0EE3C
S315080121606B7A35E65D4B19990022C1E90023D1E660
S31508012170D6ED007AF8EE678A74E494F94930207A44
S3150801218094F809C094F80AE0E67A257B617BA27B7C
S3150801219007EE103AE37B61E6F8EE677A18E6D6EDC4
S315080121A0007AB8EE679A93E4D6ED007AF8EE67BA44
S315080121B0BBE5D6ED007AB8EE67BA78E5D6ED007AD2
S315080121C0F8EE67AA35E5D6ED007AF8EE679AB9E42E
S315080121D0F3EE057AB4EE67AAF1EE10FA1BD0F3EE28
S315080121E0067AF4EE67AAF1EE10FA29D194F94D3080
S315080121F094F8280094F829C094F82AE094F82B60FA
S3150801220094F82C5094F82D1094F82E2007EE103AD5
S3150801221094F82F3022E694F94C3094F8200094F87B
S3150801222021C094F822E094F8236094F8245094F895
S31508012230251094F8262007EE103A94F827300DE673
S31508012240F3EE077AB4EE67BAF1EE10FA14D194F9FF
S31508012250503094F8400094F841C094F842E094F85C
S31508012260436094F8445094F8451094F8462007EED4
S31508012270103A94F84730F1E5F3EE087AF4EE67BAC6
S31508012280F1EE10FA14D194F94F3094F8380094F815
S3150801229039C094F83AE094F83B6094F83C5094F8C5
S315080122A03D1094F83E2007EE103A94F83F30D5E5F4
S315080122B094F94E3094F8300094F831C094F832E02D
S315080122C094F8336094F8345094F8351094F836201D
S315080122D007EE103A94F83730C0E500BF0000F03F2A
S315080122E02DE9F04F83B00C460E9FDDF834809946F0
S315080122F00546324BD7E900011646002216F000FFC3
S315080123000123C7E9000189F8003023682C4A0C9992
S31508012310013313602360D8F8003007EE903AB8EE1F
S31508012320677AF7EE007AB4EE677AF1EE10FA05D11C
S31508012330DFF888904FF00008C1E9008937780193E2
S31508012340384617F019F8DFF884801E4A019B136096
S31508012350C8E900012B602F7196F807E085F805E0BA
S3150801236096F801C085F806C096F8028085F80780B8
S3150801237096F8039085F8089096F804A085F809A0C0
S3150801238096F805B0104C85F80AB0B079E872194686
S31508012390A071234608220120277084F805B084F825
S315080123A004A084F8039084F8028084F801C084F8B4
S315080123B007E003B0BDE8F04F10F0AABB0000F03FFC
S315080123C028C20020FCBB00203807002018C10020C5
S315080123D04B780BB901234B700B7833B100230B7083
S315080123E003701946032012F0A3BA01230B70037078
S315080123F01946032012F09CBA2DE9F04F87B0109CBC
S31508012400DDF844B0DDF848A0002800F0B9829AF852
S31508012410001011B901218AF800101E46149B1546B1
S315080124201888CDE9005616F0B7FF2A463346CDE996
S31508012430020117F07FFA002800F06D811F9B002525
S315080124402570D3E900890022CF4B4046494617F04B
S3150801245099FA002800F0CB829FEDC77B8DED047BAE
S31508012460002600272573DBE90423DDE9040116F0BC
S31508012470F9FFDBE90223804689463046394617F0DB
S315080124801BF90022002306460F4617F05DFA0028BD
S3150801249040F045833046394616F012FC06460F468B
S315080124A04946404617F0B6FA39460544304617F00C
S315080124B0B1FA1E9B28446070D3E900670022B34B2A
S315080124C03046394617F05EFA002840F0C4820022E9
S315080124D0AF4B3046394617F04BFA002800F05A83BD
S315080124E0002200233046394617F02EFA4FF001052F
S315080124F0002800F0918327F000493046494616F036
S31508012500DFFBB04602460B4606460F46404649469D
S3150801251016F0F4FDCDE90401ED01EDB2E5723046A0
S315080125203946DBE90A2316F09DFFDBE908238046D5
S315080125308946DDE9040117F0BFF8002200230646A3
S315080125400F4617F001FA002840F00883304639464D
S3150801255016F0B6FB06460F464946404617F05AFAA4
S3150801256039460544304617F055FA1D9B2844A07094
S31508012570D3E900670022874B3046394617F002FA3D
S31508012580002800F0A5829FED7E7B8DED047B814FAF
S3150801259000260025A57230463946DBE9102316F0D8
S315080125A061FFDBE90E2380468946DDE9040117F060
S315080125B083F80022002306460F4617F0C5F90028BE
S315080125C040F07F823046394616F07AFB06460F46BA
S315080125D04946404617F01EFA39460544304617F073
S315080125E019FA1C9B2844E070D3E900670022694B5D
S315080125F03046394617F0C6F9002800F03B829FEDB0
S31508012600607B8DED047B634F00260025657230469D
S315080126103946DBE9162316F025FFDBE91423804644
S315080126208946DDE9040117F047F80022002306462A
S315080126300F4617F089F9002840F0158230463946C9
S3150801264016F03EFB06460F464946404617F0E2F9A4
S3150801265039460544304617F0DDF9209B2844207198
S31508012660D3E900670022484B3046394617F08AF904
S31508012670002840F0E8810022474B3046394617F0DA
S3150801268077F9002800F07E82002200233046394679
S3150801269017F05AF94FF00105002800F0C18227F01A
S315080126A000493046494616F00BFBB04602460B4632
S315080126B006460F464046494616F020FDCDE9040177
S315080126C0ED01EDB2257230463946DBE91C2316F0D9
S315080126D0C9FEDBE91A2380468946DDE9040116F0BD
S315080126E0EBFF0022002306460F4617F02DF90028B6
S315080126F040F03B823046394616F0E2FA06460F4666
S315080127004946404617F086F939460544304617F0DA
S3150801271081F928446071DDE90023DDE9020117F03A
S3150801272031F9002800F0448119991C4B0022D1E99E
S31508012730000117F013F99AF80230002800F04F81CA
S3150801274013B901238AF80230154BDDE90001D3E9F3
S31508012750002316F0D5FC149B064618880F4616F07A
S315080127600BFE00220B4B8046894616F0C9FC324601
S315080127703B4617E0AFF3008000000000000014405C
S315080127800000000000000000000014400000244082
S31508012790000024C00000F03F000014C000001C40E7
S315080127A07800002016F0AAFC00220023CDE90201D8
S315080127B017F0C0F8002800F0F5811B9B1D78199BBE
S315080127C0ED01EDB2E573D3E9000117F023F9000134
S315080127D05FFA80F8139B84F81080D3E9000117F09B
S315080127E019F9159B159A2844404418706379537052
S315080127F063789370A378D370E3781371237953714F
S31508012800237893712378D371179ADBF87C30136098
S31508012810149B188816F0B0FD32463B4616F06EFC3E
S315080128200022002306460F4617F084F8002840F0D8
S315080128300781C14BD3E90089002200234046494656
S3150801284017F078F8002840F0C78142464B463046D3
S315080128503946FDF759FC0023002217F06BF84FF0B3
S31508012860010300B90346DBB2E3711A99B34B00229F
S31508012870D1E9000117F072F8002800F0A5809AF84E
S31508012880013013B901238AF80130AD4BDDE90001A6
S31508012890D3E9002316F034FC149B064618880F4624
S315080128A016F06AFD0022A74B8046894616F028FCD9
S315080128B032463B4616F022FC00220023CDE90001F0
S315080128C017F038F8002800F08A811B9B18781A9BA4
S315080128D0C0015FFA80F884F80D80D3E9000117F08A
S315080128E099F80001C5B2139BA573D3E9000117F046
S315080128F091F8169B169A28444044187063795370C8
S3150801290063789370A378D370E3781371237953713D
S31508012910237893712378D371189ADBF8783013608A
S31508012920149B188816F028FD32463B4616F0E6FB3E
S31508012930002200238046894616F0FCFF002840F055
S315080129406881814BD3E90067002200233046394666
S3150801295016F0F0FF002840F0598132463B464046C2
S315080129604946FDF7D1FB0023002216F0E3FF4FF09D
S31508012970010300B90346DBB2A37107B0BDE8F08FC6
S315080129809AF80030002BF8D09AF8023013B1E071AA
S315080129908AF802009AF8013013B100238AF8013047
S315080129A00023E371A3718AF8003007B0BDE8F08F00
S315080129B09AF80230B3B9DDE90201DDE9002316F020
S315080129C0E1FF00287FF451AF9AF80130002BD4D0EB
S315080129D00023A3718AF8013007B0BDE8F08F002BF8
S315080129E03FF443AF0023E3718AF80230E3E700229C
S315080129F0564B4046494616F0BBFF002600270028DD
S31508012A0000F0BA8029F000473946404616F058F9D1
S31508012A1002460B4640463946CDE9042316F06EFBBD
S31508012A20002206460F4600234046494616F08CFF0B
S31508012A304FF00105002800F0F180ED01EDB211E536
S31508012A400123E37111E79FED3A7B00268DED047BA7
S31508012A503F4F002536E69FED367B00268DED047B3C
S31508012A603C4F00255AE53046394616F0A1F8064688
S31508012A700F46E9E50022384B3046394616F078FF0D
S31508012A80002800F0CF80002200233046394616F090
S31508012A905BFF4FF0010500B9054627F000493046AE
S31508012AA0494616F00DF9B04602460B4606460F464C
S31508012AB04046494616F022FBED01EDB2CDE9040187
S31508012AC0A4E53046394616F073F806460F467FE503
S31508012AD00022214B3046394616F04AFF002800F0FD
S31508012AE0A980002200233046394616F02DFF4FF003
S31508012AF0010500B9054627F000493046494616F052
S31508012B00DFF8B04602460B4606460F46404649469A
S31508012B1016F0F4FAED01EDB2CDE904013AE53046D5
S31508012B20394616F045F806460F46B9E4AFF3008074
S31508012B3000000000000000006000002000001C40AA
S31508012B40800000200000F03F68000020000014C04B
S31508012B5000001440000024400000F0BF304639460A
S31508012B6016F026F806460F46F6E43046394616F0BC
S31508012B701FF806460F46C3E59FED457B80258DED7B
S31508012B80047B6FE49FED447B00268DED047B444F67
S31508012B90802597E59FED407B00268DED047B414F0F
S31508012BA08025BBE4404B93ED007B0022002351ECCA
S31508012BB0170B8DED047B16F0BDFE002854D0324666
S31508012BC03B464046494616F099FA0022002316F07C
S31508012BD0B1FE00287FF434AF0023E37145E6334B99
S31508012BE093ED007B0022002351EC170B8DED027B40
S31508012BF016F0A0FE30B332463B464046494616F02B
S31508012C007DFA0022002316F095FE10B90023A37160
S31508012C10B3E60123A371B0E605466CE405460CE765
S31508012C2005463CE59FED1C7B00268DED047B204F78
S31508012C308025EBE49FED187B00268DED047B1C4F68
S31508012C408025A7E4DDE90223DDE90001FDF75CFA49
S31508012C500022002316F06EFE00287FF436AE149B80
S31508012C60188816F089FB5FE6DDE90423DDE9020130
S31508012C70FDF74AFA0022002316F05CFE00287FF4CD
S31508012C809CAD149B188816F077FBC5E5AFF3008059
S31508012C9000000000000014400000000000000000D1
S31508012CA00000144000002440600000206800002055
S31508012CB00000F03F0B791BB10023437483740B7139
S31508012CC04B7843B1CB7813B10023C371CB708B78A2
S31508012CD043B900234B700023C37143748371837412
S31508012CE00B70704700238B70F3E700BF2DE9F04F97
S31508012CF0A1B09046359A19929946369A2D9B0B930F
S31508012D001A922F9B379A16931B92309B389A0C93DB
S31508012D101C92319B399A0D930E92329B3A9A1793CC
S31508012D200F92339B3B9A18932A9DDDF8ACB02C9CE5
S31508012D302E9E349B10923C9A11923D9A12923E9A7B
S31508012D4013923F9A1492409A1D92419A1592429F64
S31508012D50DDF80CA1002848D022780AB90122227090
S31508012D60CDE91E89D3E900890022354B40464946FB
S31508012D7016F0E0FD4FF0010E00283BD040464946CB
S31508012D8000222F4B5FFA8EF816F0D4FD00283AD0B0
S31508012D9023791BB100236B74AB742371159B38938C
S31508012DA0149B3793139B3693129B3593119B34933C
S31508012DB0109B33930F9B32930E9B31930D9B30934C
S31508012DC00C9B2F930B9B2D93DDE91E230134404663
S31508012DD02C942E96CDF8ACB02A95CDF8E8A0399763
S31508012DE021B0BDE8F04FFFF707BB237823B921B01F
S31508012DF0BDE8F08F8646C1E72146284621B0BDE8E1
S31508012E00F04FFFF757BF1D9A09921C9A08921B9A11
S31508012E1007921A9A0692199A0592189A0492179A7B
S31508012E200392231D169A02928DE8480005F11102B4
S31508012E300BF18003DDE91E01FDF700F9AEE700BFDE
S31508012E400000F03F2DE9F04F85B00E9D109C00283B
S31508012E5000F03481217809B9012121701F46129B9E
S31508012E601888164616F098FA8046894602460B4691
S31508012E703046394616F05EFD20B100232B70159BAE
S31508012E801B786B7042464B463046394616F05CFD58
S31508012E90002800F025811899AE4B0022D1E90001DE
S31508012EA016F05CFDA378002800F02E810BB90123EA
S31508012EB0A370A94B3046D3E90023394616F020F909
S31508012EC0129B80461888894616F056FA0022A34BAB
S31508012ED082468B4616F014F942464B4616F00EF911
S31508012EE000220023CDE9000116F024FD002800F098
S31508012EF015811A9B93F800A0189B4FEACA1A5FFA24
S31508012F008AFA85F806A0D3E9000116F083FD0001C7
S31508012F105FFA80FB119B85F807B0D3E9000116F02B
S31508012F2079FD139B139A5044584418706B78537063
S31508012F302B7893702B78D3702B7813712B78537168
S31508012F402B7893712B78D3710F9B169A5B68136054
S31508012F50129B188816F010FA42464B4616F0CEF820
S31508012F60002200238046894616F0E4FC002840F03A
S31508012F70D2807B4BD3E900AB002200235046594649
S31508012F8016F0D8FC002840F0E28052465B464046DF
S31508012F904946FDF7B9F80023002216F0CBFC4FF09D
S31508012FA0010300B90346DBB2EB701999694B00229C
S31508012FB0D1E9000116F0D2FC002800F09C80637864
S31508012FC00BB901236370674B3046D3E900233946B1
S31508012FD016F096F8129B064618880F4616F0CCF995
S31508012FE000225E4B8046894616F08AF832463B46F1
S31508012FF016F084F80022002382468B4616F09AFCC6
S31508013000002800F0B3801A9B1878199BC0015FFA53
S3150801301080F885F80480D3E9000116F0FBFC00016D
S31508013020C4B2119B6C71D3E9000116F0F3FC149B31
S31508013030149A2044404418706B7853702B78937017
S315080130402B78D3702B7813712B7853712B78937156
S315080130502B78D3710F9B179A1B681360129B1888DC
S3150801306016F08AF932463B4616F048F80022002344
S315080130708046894616F05EFC002840F091803A4B5E
S31508013080D3E90067002200233046394616F052FC80
S31508013090002840F0828032463B4640464946FDF7C5
S315080130A033F80023002216F045FC4FF0010300B95E
S315080130B00346DBB2AB7005B0BDE8F08F2378002B71
S315080130C0F9D0A3780BB1E870A07063780BB100232F
S315080130D063700023EB70AB70237005B0BDE8F08F09
S315080130E0A378A3B942464B463046394616F02CFC1E
S315080130F000287FF45AAF6378002BDCD00023AB702D
S31508013100637005B0BDE8F08F002B3FF44EAF002386
S31508013110EB70A370E6E70123EB7046E7104B93EDDE
S31508013120007B0022002351EC170B8DED027B16F074
S3150801313001FC002849D042464B465046594615F0EF
S31508013140DDFF0022002316F0F5FB0028E3D100235A
S31508013150EB702AE700001C40780000200000F03FD1
S31508013160600000208000002068000020204B93EDBD
S31508013170007B0022002351EC170B8DED007B16F026
S31508013180D9FB80B132463B464046494615F0B6FF63
S315080131900022002316F0CEFB10B90023AB708AE794
S315080131A00123AB7087E7DDE9002350465946FCF752
S315080131B0ABFF0022002316F0BDFB00287FF423AFE6
S315080131C0129B188816F0D8F84CE7DDE90223DDE9E9
S315080131D00001FCF799FF0022002316F0ABFB00283B
S315080131E07FF487AE129B188816F0C6F8B4E600BFBE
S315080131F068000020F0B585B00EAC70CC002830D040
S31508013200287808B9012028701846174600295FD181
S31508013210AB78002B4DD1002F4FD16B78002B45D1C0
S31508013220A37D002B2DD0637D3370A37B7370E37B65
S31508013230B370237CF370637C3371A37C7371E37C75
S31508013240B371237DF371A37D002B2DD1237A00332E
S3150801325018BF012313990B70119B01221A7005B02F
S31508013260F0BD2B78002BFAD0AB780BB1A075A870FE
S315080132706B7813B1002323726B7000232B7005B092
S31508013280F0BDE3793370237873706378B370A378EC
S31508013290F370E3783371237973716379B371A37921
S315080132A0F371A37D002BD1D00123D3E727726F7069
S315080132B0B6E7A175A970002FAFD0129B029301350D
S315080132C001950094DDE90C230A98FDF7C3F8A7E7F1
S315080132D004F10E02129B0293A91C00920191DDE9E9
S315080132E00C23FDF765F896E72DE9F04FA9B0339958
S315080132F0119135991D9138991491399921913A99D4
S3150801330023913B9922913C9924913D9915913E9996
S315080133101C913F991E91409916914199189143998B
S31508013320329C349DDDF8D8A0DDF8DCB0DDF80891D3
S315080133301A9100284DD0297809B901212970CDE9BA
S315080133401223149BB3F80080404616F025F8DDE9F0
S31508013350122306460F4616F015FB00284BD100230B
S31508013360209300231F9330463946DDE9122316F0D0
S31508013370E1FA002858D1E3782593237826936378D0
S315080133802793209B94F804B06779A079A278002B3B
S3150801339040F0C181AB7883B1209AA273AA70149BBD
S315080133A094F804B0B3F80080E3782593237826933C
S315080133B067796378A079A27827931F9B002B40F041
S315080133C01A826B7813B11F9AE2726A7029B0BDE846
S315080133D0F08F2B78002BF9D0AB780BB1A073A870BE
S315080133E06B780BB100236B700023A373E3722B7008
S315080133F029B0BDE8F08F15990A4B0022D1E90001E1
S3150801340016F0ACFA011C18BF012120911C99054B35
S315080134100022D1E9000116F0A1FA0028A1D0012362
S315080134201F93A0E700001C409BF8003023702693E9
S3150801343000269AF800306370A670D9E900892793A7
S315080134400022C74B4046494616F09CFA002800F070
S315080134508B81DFF80CB3B046002700264FF0000A2F
S31508013460119B84F80A80D3E904235046594615F07E
S31508013470F9FF119B8246D3E9022330468B4639462A
S3150801348016F01AF90022002306460F4616F05CFAD2
S31508013490002840F0E9813046394615F011FC064608
S315080134A00F465946504616F0B5FA39468044304615
S315080134B016F0B0FA4044C3B2E37025931A9BD3E9D8
S315080134C000670022A64B3046394616F05BFA0028FB
S315080134D040F07F810022A34B3046394616F048FA60
S315080134E0002800F0E281002200233046394616F012
S315080134F02BFA4FF0010A002800F0E68127F000496F
S315080135003046494615F0DCFBB04602460B460646F0
S315080135100F464046494615F0F1FDCDE91A014FEA35
S31508013520CA1A5FFA8AFA3046119E84F809A0D6E9C2
S315080135300A23394615F096FFD6E9082380468946B7
S31508013540DDE91A0116F0B8F80022002306460F46EF
S3150801355016F0FAF9002840F072813046394615F01E
S31508013560AFFB06460F464946404616F053FA39461A
S315080135708244304616F04EFA50445FFA80FB189B97
S3150801358084F804B0D3E900670022754B3046394602
S3150801359016F0F8F9002840F025810022714B3046D3
S315080135A0394616F0E5F9002800F065810022002366
S315080135B03046394616F0C8F94FF0010A002800F0DE
S315080135C07F8127F000493046494615F079FBB04618
S315080135D002460B4606460F464046494615F08EFDFD
S315080135E0CDE918014FEACA1A5FFA8AFA3046119EDE
S315080135F084F808A0D6E91023394615F033FFD6E931
S315080136000E2380468946DDE9180116F055F8002291
S31508013610002306460F4616F097F9002840F01D814B
S315080136203046394615F04CFB06460F464946404694
S3150801363016F0F0F939468244304616F0EBF9504453
S31508013640C7B2169B6771D3E900890022444B4046ED
