S02A00002E2E2F48414E636F6465725F453430375F5454415F436F6E74726F6C6C65725F76322E737265637A
S3150800400094D40020552F020800000000000000008C
S315080040100000000000000000000000000000000092
S3150800402000000000000000000000000001FD01087B
S3150800403000000000000000009DFD0108EDFD0108DC
S315080040400000000000000000000000000000000062
S315080040500000000000000000000000000000000052
S3150800406000000000DD0A0208000000000000000051
S315080040700000000000000000000000000000000032
S3150800408000000000000000000000000029F10108FF
S31508004090E1F0010805F101084DF1010800000000F2
S315080040A0C90A0208B50A0208A10A0208910A020802
S315080040B07D0A0208690A0208550A0208000000007B
S315080040C000000000000000000000000000000000E2
S315080040D000000000E1140208F9140208111502088C
S315080040E00000000000000000D915020800000000CA
S315080040F0410A02082D0A02081D0A020800000000EB
S315080041000000000041150208000000000000000041
S315080041100000000000000000000000000000000091
S31508004120000000000000000000000000451502081D
S31508004130000000000D0B020800000000B9F101089C
S3150800414071F1010895F10108DDF101080916020867
S315080041500000000000000000000000002915020809
S315080041600000000000000000000000000000000041
S315080041700000000000000000000000000000000031
S311080041800000000000000000EE11AA5527
S3150800C000000000000000000000000000000044409E
S3150800C0100000000000004640000000000000484004
S3150800C0200000000000004A400000000000005740E1
S3150800C03000000000000058400000000000005940C1
S3150800C040000000000080614000000000000062401F
S3150800C0500000000000806240000000000080674089
S3150800C06000000000000068400000000000806840F2
S3150800C07000000000000069400000000000806940E0
S3150800C0800000000000006A400000000000000000F8
S3150800C0900000000000004440000000000000464088
S3150800C0A00000000000004840000000000000564064
S3150800C0B000000000000057400000000000806040BB
S3150800C0C000000000000061400000000000806140A0
S3150800C0D0000000000000624000000000008062408E
S3150800C0E00000000000806740000000000000684073
S3150800C0F00000000000006D400000000000806D4058
S3150800C1000000000000006E40000000000080714042
S3150800C1100000000000C071400000000000000000A0
S3150800C120000000000000F03F000000000000F03FA3
S3150800C130000000000000F03F0000000000000000C2
S3150800C140000000000000F03F000000000000F03F83
S3150800C1500000000000000000000000000000F03FA2
S3150800C160000000000000F03F000000000000000092
S3150800C170000000000000F03F000000000000F03F53
S3150800C180000000000000F03F000000000000F03F43
S3150800C190000000000000F03F000000000000F03F33
S3150800C1A00000000000000000000000000000F03F52
S3150800C1B0000000000000F03F000000000000000042
S3150800C1C0000000000000F03F000000000000000032
S3150800C1D0000000000000F03F000000000000F03FF3
S3150800C1E0000000000000F03F000000000000F03FE3
S3150800C1F00000000000000000000000000000F03F02
S3150800C2000000000000000000000000000000F03FF1
S3150800C210000000000000F03F0000000000000000E1
S3150800C220000000000000F03F000000000000F03FA2
S3150800C23000000101010001000101000000010001E8
S3150800C240000000000080624000000000008061409D
S3150800C250000000000000624000000000000072407C
S3150800C26000000000000068400000000000806D40EB
S3150800C2700000000000806A400000000000006140E5
S3150800C2800000000000005740000000000000464083
S3150800C2900000000000006E4000000000000048405A
S3150800C2A000000000000044400000000000806740D5
S3150800C2B00000000000006D40000000000080714092
S3150800C2C000000000000056400000000000806040AA
S3150800C2D00000000000A06D400000000000E06D4076
S3150800C2E0000000000000F03F000000000000F03FE2
S3150800C2F0000000000000F03F000000000000F03FD2
S3150800C300000000000000F03F000000000000F03FC1
S3150800C310000000000000F03F000000000000F03FB1
S3150800C320000000000000F03F000000000000F03FA1
S3150800C330000000000000F03F000000000000F03F91
S3150800C340000000000000F03F000000000000F03F81
S3150800C350000000000000F03F000000000000F03F71
S3150800C360000000000000F03F000000000000F03F61
S3150800C370000000000000F03F000000000000F03F51
S3150800C380000000000000F03F000000000000F03F41
S3150800C390000000000000F03F000000000000F03F31
S3150800C3A00000000000003040000000000000B03F20
S3150800C3B00000000000003040000000000000B03F10
S3150800C3C00000000000003040000000000000B03F00
S3150800C3D00000000000003040000000000000B03FF0
S3150800C3E00000000000003040000000000000B03FE0
S3150800C3F00000000000003040000000000000B03FD0
S3150800C4000000000000003040000000000000B03FBF
S3150800C4100000000000003040000000000000B03FAF
S3150800C4200000000000805640000000000000504058
S3150800C430000000000000903F00000000000050408F
S3150800C440000000000000903F0000000000002040AF
S3150800C450000000000000C03F0000000000C060406F
S3150800C4600000000000004040000000000000A03F5F
S3150800C4700000000000004040000000000000A03F4F
S3150800C4800000000000004040000000000000A03F3F
S3150800C4900000000000004040000000000000A03F2F
S3150800C4A0000000A09999A93F000000000000903FF5
S3150800C4B00000000000005040000000000000C03FDF
S3150800C4C00000000000002040000000000000903F2F
S3150800C4D00000000000005040000000000000A03FDF
S3150800C4E00000000000004040000000000000A03FDF
S3150800C4F00000000000004040000000000000A03FCF
S3150800C5000000000000004040000000000000A03FBE
S3150800C5100000000000004040000000000000B03F9E
S3150800C5200000000000003040000000000000B03F9E
S3150800C5300000000000003040000000000000B03F8E
S3150800C5400000000000003040000000000000B03F7E
S3150800C55000000000000030400000000000006940B4
S3150800C56000000000008069400000000000806A406A
S3150800C5700000000000006A4000000000000046407D
S3150800C58000000000000048400000000000004A408B
S3150800C590000000000000594000000000000058405C
S3150800C5A000000000008062400000000000006240B9
S3150800C5B0000000000080684000000000000068409D
S3150800C5C000000000000044400000000000806740B2
S3150800C5D00000000000005740000000000080614095
S3150800C5E00000000000003040000000000000B03FDE
S3150800C5F00000000000003040000000000000B03FCE
S3150800C6000000000000002040000000000000C03FBD
S3150800C6100000000000005040000000000000903FAD
S3150800C6200000000000005040000000000000903F9D
S3150800C630000000000000F03F150000001500000093
S3150800C64016000000160000000000000000000001AF
S3150800C65000000000000010C0000000000000B03F0D
S3150800C660000000000000304000000000000008C084
S3150800C670000000000000C03F00000000000020404D
S3150800C68000000000000018C0000000000000903FF5
S3150800C690000000000000504000000000000018C024
S3150800C6A0000000000000903F00000000000050401D
S3150800C6B000000000000010C0000000000000B03FAD
S3150800C6C000000000000030400100000001000000EA
S3150800C6D0010000000100000000000000000000004A
S3150800C6E015000000150000000000000016000000FC
S3150800C6F016000000000000001900000019000000E4
S3150800C70019000000190000000000000000000000E9
S3150800C71000000000000010C0000000000000B03F4C
S3150800C720000000000000304000000000000010C0BB
S3150800C730000000000000B03F00000000000030408C
S3150800C74000000000000010C0000000000000B03F1C
S3150800C750000000000000304000000000000010C08B
S3150800C760000000000000B03F00000000000030405C
S3150800C770180000001800000018000000180000004B
S3150800C780000000000000000000000000000010C0CB
S3150800C790000000000000B03F00000000000030402C
S3150800C7A000000000000010C0000000000000B03FBC
S3150800C7B0000000000000304000000000000010C02B
S3150800C7C0000000000000B03F0000000000003040FC
S3150800C7D000000000000010C0000000000000B03F8C
S3150800C7E0000000000000304017000000170000009D
S3150800C7F01700000017000000000000000D000000F0
S3150800C8000D0000000D0000000D00000000000000F3
S3150800C8100C0000000C0000000C0000000C000000DA
S3150800C820000000000B0000000B0000000B000000D9
S3150800C8300B0000000000000000000000000010C00F
S3150800C840000000000000B03F00000000000030407B
S3150800C85000000000000008C0000000000000C03F03
S3150800C860000000000000204000000000000018C082
S3150800C870000000000000903F00000000000050404B
S3150800C88000000000000018C0000000000000903FF3
S3150800C890000000000000504000000000000010C02A
S3150800C8A0000000000000B03F00000000000030401B
S3150800C8B00100000001000000010000000100000066
S3150800C8C000000000000000006464640048414E63F4
S3150800C8D06F6465725F453430375F5454415F436F08
S3150800C8E06E74726F6C6C65725F76325F736F6674A6
S3150800C8F07761726549445F76315F30333031323261
S3150800C9005F313832393034004170704374726C5478
S3150800C91061736B0048414E636F6465725F453430DE
S3150800C920375F5454415F436F6E74726F6C6C6572F7
S3150800C9305F76322E630000002000000000140240DB
S3150800C94008000900200000000014024010000E0034
S3150800C950200000000014024020000F002000000004
S3150800C96000140240400004002000000000140240A9
S3150800C97080000500200000000014024000010600A7
S3150800C98020000000001402400002070020000000FA
S3150800C99000140240000408000400000000080240D9
S3150800C9A001000A00040000000008024004000C0010
S3150800C9B0414443636F6E76657273696F6E54617333
S3150800C9C06B0000002E2E2F626C6F636B7365742FDD
S3150800C9D07274772F53544D33322F7372632F6865F1
S3150800C9E061705F342E630000546D724370754C6F2E
S3150800C9F06164000049444C45000000002E2E2F6259
S3150800CA006C6F636B7365742F7274772F53544D3341
S3150800CA10322F7372632F7461736B732E6300000079
S3150800CA202E2E2F626C6F636B7365742F7274772F5B
S3150800CA3053544D33322F7372632F74696D65727355
S3150800CA402E630000546D72205376630043616E4571
S3150800CA5076656E745461736B0000000043616E5412
S3150800CA6072616E736D69745461736B002E2E2F623A
S3150800CA706C6F636B7365742F7274772F53544D33D1
S3150800CA80322F7372632F53544D33325F4534303728
S3150800CA902F63616E2E6300000064004000000002F0
S3150800CAA008000000000C0240010000000800000019
S3150800CAB0000C0240020001000913141516000000BC
S3150800CAC00068004000000004020000000004024064
S3150800CAD02000050002000000000402404000060095
S3150800CAE0093F404142000000010102010202020220
S3150800CAF002030202040202030303040303050303F9
S3150800CB0006030305040406040407040408040407CA
S3150800CB10050508050508060508070508070608089F
S3150800CB200608080708080800457643686E6C310051
S3150800CB30457643686E6C3200457643686E6C330002
S3150800CB402E2E2F626C6F636B7365742F7274772F3A
S3150800CB5053544D33322F7372632F53544D33325F10
S3150800CB60453430372F6D61632E6300002E2E2F62F9
S3150800CB706C6F636B7365742F7274772F53544D33D0
S3150800CB80322F7372632F53544D33325F4534303727
S3150800CB902F706F72742E63000000014001000000C0
S3150800CBA00201000010000000001002400002090007
S3150800CBB0100000000010024000080B0000040040AE
S3150800CBC0020000000102000001000000000002400F
S3150800CBD04000060002000000000402402000050094
S3150800CBE000080040040000000102000008000000E0
S3150800CBF0000C024000100C0008000000000C024067
S3150800CC0000200D000004014002000000020300009D
S3150800CC10040000000008024040000600040000006E
S3150800CC2000080240800007000000014001000000E3
S3150800CC3002011900000000400100000001021C006A
S3150800CC40000400400200000001021D000008004028
S3150800CC500400000001021E0000040140020000005A
S3150800CC6002012C00004001400000010002011800EA
S3150800CC70004401400000020002011900004801407A
S3150800CC800000040002011A00001C00408000000099
S3150800CC9001022C00002000400001000001022D00C6
S3150800CCA00400000000080240010000002000000007
S3150800CCB0001402404000000020000000001402405A
S3150800CCC0800000002000000000140240000100005F
S3150800CCD020000000001402400002000020000000AE
S3150800CCE00014024000040000020000000004024094
S3150800CCF0800000000200000000040240400000001E
S3150800CD00100000000010024004000000100000009F
S3150800CD100010024010000000100000000010024041
S3150800CD202000000010000000001002404000000033
S3150800CD30400000000018024080000000400000008B
S3150800CD4000180240000100004000000000180240E0
S3150800CD50001000004000000000180240008000009B
S3150800CD600100000000000240100000000200000060
S3150800CD7000040240200000000100000000000240FC
S3150800CD8040000000010000000000024020000000F2
S3150800CD9008000000000C0240010000000800000026
S3150800CDA0000C02400200000008000000000C0240CF
S3150800CDB00400000008000000000C02400800000003
S3150800CDC008000000000C02401000000008000000E7
S3150800CDD0000C02402000000008000000000C024081
S3150800CDE04000000008000000000C0240800000001F
S3150800CDF008000000000C02400001000008000000C6
S3150800CE00000C02400002000008000000000C02406E
S3150800CE100004000008000000000C024000080000A2
S3150800CE2008000000000C0240001000000800000086
S3150800CE30000C02400020000008000000000C024020
S3150800CE400040000008000000000C024000800000BE
S3150800CE501000000000100240010000001000000051
S3150800CE6000100240020000001000000000100240FE
S3150800CE7008000000100000000010024080000000BA
S3150800CE801000000000100240000100001000000021
S3150800CE9000100240000200001000000000100240CE
S3150800CEA00004000010000000001002400008000006
S3150800CEB010000000001002400010000010000000E2
S3150800CEC00010024000200000100000000010024080
S3150800CED00040000010000000001002400080000022
S3150800CEE0200000000014024001000000200000009D
S3150800CEF00014024002000000200000000014024056
S3150800CF000400000020000000001402400800000091
S3150800CF10200000000014024010000000200000005D
S3150800CF200014024020000000200000000014024007
S3150800CF300008000020000000001402400010000055
S3150800CF40200000000014024000200000200000001D
S3150800CF5000140240004000002000000000140240B7
S3150800CF600080000040000000001802400100000098
S3150800CF7040000000001802400200000040000000C7
S3150800CF80001802400400000040000000001802409B
S3150800CF9008000000400000000018024010000000D1
S3150800CFA04000000000180240200000004000000079
S3150800CFB0001802404000000040000000001802402F
S3150800CFC000020000400000000018024000040000B3
S3150800CFD04000000000180240000800004000000061
S3150800CFE0001802400020000040000000001802401F
S3150800CFF0004000000100000000000240010000009F
S3150800D00004000000000802400100000020000000A3
S3150800D01000140240400000002000000000140240F6
S3150800D02080000000200000000014024000010000FB
S3150800D030200000000014024000020000200000004A
S3150800D0400014024000040000020000000004024030
S3150800D05080000000020000000004024040000000BA
S3150800D060100000000010024004000000100000003C
S3150800D07000100240100000001000000000100240DE
S3150800D08020000000100000000010024040000000D0
S3150800D0904000000000180240800000004000000028
S3150800D0A0001802400001000040000000001802407D
S3150800D0B00010000040000000001802400080000038
S3150800D0C001000000000002401000000002000000FD
S3150800D0D00004024020000000010000000000024099
S3150800D0E0400000000100000000000240200000008F
S3150800D0F008000000000C02400100000008000000C3
S3150800D100000C02400200000008000000000C02406B
S3150800D1100400000008000000000C0240080000009F
S3150800D12008000000000C0240100000000800000083
S3150800D130000C02402000000008000000000C02401D
S3150800D1404000000008000000000C024080000000BB
S3150800D15008000000000C0240000100000800000062
S3150800D160000C02400002000008000000000C02400B
S3150800D1700004000008000000000C0240000800003F
S3150800D18008000000000C0240001000000800000023
S3150800D190000C02400020000008000000000C0240BD
S3150800D1A00040000008000000000C0240008000005B
S3150800D1B010000000001002400100000010000000EE
S3150800D1C0001002400200000010000000001002409B
S3150800D1D00800000010000000001002408000000057
S3150800D1E010000000001002400001000010000000BE
S3150800D1F0001002400002000010000000001002406B
S3150800D20000040000100000000010024000080000A2
S3150800D210100000000010024000100000100000007E
S3150800D220001002400020000010000000001002401C
S3150800D23000400000100000000010024000800000BE
S3150800D2402000000000140240010000002000000039
S3150800D25000140240020000002000000000140240F2
S3150800D260040000002000000000140240080000002E
S3150800D27020000000001402401000000020000000FA
S3150800D28000140240200000002000000000140240A4
S3150800D29000080000200000000014024000100000F2
S3150800D2A020000000001402400020000020000000BA
S3150800D2B00014024000400000200000000014024054
S3150800D2C00080000040000000001802400100000035
S3150800D2D04000000000180240020000004000000064
S3150800D2E00018024004000000400000000018024038
S3150800D2F0080000004000000000180240100000006E
S3150800D3004000000000180240200000004000000015
S3150800D31000180240400000004000000000180240CB
S3150800D320000200004000000000180240000400004F
S3150800D33040000000001802400008000040000000FD
S3150800D34000180240002000004000000000180240BB
S3150800D3500040000004000000000802400020000011
S3150800D360000001400100000002011B00000000400F
S3150800D3700100000001021C00000400400200000039
S3150800D38001021D00000800400400000001021E0002
S3150800D390000401400200000002012E000040014086
S3150800D3A000000100020118000044014000000200CC
S3150800D3B002011900004801400000040002011A0099
S3150800D3C0001C00408000000001022C0000200040E4
S3150800D3D00001000001022D001000000000100240AC
S3150800D3E0000200000200020001000900100000000F
S3150800D3F000100240000800010400200001000B0094
S3150800D4001000000000100240002000020800000280
S3150800D41001000D001000000000100240004000034B
S3150800D4201000002001000E0001000000000002406C
S3150800D43020000100020002000100050001000000B2
S3150800D440000002404000020002000200020006003E
S3150800D450020000000004024020000201040020002F
S3150800D4600200050008000000000C0240001003003E
S3150800D4700200020002000C0008000000000C024036
S3150800D480002003010400200002000D000400000033
S3150800D49000080240400004000200020003000600E3
S3150800D4A00400000000080240800004010400200077
S3150800D4B003000700100000000010024020000500CD
S3150800D4C002000200030005001000000000100240E0
S3150800D4D040000501040020000300060020000000AB
S3150800D4E00014024040000600020002000300060085
S3150800D4F0200000000014024080000700020002001D
S3150800D5000300070020000000001402400001080084
S3150800D5100200020009000800200000000014024072
S3150800D520000209000200020009000900001001407B
S3150800D530100000000225000002000000000402405E
S3150800D54040000600020000000004024080000700B8
S3150800D5500700000000440040000002000126000009
S3150800D56008000000000C024020000500080000002A
S3150800D570000C02404000060007000000004800407A
S3150800D580000004000127000008000000000C02400B
S3150800D5900001080008000000000C02400002090013
S3150800D5A007000000001401402000000002470000A8
S3150800D5B004000000000802404000060004000000C5
S3150800D5C0000802408000070008000000564350206B
S3150800D5D0436F6E666967000056435020496E74654E
S3150800D5E0726661636500000053544D6963726F6526
S3150800D5F06C656374726F6E696373000053544D33C0
S3150800D60032205669727475616C20436F6D506F7263
S3150800D6107420696E204853206D6F64650000000011
S3150800D62053544D3332205669727475616C20436FBA
S3150800D6306D506F727420696E204653204D6F646575
S3150800D6400000000030303030303030303035304275
S3150800D6500000000030303030303030303035304364
S3150800D66000000000000001400100000002011B004C
S3150800D670000000400100000001021C0000040040F8
S3150800D6800200000001021D0000080040040000001E
S3150800D69001021E00000401400200000002012E00E3
S3150800D6A0004001400000010002011800004401404A
S3150800D6B000000200020119000048014000000400B1
S3150800D6C002011A00001C00408000000001022C0024
S3150800D6D0002000400001000001022D00100000009B
S3150800D6E000100240000200000200020001000900CA
S3150800D6F0100000000010024000080001040020008D
S3150800D70001000B001000000000100240002000027B
S3150800D7100800000201000D00100000000010024081
S3150800D720004000031000002001000E000100000068
S3150800D730000002402000010002000200010005006E
S3150800D7400100000000000240400002000200020042
S3150800D7500200060002000000000402402000020148
S3150800D760040020000200050008000000000C02402A
S3150800D770001003000200020002000C00080000006E
S3150800D780000C0240002003010400200002000D00E6
S3150800D79004000000000802404000040002000200E5
S3150800D7A0030006000400000000080240800004018F
S3150800D7B004002000030007001000000000100240CB
S3150800D7C0200005000200020003000500100000000A
S3150800D7D00010024040000501040020000300060076
S3150800D7E0200000000014024040000600020002006B
S3150800D7F00300060020000000001402408000070015
S3150800D8000200020003000700200000000014024086
S3150800D81000010800020002000900080020000000BC
S3150800D8200014024000020900020002000900090073
S3150800D8302E2E2F626C6F636B7365742F7274772F3D
S3150800D84053544D33322F7372632F71756575652E78
S3150800D850630000000404040068D8000870D80008B3
S3150800D86078D8000807070700457643686E6C3100CC
S3150800D870457643686E6C3200457643686E6C3300B5
S3150800D88050505000666D6F640000000000000000F4
S3150800D89000000000000000000000000000000080FA
S3090800D8A04300000033
S315080100000B78FF2B00D070474B78002BFBD10DF0F6
S31508010010F7B900BF08B501200CF0FEFC034A40F20F
S3150801002067610020BDE808400FF040BA01000108E9
S3150801003000200CF081BB00BF704700BF2DE9F047D7
S31508010040DDF820E0099E9EF800C004460D4692465A
S315080100501F46BCF1000F02D101238EF8003030880B
S3150801006015F016FC22462B468046894615F0DEFE1B
S31508010070E0B10E9A3B6813600D9A7B6813600C9A7F
S31508010080BB7A1370109A3B7A13700B9AFB7A13702A
S315080100900F9A7B7A13700A9A002313605360119A98
S315080100A01370308815F0F4FB8046894642464B4664
S315080100B02046294615F0C4FE68B10B9B1B78D3B9B7
S315080100C001238AF800300C9B1B787BB901238AF837
S315080100D00130BDE8F087002642464B4620462946B0
S315080100E08AF8006015F0ACFE0028ECD100238AF8E6
S315080100F00130BDE8F08700238AF800300C9B1B7895
S31508010100002BF3D1E2E700BF2DE9F04F83B0164685
S315080101101F4682468B4615F0D7F80022002304466F
S315080101200D4615F083FED8BB8046002200232046E3
S3150801013029465FFA88F815F079FE50B930463946EE
S3150801014015F03AF802460B463046394615F096FE42
S3150801015090BBB8F1000F5FD15046594600220023E3
S315080101604FF0010915F06CFE20B30023002230463A
S31508010170394615F065FE4FF00103A0B15FFA89F91A
S31508010180DBB2994507D02046294632463B4615F04B
S3150801019033FA04460D462046294603B0BDE8F08FDA
S315080101A04FF00108C1E703465FFA89F9DBB29945C1
S315080101B0E9D1F0E7C146D8E732463B4650465946AB
S315080101C015F0F6FC21F000490022194B49468046F4
S315080101D015F012FA14F0F0FF02460B46404649465E
S315080101E015F008FA0B46024623F0004340460092F2
S315080101F0019300220F4B494615F0B0FB02460B4608
S31508010200DDE9000115F026FE4FF0010858B15FFA45
S3150801021088F8B8F1000F9FD000240025204629460A
S3150801022003B0BDE8F08F80465FFA88F8F1E700BFB2
S315080102300000E03F0000B03C2DE9F04F87B0CDE962
S31508010240002319999DF8404091F800E004949DF81F
S31508010250444005949DF848509DF84C609DF85070AF
S315080102609DF854A09DF858B01B9CBEF1000F01D112
S3150801027001230B7015F0FCFA0022394BCDE9020176
S3150801028015F0BAF9DDE9002315F0B4F900220023C7
S315080102908046894615F0CAFD002851D01E9B18785C
S315080102A0179BC0015FFA80F983F801901D9BD3E97A
S315080102B0000115F02BFE179B00015FFA80F883F801
S315080102C002801A9BD3E9000115F020FE9DF8103033
S315080102D0637040449DF81430A3704844189B2070FD
S315080102E0E5702671677184F806A084F807B01C9A30
S315080102F01B681360DDE90023DDE9020115F07AF9CF
S315080103000022002304460D4615F090FD28B1179AE0
S315080103100123137007B0BDE8F08F0022114B204668
S315080103202946FFF7F1FE0023002215F07FFD4FF065
S31508010330010390B1DBB2179A137007B0BDE8F08FCD
S315080103400022084B40464946FFF7DEFE00220023FD
S3150801035015F06CFD0028CDD0A0E70346DBB2EAE72D
S315080103600000F03F000014402DE9F04F87B0CDE9B9
S31508010370002319999DF8404091F800E004949DF8EE
S31508010380444005949DF848509DF84C609DF850707E
S315080103909DF854A09DF858B01B9CBEF1000F01D1E1
S315080103A001230B7015F064FA0022394BCDE90201DD
S315080103B015F022F9DDE9002315F01CF900220023C6
S315080103C08046894615F032FD002851D01E9B1878C3
S315080103D0179BC0015FFA80F983F801901D9BD3E949
S315080103E0000115F093FD179B00015FFA80F883F869
S315080103F002801A9BD3E9000115F088FD9DF810309B
S31508010400637040449DF81430A3704844189B2070CB
S31508010410E5702671677184F806A084F807B01C9AFE
S315080104201B681360DDE90023DDE9020115F0E2F836
S315080104300022002304460D4615F0F8FC28B1179A48
S315080104400123137007B0BDE8F08F0022114B204637
S315080104502946FFF759FE0023002215F0E7FC4FF065
S31508010460010390B1DBB2179A137007B0BDE8F08F9C
S315080104700022084B40464946FFF746FE0022002364
S3150801048015F0D4FC0028CDD0A0E70346DBB2EAE795
S315080104900000F03F000020402DE9F047DDF82880F4
S315080104A0DDF8209004461D460E461746D8E9000198
S315080104B00022254B15F0A0F80123C8E9000189F8A7
S315080104C000303368214ADDF82490DFF8948001333F
S315080104D0136033602E78304615F0CAF9D9F8003022
S315080104E01B4AC8E90001136026712360EB79637121
S315080104F06B78A371AB78E371EB7823722B7963720E
S315080105006B79A372AB79E372124B3A881A8003208E
S3150801051011F0DCFA104B22791A70A2795A70E27935
S315080105209A70227ADA70627A1A71A27A5A71E27A22
S315080105309A716179094AD9711080216808220020C7
S31508010540BDE8F0470EF03EBD0000F03F6CC4002048
S3150801055018C0002028BF0020F00600205EC0002039
S31508010560F8C4002008B5012100200EF02FFF0B2149
S3150801057000200EF02BFF0C2100200EF027FF0D2185
S3150801058000200EF023FF152100200EF01FFF162173
S3150801059000200EF01BFF172100200EF017FF18216F
S315080105A000200EF013FF19210020BDE808400EF0C7
S315080105B00DBF00BF2DE9F04F2DED088B0D4683B019
S315080105C00968E34F169CE34EDDF85C90013139600A
S315080105D029602168316007EE901AB8EE678AF7EE4E
S315080105E0007AB4EE678AF1EE10FA1F46044692467F
S315080105F0EB7940F092820BB90123EB71DFF858834E
S31508010600002243460092104601210EF00BFF0028F6
S3150801061084F84B0040F3948398F80130637698F890
S315080106200230A37698F80330E37698F804302377F6
S31508010630D6ED007A98F80530637798F80630A377EF
S3150801064098F8072098F80030E277F8EE678A23765B
S31508010650F2EE067AF4EE678AF1EE10FAAB7940F01B
S31508010660DB820BB90123AB71DFF8F0820022434626
S31508010670009210460B210EF0D5FE002884F84A0098
S3150801068040F3778398F80130637498F80230A374BD
S3150801069098F80330E37498F804302375D6ED007A98
S315080106A098F80530637598F80630A37598F8072009
S315080106B098F80030E275B8EE679A2374F2EE087A74
S315080106C0B4EE679AF1EE10FA6B7940F094820BB9A1
S315080106D001236B71DFF88882002243460092104697
S315080106E00C210EF09FFE002884F8490040F33C8354
S315080106F0D6ED007A98F8073098F8062098F805108C
S3150801070098F8040098F803E098F802C098F801B040
S3150801071098F8008084F809B0F8EE679A84F80AC058
S3150801072084F80BE020736173A273E37384F808807D
S31508010730F2EE0A7AF4EE679AF1EE10FA2B7940F0A6
S3150801074048820BB901232B71DFF818820022434630
S31508010750009210460D210EF065FE002884F8480027
S315080107601BDD98F801B098F802E098F8030098F8AC
S3150801077000C098F8041098F8052098F8063098F8FB
S31508010780078084F8078084F801B084F800C084F8EB
S3150801079002E0E07021716271A371D6ED007AB8EEBC
S315080107A067AAF3EE057AB4EE67AAF1EE10FA2B7A88
S315080107B040F0F5810BB901232B72DFF8AC810022D9
S315080107C043460092104615210EF02CFE002884F8A7
S315080107D04C0040F3E08298F8013084F8213098F80B
S315080107E0023084F8223098F8033084F8233098F8D8
S315080107F0043084F82430D6ED007A98F8053084F868
S31508010800253098F8063084F8263098F8072098F8A5
S31508010810003084F82720F8EE67AA84F82030F3EE32
S31508010820067AF4EE67AAF1EE10FA6B7A40F038828E
S315080108300BB901236B72DFF834810022434600921B
S31508010840104616210EF0EEFD002884F84D0040F3FF
S315080108509D8298F8013084F8293098F8023084F896
S315080108602A3098F8033084F82B3098F8043084F845
S315080108702C30D6ED007A98F8053084F82D3098F8A2
S31508010880063084F82E3098F8072098F8003084F856
S315080108902F20B8EE67BA84F82830F3EE077AB4EE5B
S315080108A067BAF1EE10FA2B7B40F0C8810BB9012328
S315080108B02B73DFF8BC8000224346009210461721AD
S315080108C00EF0B0FD002884F8500040F35A8298F8DB
S315080108D0013084F8413098F8023084F8423098F8AB
S315080108E0033084F8433098F8043084F84430D6ED60
S315080108F0007A98F8053084F8453098F8063084F877
S31508010900463098F8072098F8003084F84720F8EE22
S3150801091067BA84F84030F3EE087AF4EE67BAF1EE76
S3150801092010FAEB7A40F0A3810BB90123EB72DFF8D9
S315080109304480002243460092104618210EF072FDAB
S31508010940002884F84F00D6ED007A40F3178213E0A9
S3150801095020BF002040C0002078060020B8060020ED
S31508010960C8060020D8060020800600208806002038
S3150801097090060020A006002098F8013084F8393046
S3150801098098F8023084F83A3098F8033084F83B3006
S3150801099098F8043084F83C3098F8053084F83D30EE
S315080109A098F8063084F83E3098F8072098F8003011
S315080109B084F83F20F8EE677A84F83830B3EE097A7E
S315080109C0F4EE477AF1EE10FAAB7A40F0D0800BB923
S315080109D00123AB72D44D00222B46009210461921F1
S315080109E00EF020FD002884F84E0017DD6B78AA78F2
S315080109F084F83130EB7884F8322084F833302A7958
S31508010A006B7984F83420A97984F83530EA792B781A
S31508010A1084F8361084F8372084F83030F7EE007AF7
S31508010A20B4EE678AF1EE10FA40F08A8094F94B30F9
S31508010A30207E94F819E0A67EE57E217F627F94F8F0
S31508010A401EB0E47F07EE103A99F8003007EE903AA7
S31508010A50F8EEE77AF7EE006AF4EE667AF1EE10FA46
S31508010A6015D1F8EEC77AF5EE407AF1EE10FA4FD1C4
S31508010A70189B4FF002084FF0010C89F8008083F8A3
S31508010A8000C099F8003007EE903AF8EEE77AF0EEF2
S31508010A90006AF4EE667AF1EE10FA2FD1B8EEC77A4B
S31508010AA0F7EE007AB4EEE77AF1EE10FA30DB189B2E
S31508010AB087F801E04FF0010C38707A71BE70FD704D
S31508010AC0397187F806B0FC7183F800C0159B974AFF
S31508010AD083F800C04FF0030E89F800E0BAF8003039
S31508010AE01380149A138014F0C3FE914BC3E90001D5
S31508010AF099F8003007EE903AF8EEE77AF5EE407A83
S31508010B00F1EE10FA04D1189A012389F8003013700E
S31508010B1003B0BDEC088BBDE8F08F73B1002380F8F4
S31508010B204B30037643768376C376037743778377A9
S31508010B30C377F0EE488AEB718AE5F0EE488A87E5D5
S31508010B40F2EE067AF4EE678AF1EE10FA40F0CC80FE
S31508010B5094F94A30207C94F811E0A67CE57C217D45
S31508010B60627D94F816B0E47D07EE103A6CE7002B27
S31508010B703FF454AF002384F84E3084F8303084F8BB
S31508010B80313084F8323084F8333084F8343084F8DC
S31508010B90353084F8363084F83730AB723EE7002BAF
S31508010BA000F09680002384F84C3084F8203084F8CD
S31508010BB0213084F8223084F8233084F8243084F8EC
S31508010BC0253084F8263084F82730F0EE4AAA2B72AD
S31508010BD025E6002B00F08280002384F84830237034
S31508010BE06370A370E37023716371A371E371B0EE4F
S31508010BF069AA2B71D5E5002B73D0002384F84930F7
S31508010C0023726372A372E37223736373A373E37329
S31508010C10F0EE499A6B718BE5002B00F08B8000236F
S31508010C2084F84A3023746374A374E3742375637573
S31508010C30A375E375B0EE689AAB713FE5002B70D0EA
S31508010C40002384F8503084F8403084F8413084F821
S31508010C50423084F8433084F8443084F8453084F8C7
S31508010C60463084F84730F0EE4BBA2B7353E6002B27
S31508010C7063D0002384F84F3084F8383084F839304B
S31508010C8084F83A3084F83B3084F83C3084F83D30B7
S31508010C9084F83E3084F83F30F0EE6B7AEB728DE6DD
S31508010CA0CBB1002384F84D3084F8283084F82930F4
S31508010CB084F82A3084F82B3084F82C3084F82D30C7
S31508010CC084F82E3084F82F30B0EE6ABA6B72E4E5F8
S31508010CD0F0EE4AAAA3E5B0EE6ABADEE5B0EE69AA75
S31508010CE05FE5F0EE499A23E5F2EE087AB4EE679AE3
S31508010CF0F1EE10FA29D0F2EE0A7AF4EE679AF1EEDD
S31508010D0010FA4DD194F94830207894F801E0A67884
S31508010D10E5782179627994F806B0E47907EE103A14
S31508010D2092E6F0EE4BBAF6E5B006002032C0002096
S31508010D30A0C00020B0EE689AC0E4F0EE6B7A3DE6FA
S31508010D40D6ED007AF8EE678A82E494F94930207A7A
S31508010D5094F809E0A67AE57A217B627B94F80EB0CD
S31508010D60E47B07EE103A6FE6D6ED007AF8EE679A5D
S31508010D70DEE4D6ED007AB8EE679A9FE4F8EE677A74
S31508010D801CE6D6ED007AF8EE67BAC4E5D6ED007A28
S31508010D90B8EE67BA81E5D6ED007AF8EE67AA3EE5C0
S31508010DA0F3EE057AB4EE67AAF1EE10FA1BD0F3EE6C
S31508010DB0067AF4EE67AAF1EE10FA29D194F94D30C4
S31508010DC094F8280094F829E094F82A6094F82B50AE
S31508010DD094F82C1094F82D2094F82EB094F82F40FE
S31508010DE007EE103A30E694F94C3094F8200094F85E
S31508010DF021E094F8226094F8235094F8241094F88A
S31508010E00252094F826B094F8274007EE103A1BE6F9
S31508010E10F3EE077AB4EE67BAF1EE10FA14D194F943
S31508010E20503094F8400094F841E094F8426094F800
S31508010E30435094F8441094F8452094F846B094F831
S31508010E40474007EE103AFFE5F3EE087AF4EE67BA83
S31508010E50F1EE10FA14D194F94F3094F8380094F859
S31508010E6039E094F83A6094F83B5094F83C1094F8B9
S31508010E703D2094F83EB094F83F4007EE103AE3E57A
S31508010E8094F94E3094F8300094F831E094F83260D1
S31508010E9094F8335094F8341094F8352094F836B011
S31508010EA094F8374007EE103ACEE500BF012108B5A0
S31508010EB008460EF08BFA0B2101200EF087FA0C2159
S31508010EC001200EF083FA0D2101200EF07FFA15217B
S31508010ED001200EF07BFA162101200EF077FA172170
S31508010EE001200EF073FA182101200EF06FFA19216C
S31508010EF00120BDE808400EF069BA00BF2DE9F04FA0
S31508010F002DED088B0D4683B00968E34F169CE34E19
S31508010F10DDF85C900131396029602168316007EE9E
S31508010F20901AB8EE678AF7EE007AB4EE678AF1EEA0
S31508010F3010FA1F4604469246EB7940F092820BB9A5
S31508010F400123EB71DFF85883002201214346009201
S31508010F5008460EF067FA002884F84B0040F394839C
S31508010F6098F80130637698F80230A37698F803303A
S31508010F70E37698F804302377D6ED007A98F80530A9
S31508010F80637798F80630A37798F8072098F8003021
S31508010F90E277F8EE678A2376F2EE067AF4EE678A46
S31508010FA0F1EE10FAAB7940F0DB820BB90123AB7194
S31508010FB0DFF8F0820022434600920B2101200EF051
S31508010FC031FA002884F84A0040F3778398F801300B
S31508010FD0637498F80230A37498F80330E37498F8A8
S31508010FE004302375D6ED007A98F80530637598F8BC
S31508010FF00630A37598F8072098F80030E275B8EE20
S31508011000679A2374F2EE087AB4EE679AF1EE10FA4B
S315080110106B7940F094820BB901236B71DFF88882F2
S315080110200022434600920C2101200EF0FBF900280C
S3150801103084F8490040F33C83D6ED007A98F80730E6
S3150801104098F8062098F8051098F8040098F803E02F
S3150801105098F802C098F801B098F8008084F809B0A9
S31508011060F8EE679A84F80AC084F80BE02073617376
S31508011070A273E37384F80880F2EE0A7AF4EE679AAB
S31508011080F1EE10FA2B7940F048820BB901232B7146
S31508011090DFF818820022434600920D2101200EF046
S315080110A0C1F9002884F848001BDD98F801B098F8C2
S315080110B002E098F8030098F800C098F8041098F828
S315080110C0052098F8063098F8078084F8078084F890
S315080110D001B084F800C084F802E0E0702171627101
S315080110E0A371D6ED007AB8EE67AAF3EE057AB4EEE7
S315080110F067AAF1EE10FA2B7A40F0F5810BB90123B4
S315080111002B72DFF8AC81002243460092152101209B
S315080111100EF088F9002884F84C0040F3E08298F82C
S31508011120013084F8213098F8023084F8223098F892
S31508011130033084F8233098F8043084F82430D6ED47
S31508011140007A98F8053084F8253098F8063084F83E
S31508011150263098F8072098F8003084F82720F8EE0A
S3150801116067AA84F82030F3EE067AF4EE67AAF1EE60
S3150801117010FA6B7A40F038820BB901236B72DFF8EB
S315080111803481002243460092162101200EF04AF9C5
S31508011190002884F84D0040F39D8298F8013084F8C0
S315080111A0293098F8023084F82A3098F8033084F800
S315080111B02B3098F8043084F82C30D6ED007A98F85C
S315080111C0053084F82D3098F8063084F82E3098F8D2
S315080111D0072098F8003084F82F20B8EE67BA84F80B
S315080111E02830F3EE077AB4EE67BAF1EE10FA2B7BE4
S315080111F040F0C8810BB901232B73DFF8BC800022AC
S3150801120043460092172101200EF00CF9002884F8B4
S31508011210500040F35A8298F8013084F8413098F822
S31508011220023084F8423098F8033084F8433098F84D
S31508011230043084F84430D6ED007A98F8053084F8FD
S31508011240453098F8063084F8463098F8072098F81B
S31508011250003084F84720F8EE67BA84F84030F3EE98
S31508011260087AF4EE67BAF1EE10FAEB7A40F0A38148
S315080112700BB90123EB72DFF8448000224346009242
S31508011280182101200EF0CEF8002884F84F00D6ED7B
S31508011290007A40F3178213E0B0C00020C0C40020D2
S315080112A068060020E8060020F806002070060020DF
S315080112B098060020A8060020C0060020D0060020B7
S315080112C098F8013084F8393098F8023084F83A30C1
S315080112D098F8033084F83B3098F8043084F83C30A9
S315080112E098F8053084F83D3098F8063084F83E3091
S315080112F098F8072098F8003084F83F20F8EE677AC6
S3150801130084F83830B3EE097AF4EE477AF1EE10FA3A
S31508011310AB7A40F0D0800BB90123AB72D44D0022D1
S315080113202B460092192101200EF07CF8002884F83A
S315080113304E0017DD6B78AA7884F83130EB7884F89B
S31508011340322084F833302A796B7984F83420A979E4
S3150801135084F83530EA792B7884F8361084F8372002
S3150801136084F83030F7EE007AB4EE678AF1EE10FAB7
S3150801137040F08A8094F94B30207E94F819E0A67ED5
S31508011380E57E217F627F94F81EB0E47F07EE103A6E
S3150801139099F8003007EE903AF8EEE77AF7EE006A28
S315080113A0F4EE667AF1EE10FA15D1F8EEC77AF5EE93
S315080113B0407AF1EE10FA4FD1189B4FF002084FF020
S315080113C0010C89F8008083F800C099F8003007EE0F
S315080113D0903AF8EEE77AF0EE006AF4EE667AF1EE04
S315080113E010FA2FD1B8EEC77AF7EE007AB4EEE77A9B
S315080113F0F1EE10FA30DB189B87F801E04FF0010C8B
S3150801140038707A71BE70FD70397187F806B0FC7153
S3150801141083F800C0159B974A83F800C04FF0030E66
S3150801142089F800E0BAF800301380149A138014F092
S315080114301FFA914BC3E9000199F8003007EE903A7B
S31508011440F8EEE77AF5EE407AF1EE10FA04D1189A39
S31508011450012389F80030137003B0BDEC088BBDE891
S31508011460F08F73B1002380F84B3003764376837689
S31508011470C376037743778377C377F0EE488AEB71B0
S315080114808AE5F0EE488A87E5F2EE067AF4EE678A8F
S31508011490F1EE10FA40F0CC8094F94A30207C94F8A9
S315080114A011E0A67CE57C217D627D94F816B0E47D89
S315080114B007EE103A6CE7002B3FF454AF002384F88B
S315080114C04E3084F8303084F8313084F8323084F87C
S315080114D0333084F8343084F8353084F8363084F87B
S315080114E03730AB723EE7002B00F09680002384F874
S315080114F04C3084F8203084F8213084F8223084F87E
S31508011500233084F8243084F8253084F8263084F88A
S315080115102730F0EE4AAA2B7225E6002B00F08280CE
S31508011520002384F8483023706370A370E370237135
S315080115306371A371E371B0EE69AA2B71D5E5002B2E
S3150801154073D0002384F8493023726372A372E3725D
S3150801155023736373A373E373F0EE499A6B718BE597
S31508011560002B00F08B80002384F84A3023746374BF
S31508011570A374E37423756375A375E375B0EE689A6E
S31508011580AB713FE5002B70D0002384F8503084F806
S31508011590403084F8413084F8423084F8433084F886
S315080115A0443084F8453084F8463084F84730F0EE04
S315080115B04BBA2B7353E6002B63D0002384F84F30C4
S315080115C084F8383084F8393084F83A3084F83B3076
S315080115D084F83C3084F83D3084F83E3084F83F3056
S315080115E0F0EE6B7AEB728DE6CBB1002384F84D30C1
S315080115F084F8283084F8293084F82A3084F82B3086
S3150801160084F82C3084F82D3084F82E3084F82F3065
S31508011610B0EE6ABA6B72E4E5F0EE4AAAA3E5B0EE5B
S315080116206ABADEE5B0EE69AA5FE5F0EE499A23E506
S31508011630F2EE087AB4EE679AF1EE10FA29D0F2EED4
S315080116400A7AF4EE679AF1EE10FA4DD194F9483018
S31508011650207894F801E0A678E5782179627994F8FA
S3150801166006B0E47907EE103A92E6F0EE4BBAF6E5E3
S31508011670E006002004C50020D8C40020B0EE689A10
S31508011680C0E4F0EE6B7A3DE6D6ED007AF8EE678AAD
S3150801169082E494F94930207A94F809E0A67AE57A41
S315080116A0217B627B94F80EB0E47B07EE103A6FE675
S315080116B0D6ED007AF8EE679ADEE4D6ED007AB8EE52
S315080116C0679A9FE4F8EE677A1CE6D6ED007AF8EE9B
S315080116D067BAC4E5D6ED007AB8EE67BA81E5D6ED04
S315080116E0007AF8EE67AA3EE5F3EE057AB4EE67AA44
S315080116F0F1EE10FA1BD0F3EE067AF4EE67AAF1EED4
S3150801170010FA29D194F94D3094F8280094F829E073
S3150801171094F82A6094F82B5094F82C1094F82D20FC
S3150801172094F82EB094F82F4007EE103A30E694F963
S315080117304C3094F8200094F821E094F8226094F84B
S31508011740235094F8241094F8252094F826B094F898
S31508011750274007EE103A1BE6F3EE077AB4EE67BAAE
S31508011760F1EE10FA14D194F9503094F8400094F837
S3150801177041E094F8426094F8435094F8441094F880
S31508011780452094F846B094F8474007EE103AFFE52D
S31508011790F3EE087AF4EE67BAF1EE10FA14D194F979
S315080117A04F3094F8380094F839E094F83A6094F890
S315080117B03B5094F83C1094F83D2094F83EB094F8C8
S315080117C03F4007EE103AE3E594F94E3094F83000BD
S315080117D094F831E094F8326094F8335094F8341060
S315080117E094F8352094F836B094F8374007EE103A55
S315080117F0CEE500BF2DE9F047DDF82890DDF820A0F9
S3150801180004461D460F469046D9E900010022264B9B
S3150801181013F0F2FE0126C9E900018AF800603B6867
S31508011820224ADFF89CA0DDF82490334413603B601C
S315080118302F78384614F01CF81D4AD9F80030136081
S31508011840CAE9000127712360EB7963716B78A3718B
S31508011850AB78E371EB7823722B7963726B79A37298
S31508011860AB79E372134BB8F800201A80032010F005
S315080118702DF9114B22791A70A2795A70E2799A7068
S31508011880227ADA70627A1A71A27A5A71E27A9A71AE
S3150801189061790A4AD9711080216830460822BDE863
S315080118A0F0470DF08FBB00BF0000F03FC8C0002015
S315080118B0D8BB00205CC00020F0060020ACC0002088
S315080118C090BF00200B791BB10023437483740B71FD
S315080118D04B7843B1CB7813B10023C371CB708B78A6
S315080118E043B900234B700023C37143748371837416
S315080118F00B70704700238B70F3E700BF00000000F0
S315080119002DE9F04FA5B011461A462F9B0B93319B33
S315080119101E93329B3B9C1293339B0E931394349BD9
S315080119203D9C20932294359B3E9C21932394369B80
S315080119303F9C1093179438AB409CDDF8B8A0DDF8AE
S31508011940C0B0379DDDF8F0901894C8CB419C1F9420
S31508011950429C1994439C1A94449C1694459C1B9446
S31508011960469C1C94479C1D9400286AD09BF800004D
S3150801197010B901208BF8000093ED007BCDE90C121C
S315080119807D4B002251EC170B8DED147B14F04EFAAA
S31508011990804600285DD09BF8043033B100238AF8CD
S315080119A011308AF812308BF804309BF8013013B9DC
S315080119B001238BF80130129B188813F069FF024640
S315080119C00B46DDE90C01CDE90E2314F02FFA0028A8
S315080119D000F0A7801C9B00268AF80060D3E90089DD
S315080119E00022664B4046494614F048FA002840F062
S315080119F0A2810022624B4046494614F035FA00247A
S31508011A000025002800F0F08229F0004529464046C5
S31508011A1013F0D2FB02460B4640462946CDE9102370
S31508011A2013F0E8FD002204460D46002340464946C8
S31508011A3014F006FA4FF0010600B90646F601F6B2A9
S31508011A407FE19BF80030002B40F08E8025B0BDE881
S31508011A50F08F169B0993139B0793109B03930E9B79
S31508011A600293129B01930B9BCDF820900BF1040274
S31508011A7080330092069705960495DDE90C010AF173
S31508011A801102FEF7DBFA9BF80130002BDED09BF83A
S31508011A9003301BB18AF807808BF803809BF8023064
S31508011AA013B100238BF8023000238AF807308AF82D
S31508011AB006308BF8013025B0BDE8F08FDFF8BC9011
S31508011AC00026002400254FF000080B9F8AF80860BD
S31508011AD040464946D7E91C2313F040FFD7E91A23A4
S31508011AE0804689462046294614F062F800220023DA
S31508011AF004460D4614F0A4F9002840F0A5822046B4
S31508011B00294613F059FB04460D464946404614F04A
S31508011B10FDF929460644204614F0F8F930448AF8B6
S31508011B200500DDE90E23DDE90C0114F089F948BB4E
S31508011B309BF8033023B100238AF807308BF803306A
S31508011B40DDE90E23DDE90C0114F07AF9002840F0ED
S31508011B5083809BF80230002B3FF478AF00238AF884
S31508011B6006308BF8023071E75946504625B0BDE874
S31508011B70F04FFFF7A7BE00BF0000F03F000014407A
S31508011B80000014C01799A04B0022D1E9000114F0F6
S31508011B9061F99BF80330002800F0C98013B90123C5
S31508011BA08BF80330129B188813F062FE0022974BBC
S31508011BB013F022FDDDE90C2313F01CFD002200239E
S31508011BC004460D4614F032F9002800F021821F9BC5
S31508011BD01C78179BE401E4B28AF80F40D3E90001A7
S31508011BE014F094F90001C5B21E9B8AF81050D3E986
S31508011BF0000114F08BF92099229A20442844087090
S31508011C009AF805304B709AF801308B709AF80230C1
S31508011C10CB709AF803300B719AF804304B719AF825
S31508011C2000308B719AF80030CB710B9BDB6F136018
S31508011C30129B188813F01CFEDDE90C2313F0DAFC5D
S31508011C400022002304460D4614F0F0F8002800F09F
S31508011C506E8201238AF8073018996B4B0022D1E965
S31508011C60000114F0F7F800283FF473AF9BF802302F
S31508011C7013B901238BF80230129B188813F0F8FD6B
S31508011C800022624B13F0B8FCDDE90C2313F0B2FC19
S31508011C900022002304460D4614F0C8F8002800F077
S31508011CA0A9811F9B1878189BC001C5B28AF80D50E7
S31508011CB0D3E9000114F02AF90001C4B21E9B8AF87F
S31508011CC00E40D3E9000114F021F92199239A204401
S31508011CD0284408709AF805304B709AF801308B70D1
S31508011CE09AF80230CB709AF803300B719AF80430DF
S31508011CF04B719AF800308B719AF80030CB710B9BB7
S31508011D009B6F1360129B188813F0B2FDDDE90C2353
S31508011D1013F070FC0022002304460D4614F086F8E1
S31508011D20002800F0F48101238AF806308EE6002B9C
S31508011D307FF401AF90E79FED327B8DED107B002498
S31508011D4000250B9F8AF80C60D7E90423DDE9100109
S31508011D5013F004FED7E90223804689462046294620
S31508011D6013F026FF0022002304460D4614F068F8F6
S31508011D70002840F062812046294613F01DFA0446E0
S31508011D800D464946404614F0C1F829460644204600
S31508011D9014F0BCF81B9B30448AF80100D3E90067AC
S31508011DA000221B4B3046394614F068F8A0BB0022C6
S31508011DB0184B3046394614F057F8002400250028F8
S31508011DC000F0068127F000453046294613F0F4F95C
S31508011DD002460B46804689463046294613F00AFCD8
S31508011DE0002204460D4630460023394614F028F8E9
S31508011DF04FF0010600B90646F601F6B213E000BF38
S31508011E00000000000000144000001C400000F03FE4
S31508011E1000002440000024C0DFF860930026002457
S31508011E2000254FF000080B9F8AF80B60404649468B
S31508011E30D7E90A2313F092FDD7E908238046894694
S31508011E402046294613F0B4FE0022002304460D4617
S31508011E5013F0F6FF002840F053812046294613F077
S31508011E60ABF904460D464946404614F04FF8294653
S31508011E700644204614F04AF81A9B30448AF80200B0
S31508011E80D3E900670022B84B3046394613F0F6FF0E
S31508011E90002800F00E81DDE91489002600240025BA
S31508011EA00B9F8AF80A6040464946D7E9102313F082
S31508011EB055FDD7E90E23804689462046294613F063
S31508011EC077FE0022002304460D4613F0B9FF0028C9
S31508011ED040F0E8802046294613F06EF904460D467F
S31508011EE04946404614F012F829460644204614F09D
S31508011EF00DF8199B30448AF80300D3E900670022DC
S31508011F00994B3046394613F0B9FF002800F0A380F3
S31508011F100026002400250B9F8AF80960D7E91623B5
S31508011F20DDE9140113F01AFDD7E914238046894621
S31508011F302046294613F03CFE0022002304460D469E
S31508011F4013F07EFF002871D12046294613F034F993
S31508011F5004460D464946404613F0D8FF294606442D
S31508011F60204613F0D3FF1D9B30448AF80400D3E9B9
S31508011F70006700227D4B3046394613F07FFF002863
S31508011F807FF49CAD00227A4B3046394613F06CFF3C
S31508011F900024002510B327F000453046294613F0E2
S31508011FA00BF902460B46804689463046294613F008
S31508011FB021FB002204460D4630460023394613F01C
S31508011FC03FFF4FF0010600B90646F601F6B27CE579
S31508011FD04FF00008DFF8A491802624E74FF00008A7
S31508011FE0DFF88891802670E59FED5D7B80268DED73
S31508011FF0107BA6E600225F4B20462946FEF784F8A9
S315080120000022002313F012FF00283FF47BAE48E6B6
S315080120100022564B20462946FEF776F80022002371
S3150801202013F004FF00283FF403AED0E52046294605
S3150801203013F03AF804460D468CE72046294613F074
S3150801204033F804460D469CE62046294613F02CF83B
S3150801205004460D4659E50022474B3046394613F0EA
S3150801206003FF00240025002875D027F000453046D7
S31508012070294613F0A1F802460B4630462946CDE912
S31508012080142313F0B7FA002204460D4630460023FE
S31508012090394613F0D5FE4FF0010600B90646F6019A
S315080120A0F6B238E72046294612F0FEFF04460D46E9
S315080120B016E70022304B3046394613F0D5FE002488
S315080120C00025002843D027F000453046294613F05D
S315080120D073F802460B46804689463046294613F070
S315080120E089FA002204460D4630460023394613F084
S315080120F0A7FE4FF0010600B90646F601F6B2CFE68D
S315080121002046294612F0D0FF04460D46ABE60022CA
S31508012110184B20462946FDF7F7FF0023002213F046
S3150801212085FE4FF0010300B90346DBB2FCE5002248
S315080121300E4B20462946FDF7E7FF0023002213F040
S3150801214075FE4FF0010300B90346DBB282E5DDE90E
S3150801215014898026A4E68026DDE600BFAFF3008059
S3150801216000000000000014400000F03F0000144089
S31508012170000014C0000020400000F0BF0000244009
S315080121802DE9F843089D0A9C002800F0E58021788E
S3150801219009B9012121701F460C9B1888164613F0B0
S315080121A077FB8046894602460B463046394613F088
S315080121B03DFE20B100232B700F9B1B786B704246A6
S315080121C04B463046394613F03BFE002800F0E580C1
S315080121D01299964B0022D1E9000113F03BFEA37830
S315080121E0002800F0C9800BB90123A3700C9B18883D
S315080121F013F03EFB00228E4B13F0FEF932463B46A6
S3150801220013F0F8F9002200238046894613F00EFEE2
S31508012210002800F0FC80149B93F80080129B4FEA7B
S31508012220C8185FFA88F885F80680D3E9000113F023
S315080122306DFE00015FFA80F90B9B85F80790D3E9DB
S31508012240000113F063FE0D9B0D9A40444844187033
S315080122506B7853702B7893702B78D3702B78137116
S315080122602B7853712B7893712B78D371099B109A1C
S315080122705B6813600C9B188813F0FAFA32463B46E2
S3150801228013F0B8F9002200238046894613F0CEFDE3
S31508012290002800F0AB800123EB701399634B0022F1
S315080122A0D1E9000113F0D6FD002872D063780BB985
S315080122B0012363700C9B188813F0DAFA00225C4B31
S315080122C013F09AF932463B4613F094F9002200239B
S315080122D08046894613F0AAFD00287AD0149B1878FF
S315080122E0139BC0015FFA80F885F80480D3E90001E1
S315080122F013F00CFE0001C4B20B9B6C71D3E900010B
S3150801230013F004FE0E9B0E9A2044404418706B7815
S3150801231053702B7893702B78D3702B7813712B7895
S3150801232053712B7893712B78D371099B119A1B687A
S3150801233013600C9B188813F09BFA32463B4613F040
S3150801234059F90022002306460F4613F06FFD80B3A4
S315080123500123AB70BDE8F8832378E3B1A3780BB109
S31508012360E870A07063780BB1002363700023EB70EB
S31508012370AB702370BDE8F883002B8ED00023EB7079
S31508012380A37042464B463046394613F059FD00289C
S3150801239083D1637843B9BDE8F883A378002BF0D0DD
S315080123A00023EB70A370ECE70023AB706370BDE804
S315080123B0F88300221F4B30463946FDF7A5FE002358
S315080123C0002213F033FD4FF0010300B90346DBB2D7
S315080123D0BFE70022174B40464946FDF795FE002206
S315080123E0002313F023FD0028A3D077E70022124B20
S315080123F040464946FDF788FE0023002213F016FDE4
S315080124004FF0010300B90346DBB2EB7045E7002242
S31508012410094B40464946FDF777FE0022002313F093
S3150801242005FD00283FF426AFF5E600BF00001C4075
S315080124300000F03F000020400000144000000000AA
S315080124402DE9F04FA9B03399119135991D91389914
S315080124501491399921913A9923913B9922913C9961
S3150801246024913D9915913E991C913F991E91409948
S315080124701691419918914399329C349DDDF8D8A05B
S31508012480DDF8DCB0DDF808911A9100284DD02978DD
S3150801249009B901212970CDE91223149BB3F80080EB
S315080124A0404613F0F5F9DDE9122306460F4613F007
S315080124B0E5FC00284BD10023209300231F933046C7
S315080124C03946DDE9122313F0B1FC002858D1E37827
S315080124D025932378269363782793209B94F804B051
S315080124E06779A079A278002B40F0C181AB7883B1D6
S315080124F0209AA273AA70149B94F804B0B3F80080CA
S31508012500E37825932378269367796378A079A27867
S3150801251027931F9B002B40F01A826B7813B11F9AE1
S31508012520E2726A7029B0BDE8F08F2B78002BF9D0DA
S31508012530AB780BB1A073A8706B780BB100236B70E5
S315080125400023A373E3722B7029B0BDE8F08F1599A8
S315080125500A4B0022D1E9000113F07CFC011C18BFCB
S31508012560012120911C99054B0022D1E9000113F0A4
S3150801257071FC0028A1D001231F93A0E700001C408D
S315080125809BF800302370269300269AF80030637072
S31508012590A670D9E9008927930022C74B40464946C8
S315080125A013F06CFC002800F08B81DFF80CB3B04601
S315080125B0002700264FF0000A119B84F80A80D3E908
S315080125C004235046594613F0C9F9119B8246D3E9AB
S315080125D0022330468B46394613F0EAFA00220023D5
S315080125E006460F4613F02CFC002840F0E9813046D8
S315080125F0394612F0E1FD06460F465946504613F094
S3150801260085FC39468044304613F080FC4044C3B209
S31508012610E37025931A9BD3E900670022A64B30463F
S31508012620394613F02BFC002840F07F810022A34B8A
S315080126303046394613F018FC002800F0E2810022E2
S3150801264000233046394613F0FBFB4FF0010A0028F8
S3150801265000F0E68127F000493046494612F0ACFD04
S31508012660B04602460B4606460F464046494612F014
S31508012670C1FFCDE91A014FEACA1A5FFA8AFA30464A
S31508012680119E84F809A0D6E90A23394613F066F99A
S31508012690D6E9082380468946DDE91A0113F088FA46
S315080126A00022002306460F4613F0CAFB002840F015
S315080126B072813046394612F07FFD06460F46494675
S315080126C0404613F023FC39468244304613F01EFC7B
S315080126D050445FFA80FB189B84F804B0D3E900677D
S315080126E00022754B3046394613F0C8FB002840F0E6
S315080126F025810022714B3046394613F0B5FB002877
S3150801270000F06581002200233046394613F098FB14
S315080127104FF0010A002800F07F8127F00049304672
S31508012720494612F049FDB04602460B4606460F4693
S315080127304046494612F05EFFCDE918014FEACA1A2A
S315080127405FFA8AFA3046119E84F808A0D6E9102362
S31508012750394613F003F9D6E90E2380468946DDE9A1
S31508012760180113F025FA0022002306460F4613F036
S3150801277067FB002840F01D813046394612F01CFDE2
S3150801278006460F464946404613F0C0FB3946824481
S31508012790304613F0BBFB5044C7B2169B6771D3E9A9
S315080127A000890022444B4046494613F067FB00283E
S315080127B040F0B1800022414B4046494613F054FB94
S315080127C0002800F00D81002200234046494613F0F7
S315080127D037FB4FF00106002800F01C8129F0004361
S315080127E0CDF858801793DDE9160112F0E5FC02468B
S315080127F00B4680468946DDE9160112F0FBFECDE956
S315080128001801F601F6B2119BE671D3E91623404683
S31508012810494613F0A3F8119BCDE91601D3E9142310
S31508012820DDE9180113F0C4F9002200238046894620
S3150801283013F006FB002840F0B5804046494612F0E1
S31508012840BBFC80468946DDE9160113F05FFB494664
S315080128500644404613F05AFB3044149BC0B2A0719B
S31508012860B3F80080209B0022002B3FF43FAE1E9B4D
S315080128700E93159B0D93119B069203F16401229BFE
S315080128800C93219B0B931D9B0A93279B0593269BD0
S315080128900493259B0390AE1C04F10E0E0193029737
S315080128A0CDF800B04046DDE9122309960891CDF826
S315080128B01CE0FDF7C1FC1EE600001440000014C030
S315080128C000225B4B4046494613F0CEFA0026002704
S315080128D0002800F08F8029F000474046394612F05B
S315080128E06BFC02460B4682468B464046394612F039
S315080128F081FE002206460F4640460023494613F04C
S315080129009FFA4FF00108002800F088804FEAC8189E
S315080129105FFA88F850E69FED447B4FF000088DED8D
S31508012920187BDFF8109100266DE79FED3F7B0026A7
S315080129308DED1A7B3F4F4FF0000AA0E69FED3A7BDB
S3150801294000268DED187B3B4F4FF0000AFAE6119BE6
S31508012950389260333A931E9B40931C9B3F93249B6A
S315080129603E93239B3D931D9B3C93279B3793269B25
S315080129703693259B3393DDE9122301350B343590C4
S3150801298040463B9539943497CDF8C8B029B0BDE88F
S31508012990F04FFDF7E9BC3046394612F085FB06468D
S315080129A00F468CE64046494612F07EFB804689462C
S315080129B049E73046394612F077FB06460F46E1E607
S315080129C03046394612F070FB06460F4615E69FED6E
S315080129D0167B00268DED187B164F4FF0800AB1E65F
S315080129E09FED117B4FF000088DED187BDFF84490C1
S315080129F0802608E74FF0000ADFF838B04FF0800864
S31508012A00DAE59FED097B00268DED1A7B094F4FF01C
S31508012A10800A34E60646E1E682467EE6804675E7A2
S31508012A20824617E6AFF300800000000000000000B0
S31508012A30000014C00000144038B521F000430D46CB
S31508012A4000221946154B044613F0FAF9C8B10022BB
S31508012A50134B2046294613F007FAA8B90022114B51
S31508012A602046294613F00AFA48B9204629460C4B4E
S31508012A70002212F0BFFDBDE8384012F015BB002454
S31508012A8000252046294638BD20462946044B002202
S31508012A9012F0B2FDBDE8384012F08EBB000030439B
S31508012AA00000E03F0000E0BF38B5002104460220DF
S31508012AB00EF066F90F4B00220125C4E96223C4E929
S31508012AC0222384F81252FDF74DFDFEF7EFF9002196
S31508012AD008460EF055F9284600210EF051F9002155
S31508012AE004200EF04DF900210320BDE838400EF010
S31508012AF047B900BF0000F03F2DE9F04F2DED048BDB
S31508012B009346ADF5057D92F867221A9182461D9383
S31508012B1012B100238BF867329BF81232002B00F0B2
S31508012B2098819BF8643213B901238BF864329A9B16
S31508012B301B78002B00F06E871D99B44B0022D1E952
S31508012B40000113F073F9002802F08C809BF82432F7
S31508012B50002B02F0878001249BF86532002B02F0D6
S31508012B608780002C45F0DC879BF8243293B1939932
S31508012B70A64B1A98929C0022C1E90023B0F80814C2
S31508012B8021809BF8241290F80B048BF8080209B1EE
S31508012B90CBE906239A9B9D4900241C709B9B002622
S31508012BA0002700201C70CBE97467CAE90001234697
S31508012BB0DBE974458BF812322046954B29460022EB
S31508012BC013F052F94FF0010300B903468BF824328A
S31508012BD000228F4B2046294613F046F9002802F0B9
S31508012BE035848C4B0022CBE974239BF8083207EE17
S31508012BF0903AF8EEE77A929BF5EE407AF1EE10FA02
S31508012C0018880CBF844D854D12F042FE00240246F9
S31508012C100B462046294613F009F9A8B1929A0023D2
S31508012C2013809BF80842204612F032FE1A9BD3E91C
S31508012C30FC2313F005F9002800F024870134784BAA
S31508012C40E4B21C708BF808429BF812321E93002BD3
S31508012C5040F011819BF8253213B901238BF82532EF
S31508012C609BF8083208EE903AF8EEE88A9BF850325B
S31508012C70F5EE408AF1EE10FA40F0888513B9012382
S31508012C808BF85032929B9FED679AB3F8009007EE46
S31508012C90909AB8EEE78AB4EEC98AF1EE10FAC0F254
S31508012CA03587484612F0F4FD1A9BD3E9C62313F07B
S31508012CB0C7F8002800F02A87B4EE498AF1EE10FA1F
S31508012CC040F024871D9BD3E9004500224F4B20463F
S31508012CD0294613F0ABF8002847F0CB829BF81C3243
S31508012CE0002B07F0008380462046294600224FF034
S31508012CF0804313F09BF80027002809F02B849BF8E2
S31508012D001B32002B47F0CE82404BDBE91A01002229
S31508012D1012F072FCCBE91A01012320939BF8146285
S31508012D20002E47F0DB82939BD3E9004500223E4BF8
S31508012D302046294613F07AF8002808F060831D9981
S31508012D40394B0022D1E9000113F070F8002847F049
S31508012D50C6822E4BDBE91A01002212F04DFC012333
S31508012D60CBE91A012293939BD3E9004500224FF040
S31508012D7080432046294613F059F8002808F01181A6
S31508012D801D9900224FF08043D1E9000113F04EF856
S31508012D90002807F0C88200263346B8F1000F47F02D
S31508012DA04D85002F48F0AD80209A002A48F0A98069
S31508012DB0002B48F0A680002E48F0A3809DF88830A5
S31508012DC01A4A8BF81332DBE96E01C2E90001CBE935
S31508012DD06E01002F07F02B850C4B0022DBE97001F1
S31508012DE012F00AFC124BC3E90001209BCBE97001E2
S31508012DF0002B07F01585054B0022DBE9720112F05D
S31508012E00FBFB0C4BC3E9000116E000BF0000F03FD5
S31508012E1000407F400000F0BF00806A400000724019
S31508012E20DCBF0020000044430000084080BF0020AA
S31508012E3058C1002020C00020A09A0123CBE97201C5
S31508012E401370929B1E8807EE906AB8EEE79A00F017
S31508012E5060BE9BF86422002A3FF4C7AE9BF8652240
S31508012E602AB100200021CAE900018BF86532002346
S31508012E708BF86432B9E69BF82532002B00F0E38221
S31508012E809BF85032002B00F004819BF85D32C3B1E8
S31508012E909BF85E3293B19BF8603223B100238AF81E
S31508012EA0DB308BF860329BF85F3223B100238AF856
S31508012EB0DA308BF85F3200238BF85E3200238BF809
S31508012EC05D329BF85932C3B19BF85A3293B19BF8DC
S31508012ED05C3223B100238AF8D9308BF85C329BF82F
S31508012EE05B3223B100238AF8D8308BF85B32002392
S31508012EF08BF85A3200238BF859329BF85532C3B1F5
S31508012F009BF8563293B19BF8583223B100238AF8BD
S31508012F10D7308BF858329BF8573223B100238AF8F9
S31508012F20D6308BF8573200238BF8563200238BF8AC
S31508012F3055329BF85132C3B19BF8523293B19BF883
S31508012F40543223B100238AF8D5308BF854329BF8D2
S31508012F50533223B100238AF8D4308BF85332002335
S31508012F608BF8523200238BF851329BF88832002BAA
S31508012F7047F068809BF8633243B39BF8873233B1D5
S31508012F8000238AF8A2318AF8A3318BF887329BF895
S31508012F90843283B19BF8863223B100238AF89D31A6
S31508012FA08BF886329BF8853213B100238BF885326C
S31508012FB000238BF8843200238AF89D318AF8A231DE
S31508012FC08AF89C318AF8A3318BF863329BF862320E
S31508012FD043B39BF8833233B100238AF898318AF8D0
S31508012FE099318BF883329BF8803283B19BF8823210
S31508012FF023B100238AF893318BF882329BF8813208
S3150801300013B100238BF8813200238BF88032002319
S315080130108AF893318AF898318AF892318AF899317F
S315080130208BF862329BF8613243B39BF87F3233B136
S3150801303000238AF88E318AF88F318BF87F329BF814
S315080130407C3283B19BF87E3223B100238AF8893119
S315080130508BF87E329BF87D3213B100238BF87D32D3
S3150801306000238BF87C3200238AF889318AF88E315D
S315080130708AF888318AF88F318BF8613200238AF809
S31508013080D0308AF8D3308AF8D1308AF8D2308BF822
S3150801309050329BF82632002B00F0CA819BF8403249
S315080130A0C3B19BF8413293B19BF8433223B1002354
S315080130B08AF8CB308BF843329BF8423223B100238E
S315080130C08AF8CA308BF8423200238BF84132002342
S315080130D08BF840329BF83C32C3B19BF83D3293B131
S315080130E09BF83F3223B100238AF8C9308BF83F3267
S315080130F09BF83E3223B100238AF8C8308BF83E325A
S3150801310000238BF83D3200238BF83C329BF838328A
S31508013110C3B19BF8393293B19BF83B3223B10023F3
S315080131208AF8C7308BF83B329BF83A3223B1002331
S315080131308AF8C6308BF83A3200238BF839320023E5
S315080131408BF838329BF83432C3B19BF8353293B1D8
S315080131509BF8373223B100238AF8C5308BF837320A
S315080131609BF8363223B100238AF8C4308BF83632FD
S3150801317000238BF8353200238BF834329BF8303232
S31508013180C3B19BF8313293B19BF8333223B1002393
S315080131908AF8C3308BF833329BF8323223B10023D5
S315080131A08AF8C2308BF8323200238BF83132002389
S315080131B08BF830329BF82C32C3B19BF82D3293B180
S315080131C09BF82F3223B100238AF8C1308BF82F32AE
S315080131D09BF82E3223B100238AF8C0308BF82E32A1
S315080131E000238BF82D3200238BF82C329BF82732DB
S315080131F093B39BF8283263B39BF82B3253B1BB4C7C
S31508013200BB48BC49BC4A002323708BF82B32037098
S315080132100B7013709BF82A3253B1B84CB848B949A8
S31508013220B94A002323708BF82A3203700B70137086
S315080132309BF8293253B1B54CB548B649B64A00236D
S3150801324023708BF8293203700B70137000238BF8E7
S31508013250283200238BF827329BF84F3243B39BF869
S315080132607B3233B100238AF874318AF875318BF8C9
S315080132707B329BF8783283B19BF87A3223B10023EB
S315080132808AF871318BF87A329BF8793213B10023B7
S315080132908BF8793200238BF8783200238AF871315A
S315080132A08AF874318AF86E318AF875318BF84F329B
S315080132B09BF84E3243B39BF8773233B100238AF831
S315080132C061318AF862318BF877329BF8743283B1AF
S315080132D09BF8763223B100238AF85E318BF8763271
S315080132E09BF8753213B100238BF8753200238BF8DE
S315080132F0743200238AF85E318AF861318AF85B31C3
S315080133008AF862318BF84E329BF84C3243B39BF8FC
S31508013310733233B100238AF84E318AF84F318BF86C
S3150801332073329BF84D3283B19BF8723223B1002375
S315080133308AF84B318BF872329BF8713213B100233C
S315080133408BF8713200238BF84D3200238AF84B3102
S315080133508AF84E318AF848318AF84F318BF84C325F
S315080133609BF8483243B39BF8703233B100238AF88D
S3150801337042318AF843318BF870329BF8493283B16E
S315080133809BF84B3223B100238AF8CF308BF84B32A6
S315080133909BF84A3213B100238BF84A3200238BF883
S315080133A0493200238AF8CF308AF842318AF8CE307A
S315080133B08AF843318BF848329BF8443243B39BF879
S315080133C06F3233B100238AF838318AF839318BF8EC
S315080133D06F329BF8453283B19BF8473223B10023FC
S315080133E08AF8CD308BF847329BF8463213B1002361
S315080133F08BF8463200238BF8453200238AF8CD3004
S315080134008AF838318AF8CC308AF839318BF844325F
S315080134109BF86A32002B46F0258600238AF8BC30D1
S315080134208AF8BF308AF8BE308AF8BD308BF8263262
S3150801343000238AF8B8308AF8B9308AF8BA308AF897
S31508013440BB308BF825329AF8BA30002B40F06B81E5
S315080134509BF81242003418BF01249BF80432DE0699
S3150801346000F14D8143F010038BF804329AF8B83015
S31508013470002B40F049819BF804321D0700F1558164
S315080134809BF8043243F008038BF80432002C40F011
S315080134904F81DBB29BF8122222B99AF8BB20002A87
S315080134A000F0F782590745F10085A09B04939F9B7D
S315080134B003939D9B02939B9B0193979B0093959BDB
S315080134C0929A0BF525710AF5E870FDF717FD9BF839
S315080134D004329C075CBF43F002038BF804329AF866
S315080134E0B930002B41F0C08018E000BF74C100203C
S315080134F02ABF002028BB002058C00020F1C00020A8
S3150801350013C000202CBB00202EBB002098C400202D
S31508013510FABA002027BF002011C00020A09B1B7803
S31508013520002B00F01A819BF8693213B901238BF835
S3150801353069329BF81632002B40F0B58201238BF8CD
S315080135401632A09B002018709BF816128AF8DF1015
S31508013550002941F0498108460DF044FC9BF8683280
S3150801356013B100238BF868329BF8663213B901232D
S315080135708BF866329BF81832002B00F0F680002390
S315080135808BF8183219468AF8DC3004200DF02AFC2B
S315080135909BF81932002B00F0A4809BF8083207EE3D
S315080135A0903AF8EEE77AF5EE407AF1EE10FA40F045
S315080135B0578211230DF1F00A88226F49CBF8FC31A5
S315080135C0CBF80032504612F0C7FC88226B4960A836
S315080135D012F0C2FC929B1B881A93DAE90045184639
S315080135E012F056F922462B468046894612F046FCC9
S315080135F0002806F0F384624F00260022604B30460D
S31508013600394611F0F9FF0F46064612F057FC0AEB48
S31508013610C00050E902454946404622462B4612F06B
S315080136202DFC0028E9D10022554B3046394611F0C8
S31508013630E1FF12F043FC01384FEAC00884AB43446A
S3150801364053E924010022002312F0F0FB81460028E9
S3150801365041F01A801A9812F00BF902460B460646F3
S315080136600F462046294611F0C5FFFFF7E5F9002266
S31508013670444B04460D4612F0E3FB002841F0FD8257
S315080136803BA3D3E900234FF6FE79DBE91045204633
S31508013690294612F0E9FB002801F09F86484612F0F8
S315080136A0E7F88046894622462B464046494611F0A8
S315080136B0A1FF0023002204460D4612F0DFFB4FF05E
S315080136C0010300B903468BF8193232463B46404698
S315080136D0494611F091FF12F019FC929B1880CBE92B
S315080136E010459BF80432D80703D443F001038BF83D
S315080136F004320DF5057DBDEC048BBDE8F08F9AF813
S31508013700B820002A3FF4B9AEA39B0293A19B01936B
S31508013710A09B0093929A989B0BF52D710AF51D7043
S31508013720FCF7BAFEA7E6012497E6002C3FF4B2AEF1
S31508013730A09B04939E9B03939C9B02939A9B019344
S31508013740969B0093929A949B0BF529710AF2212074
S31508013750FCF730FF9BF804329CE69BF86922002AA5
S315080137603FF4FCAE8BF86932F8E6012308E700BF9F
S3150801377000000000C0FFEF4000C0000818C10008A3
S315080137800000F03F0000F04000001043002B41F01C
S31508013790B482F0EE687AB7EE007AF4EE477AF1EE83
S315080137A010FA9BF8263241F0008413B901238BF8ED
S315080137B02632929B1FED0C8AB3F8008007EE908A99
S315080137C0B8EEE79A4446B4EEC89AF1EE10FAC1F299
S315080137D05F86404612F05CF81A9BD3E9002312F083
S315080137E02FFB002801F05486B4EE489AF1EE10FA40
S315080137F045F03C85BBF81E32002B45F0B183BEA3CC
S31508013800D3E90023DBE9380112F0A8F8BAA3D3E912
S31508013810002304460D46DBE93C0112F09FF80246F7
S315080138200B462046294611F0E7FEB3A3D3E9002348
S3150801383004460D46DBE93A0112F090F802460B46BA
S315080138402046294611F0D8FEABA3D3E90023044646
S315080138500D46DBE93E0112F081F802460B46204689
S31508013860294611F0C9FE0022934B944E12F076F8C0
S3150801387004460D46C6E9004502460B46DBE91C012E
S3150801388011F0B8FE9BED6C7B53EC172B8DED207B6D
S3150801389006460F4611F0B0FE9BED227B0022884BAF
S315080138A08DED227B12F05AF8DDE9222312F056F843
S315080138B0DBE9122311F0A0FEDFF844E2814B04464E
S315080138C00D460022CEE9004512F0D8FA002807F085
S315080138D07F849FED777B8BED127BA0997A4B012232
S315080138E00A70D3E90023CBE96C67DBE9120112F010
S315080138F035F8764B04460D46D3E90023304639465A
S3150801390012F02CF802460B462046294611F074FEA1
S31508013910DDE9202304460D463046394611F06AFE94
S31508013920DDE9222312F044F9694B6A4FD3E90023F2
S3150801393012F014F802460B462046294611F05CFEA1
S31508013940DFF8C0E104460D46DBE92623CEE900454A
S3150801395011F052FE002632463B46CDE9200112F00F
S315080139608DFA002807F022845B4B3246C3E90067CB
S315080139703B46CBE940232046DBE92823294611F0BB
S315080139803BFE544F002632463B46CDE9200112F054
S3150801399075FA002807F07883504B3246C3E9006769
S315080139A03B46CBE942232046DBE92E23294611F083
S315080139B023FE484F002632463B46CDE9200112F048
S315080139C05DFA002807F04E83454B3246C3E9006786
S315080139D03B46CBE944232046DBE93023294611F04F
S315080139E00BFE3C4F002632463B4604460D4612F076
S315080139F045FA002807F021853A4BC3E90067929BEF
S31508013A001C8807EE904ACBE946672546B8EEE78A51
S31508013A1001F041BD9B9B1D991D78334B2C1C4FF022
S31508013A200002D1E9000118BF012412F0FFF90028AC
S31508013A3041F03981002D41F015819BF8653200224C
S31508013A40002B41F0A1820023DAE900014FF00104BD
S31508013A5012F0ECF9002801F0A582E3B2FFF7A8B845
S31508013A6012230DF1F00ACBF8FC31CBF8003250469F
S31508013A7090221E4912F070FA90221D4960A812F090
S31508013A806BFAA7E51A9A1B4B92F80C441C70FFF7C0
S31508013A90D9B85A073FF51DAD9BF8043243F0040324
S31508013AA08BF8043215E500238BF8163249E500BF79
S31508013AB000000000000024400000D03F08C100209B
