S02A00002E2E2F48414E636F6465725F453430375F5454415F436F6E74726F6C6C65725F76332E7372656379
S315080040003CD60020F55B0208000000000000000016
S315080040100000000000000000000000000000000092
S31508004020000000000000000000000000E52902086A
S315080040300000000000000000812A0208D12A0208B8
S315080040400000000000000000000000000000000062
S315080040500000000000000000000000000000000052
S3150800406000000000C1370208000000000000000040
S315080040700000000000000000000000000000000032
S315080040800000000000000000000000000D1E0208ED
S31508004090C51D0208E91D0208311E020800000000BD
S315080040A0AD370208993702088537020875370208BE
S315080040B0613702084D370208393702080000000048
S315080040C000000000000000000000000000000000E2
S315080040D000000000C5410208DD410208F54102085A
S315080040E00000000000000000BD42020800000000B9
S315080040F025370208113702080137020800000000B8
S315080041000000000025420208000000000000000030
S315080041100000000000000000000000000000000091
S31508004120000000000000000000000000294202080C
S3150800413000000000F1370208000000009D1E02087A
S31508004140551E0208791E0208C11E0208ED42020821
S315080041500000000000000000000000000D420208F8
S315080041600000000000000000000000000000000041
S315080041700000000000000000000000000000000031
S311080041800000000000000000EE11AA5527
S3150800C000000000000000000000000000000044409E
S3150800C0100000000000004640000000000000484004
S3150800C0200000000000004A400000000000005740E1
S3150800C03000000000000058400000000000005940C1
S3150800C040000000000080614000000000000062401F
S3150800C0500000000000806240000000000080674089
S3150800C06000000000000068400000000000806840F2
S3150800C07000000000000069400000000000806940E0
S3150800C0800000000000006A400000000000000000F8
S3150800C0900000000000004440000000000000464088
S3150800C0A00000000000004840000000000000564064
S3150800C0B000000000000057400000000000806040BB
S3150800C0C000000000000061400000000000806140A0
S3150800C0D0000000000000624000000000008062408E
S3150800C0E00000000000806740000000000000684073
S3150800C0F00000000000006D400000000000806D4058
S3150800C1000000000000006E40000000000080714042
S3150800C1100000000000C071400000000000000000A0
S3150800C120000000000000F03F000000000000F03FA3
S3150800C130000000000000F03F0000000000000000C2
S3150800C140000000000000F03F000000000000F03F83
S3150800C1500000000000000000000000000000F03FA2
S3150800C160000000000000F03F000000000000000092
S3150800C170000000000000F03F000000000000F03F53
S3150800C180000000000000F03F000000000000F03F43
S3150800C190000000000000F03F000000000000F03F33
S3150800C1A00000000000000000000000000000F03F52
S3150800C1B0000000000000F03F000000000000000042
S3150800C1C0000000000000F03F000000000000000032
S3150800C1D0000000000000F03F000000000000F03FF3
S3150800C1E0000000000000F03F000000000000F03FE3
S3150800C1F00000000000000000000000000000F03F02
S3150800C2000000000000000000000000000000F03FF1
S3150800C210000000000000F03F0000000000000000E1
S3150800C220000000000000F03F000000000000F03FA2
S3150800C23000000101010001000101000000010001E8
S3150800C24000000000000072400000000000C07140BD
S3150800C25000000000000061400000000000004640A9
S3150800C26000000000000048400000000000004440B4
S3150800C270000000000080714000000000008060405F
S3150800C2800000000000A07140000000A09999A93F95
S3150800C2900000000000003040000000000000B03F31
S3150800C2A00000000000003040000000000000B03F21
S3150800C2B00000000000003040000000000000B03F11
S3150800C2C00000000000003040000000000000B03F01
S3150800C2D00000000000E07140000000000000B03FD0
S3150800C2E00000000000003040000000000000B03FE1
S3150800C2F00000000000003040000000000000B03FD1
S3150800C3000000000000003040000000000000B03FC0
S3150800C31000000000000030400000000000806A4075
S3150800C3200000000000006A400000000000004640CF
S3150800C33000000000000048400000000000005940CE
S3150800C3400000000000004A400000000000005840BD
S3150800C35000000000000044400000000000C06940E2
S3150800C360000000000000614000000000000072406C
S3150800C3700000000000005740000000000000464092
S3150800C3800000000000004840000000000000444093
S3150800C39000000000000056400000000000C0604099
S3150800C3A00000000000004A400000000000006A404B
S3150800C3B00000000000004640000000000000484061
S3150800C3C00000000000004440000000000000494052
S3150800C3D0000000000080624000000000008061400C
S3150800C3E000000000000062400000000000007240EB
S3150800C3F000000000000068400000000000806D405A
S3150800C4000000000000C0714000000000000061400C
S3150800C41000000000000057400000000000004640F1
S3150800C4200000000000006E400000000000004840C8
S3150800C4300000000000004440000000000080674043
S3150800C4400000000000006D40000000000080714000
S3150800C4500000000000005640000000000080604018
S3150800C46000000000000047400000000000A06D40EA
S3150800C4700000000000E06D40000000000000F03FF2
S3150800C480000000000000F03F000000000000F03F40
S3150800C490000000000000F03F000000000000F03F30
S3150800C4A0000000000000F03F000000000000F03F20
S3150800C4B0000000000000F03F000000000000F03F10
S3150800C4C0000000000000F03F000000000000F03F00
S3150800C4D0000000000000F03F000000000000F03FF0
S3150800C4E0000000000000F03F000000000000F03FE0
S3150800C4F0000000000000F03F000000000000F03FD0
S3150800C500000000000000F03F000000000000F03FBF
S3150800C510000000000000F03F000000000000F03FAF
S3150800C520000000000000F03F000000000000F03F9F
S3150800C530000000000000F03F00000000000030404E
S3150800C540000000000000B03F00000000000030407E
S3150800C550000000000000B03F00000000000030406E
S3150800C560000000000000B03F00000000000030405E
S3150800C570000000000000B03F00000000000030404E
S3150800C580000000000000B03F00000000000030403E
S3150800C590000000000000B03F00000000000030402E
S3150800C5A0000000000000B03F00000000000030401E
S3150800C5B0000000000000B03F000000000080564068
S3150800C5C00000000000005040000000000000903FFE
S3150800C5D00000000000005040000000000000903FEE
S3150800C5E00000000000002040000000000000C03FDE
S3150800C5F00000000000C0604000000000000030405D
S3150800C600000000000000B03F0000000000003040BD
S3150800C610000000000000B03F0000000000003040AD
S3150800C620000000000000B03F00000000000030409D
S3150800C630000000000000B03F000000A09999A93F43
S3150800C6400000000000E07140000000000000B03F5C
S3150800C6500000000000003040000000000000B03F6D
S3150800C6600000000000003040000000000000B03F5D
S3150800C6700000000000003040000000000000B03F4D
S3150800C6800000000000003040000000000000694083
S3150800C69000000000008069400000000000806A4039
S3150800C6A00000000000006A4000000000000046404C
S3150800C6B000000000000048400000000000004A405A
S3150800C6C0000000000000594000000000000058402B
S3150800C6D00000000000806240000000000000624088
S3150800C6E0000000000080684000000000000068406C
S3150800C6F00000000000004440000000000080674081
S3150800C7000000000000005740000000000080614063
S3150800C7100000000000004740000000000000304014
S3150800C720000000000000B03F00000000000030409C
S3150800C730000000000000B03F00000000000020409C
S3150800C740000000000000C03F00000000000050404C
S3150800C750000000000000903F00000000000050406C
S3150800C760000000000000903F000000000000F03FBD
S3150800C77000000000000000000000000000000000AB
S3150800C780000000000000000000000000000000009B
S3150800C79000000000000010C0000000000000B03FCC
S3150800C7A0000000000000304000000000000008C043
S3150800C7B0000000000000C03F00000000000020400C
S3150800C7C000000000000018C0000000000000903FB4
S3150800C7D0000000000000504000000000000018C0E3
S3150800C7E0000000000000903F0000000000005040DC
S3150800C7F000000000000010C0000000000000B03F6C
S3150800C80000000000000030400100000001000000A8
S3150800C8100100000001000000000000000000000008
S3150800C82016000000160000001600000016000000A2
S3150800C830000000001900000019000000190000009F
S3150800C84019000000000000000000010000000000C0
S3150800C85000000000000010C0000000000000B03F0B
S3150800C860000000000000304000000000000008C082
S3150800C870000000000000C03F00000000000020404B
S3150800C88000000000000018C0000000000000903FF3
S3150800C890000000000000504000000000000018C022
S3150800C8A0000000000000903F00000000000050401B
S3150800C8B000000000000010C0000000000000B03FAB
S3150800C8C000000000000030400100000001000000E8
S3150800C8D00100000001000000000000000000000048
S3150800C8E0000001000000000000000000000010C069
S3150800C8F0000000000000B03F0000000000003040CB
S3150800C90000000000000008C0000000000000C03F52
S3150800C910000000000000204000000000000018C0D1
S3150800C920000000000000903F00000000000050409A
S3150800C93000000000000018C0000000000000903F42
S3150800C940000000000000504000000000000010C079
S3150800C950000000000000B03F00000000000030406A
S3150800C96001000000010000000100000001000000B5
S3150800C970000000000000000000000000000018C0D1
S3150800C980000000000000903F00000000000050403A
S3150800C99000000000000008C0000000000000C03FC2
S3150800C9A0000000000000204000000000000018C041
S3150800C9B0000000000000903F00000000000050400A
S3150800C9C01500000015000000150000001500000005
S3150800C9D00000000000000000000001000000000048
S3150800C9E000000000000010C0000000000000B03F7A
S3150800C9F0000000000000304000000000000008C0F1
S3150800CA00000000000000C03F0000000000002040B9
S3150800CA1000000000000018C0000000000000903F61
S3150800CA20000000000000504000000000000018C090
S3150800CA30000000000000903F000000000000504089
S3150800CA4000000000000010C0000000000000B03F19
S3150800CA500000000000003040010000000100000056
S3150800CA6001000000010000000000000000000000B6
S3150800CA7000000000000010C0000000000000B03FE9
S3150800CA80000000000000304000000000000008C060
S3150800CA90000000000000C03F000000000000204029
S3150800CAA000000000000018C0000000000000903FD1
S3150800CAB0000000000000504000000000000018C000
S3150800CAC0000000000000903F0000000000005040F9
S3150800CAD000000000000010C0000000000000B03F89
S3150800CAE000000000000030400100000001000000C6
S3150800CAF00100000001000000000000000000000026
S3150800CB0000000000000018C0000000000000903F70
S3150800CB10000000000000504000000000000008C0AF
S3150800CB20000000000000C03F000000000000204098
S3150800CB3000000000000018C0000000000000903F40
S3150800CB40000000000000504015000000150000001D
S3150800CB50150000001500000000000000000000009D
S3150800CB60160000001600000016000000160000005F
S3150800CB70000000001900000019000000190000005C
S3150800CB80190000000000000000000000000010C0AE
S3150800CB90000000000000B03F000000000000304028
S3150800CBA000000000000010C0000000000000B03FB8
S3150800CBB0000000000000304000000000000010C027
S3150800CBC0000000000000B03F0000000000003040F8
S3150800CBD000000000000010C0000000000000B03F88
S3150800CBE00000000000003040180000001800000097
S3150800CBF018000000180000000000000000000000F7
S3150800CC0000000000000010C0000000000000B03F57
S3150800CC10000000000000304000000000000010C0C6
S3150800CC20000000000000B03F000000000000304097
S3150800CC3000000000000010C0000000000000B03F27
S3150800CC40000000000000304000000000000010C096
S3150800CC50000000000000B03F000000000000304067
S3150800CC60170000001700000017000000170000005A
S3150800CC7000000000000001000D0000000D0000008B
S3150800CC800D0000000D000000000000000C00000070
S3150800CC900C0000000C0000000C0000000000000062
S3150800CCA00B0000000B0000000B0000000B0000004A
S3150800CCB0000000000000000000000000000010C096
S3150800CCC0000000000000B03F0000000000003040F7
S3150800CCD000000000000008C0000000000000C03F7F
S3150800CCE0000000000000204000000000000018C0FE
S3150800CCF0000000000000903F0000000000005040C7
S3150800CD0000000000000018C0000000000000903F6E
S3150800CD10000000000000504000000000000010C0A5
S3150800CD20000000000000B03F000000000000304096
S3150800CD3001000000010000000100000001000000E1
S3150800CD4000000000000000006464640048414E636F
S3150800CD506F6465725F453430375F5454415F436F83
S3150800CD606E74726F6C6C65725F76335F736F667420
S3150800CD707761726549445F76315F313230313232DC
S3150800CD805F313834393537004170704374726C54EA
S3150800CD9061736B0048414E636F6465725F4534305A
S3150800CDA0375F5454415F436F6E74726F6C6C657273
S3150800CDB05F76332E63000000200000000014024056
S3150800CDC008000900200000000014024010000E00B0
S3150800CDD0200000000014024020000F002000000080
S3150800CDE00014024040000400200000000014024025
S3150800CDF08000050020000000001402400001060023
S3150800CE002000000000140240000207002000000075
S3150800CE100014024000040800040000000008024054
S3150800CE2001000A00040000000008024004000C008B
S3150800CE30414443636F6E76657273696F6E546173AE
S3150800CE406B0000002E2E2F626C6F636B7365742F58
S3150800CE507274772F53544D33322F7372632F68656C
S3150800CE6061705F342E630000546D724370754C6FA9
S3150800CE706164000049444C45000000002E2E2F62D4
S3150800CE806C6F636B7365742F7274772F53544D33BD
S3150800CE90322F7372632F7461736B732E63000000F5
S3150800CEA02E2E2F626C6F636B7365742F7274772FD7
S3150800CEB053544D33322F7372632F74696D657273D1
S3150800CEC02E630000546D72205376630043616E45ED
S3150800CED076656E745461736B0000000043616E548E
S3150800CEE072616E736D69745461736B002E2E2F62B6
S3150800CEF06C6F636B7365742F7274772F53544D334D
S3150800CF00322F7372632F53544D33325F45343037A3
S3150800CF102F63616E2E63000000640040000000026B
S3150800CF2008000000000C0240010000000800000094
S3150800CF30000C024002000100091314151600000037
S3150800CF4000680040000000040200000000040240DF
S3150800CF502000050002000000000402404000060010
S3150800CF60093F40414200000001010201020202029B
S3150800CF700203020204020203030304030305030374
S3150800CF800603030504040604040704040804040746
S3150800CF90050508050508060508070508070608081B
S3150800CFA00608080708080800457643686E6C3100CD
S3150800CFB0457643686E6C3200457643686E6C33007E
S3150800CFC02E2E2F626C6F636B7365742F7274772FB6
S3150800CFD053544D33322F7372632F53544D33325F8C
S3150800CFE0453430372F6D61632E6300002E2E2F6275
S3150800CFF06C6F636B7365742F7274772F53544D334C
S3150800D000322F7372632F53544D33325F45343037A2
S3150800D0102F706F72742E630000000140010000003B
S3150800D0200201000010000000001002400002090082
S3150800D030100000000010024000080B000004004029
S3150800D040020000000102000001000000000002408A
S3150800D050400006000200000000040240200005000F
S3150800D060000800400400000001020000080000005B
S3150800D070000C024000100C0008000000000C0240E2
S3150800D08000200D0000040140020000000203000019
S3150800D09004000000000802404000060004000000EA
S3150800D0A0000802408000070000000140010000005F
S3150800D0B002011900000000400100000001021C00E6
S3150800D0C0000400400200000001021D0000080040A4
S3150800D0D00400000001021E000004014002000000D6
S3150800D0E002012C0000400140000001000201180066
S3150800D0F000440140000002000201190000480140F6
S3150800D1000000040002011A00001C00408000000014
S3150800D11001022C00002000400001000001022D0041
S3150800D1200400000000080240010000002000000082
S3150800D13000140240400000002000000000140240D5
S3150800D14080000000200000000014024000010000DA
S3150800D1502000000000140240000200002000000029
S3150800D160001402400004000002000000000402400F
S3150800D1708000000002000000000402404000000099
S3150800D180100000000010024004000000100000001B
S3150800D19000100240100000001000000000100240BD
S3150800D1A020000000100000000010024040000000AF
S3150800D1B04000000000180240800000004000000007
S3150800D1C0001802400001000040000000001802405C
S3150800D1D00010000040000000001802400080000017
S3150800D1E001000000000002401000000002000000DC
S3150800D1F00004024020000000010000000000024078
S3150800D200400000000100000000000240200000006D
S3150800D21008000000000C02400100000008000000A1
S3150800D220000C02400200000008000000000C02404A
S3150800D2300400000008000000000C0240080000007E
S3150800D24008000000000C0240100000000800000062
S3150800D250000C02402000000008000000000C0240FC
S3150800D2604000000008000000000C0240800000009A
S3150800D27008000000000C0240000100000800000041
S3150800D280000C02400002000008000000000C0240EA
S3150800D2900004000008000000000C0240000800001E
S3150800D2A008000000000C0240001000000800000002
S3150800D2B0000C02400020000008000000000C02409C
S3150800D2C00040000008000000000C0240008000003A
S3150800D2D010000000001002400100000010000000CD
S3150800D2E0001002400200000010000000001002407A
S3150800D2F00800000010000000001002408000000036
S3150800D300100000000010024000010000100000009C
S3150800D3100010024000020000100000000010024049
S3150800D3200004000010000000001002400008000081
S3150800D330100000000010024000100000100000005D
S3150800D34000100240002000001000000000100240FB
S3150800D350004000001000000000100240008000009D
S3150800D3602000000000140240010000002000000018
S3150800D37000140240020000002000000000140240D1
S3150800D380040000002000000000140240080000000D
S3150800D39020000000001402401000000020000000D9
S3150800D3A00014024020000000200000000014024083
S3150800D3B000080000200000000014024000100000D1
S3150800D3C02000000000140240002000002000000099
S3150800D3D00014024000400000200000000014024033
S3150800D3E00080000040000000001802400100000014
S3150800D3F04000000000180240020000004000000043
S3150800D4000018024004000000400000000018024016
S3150800D410080000004000000000180240100000004C
S3150800D42040000000001802402000000040000000F4
S3150800D43000180240400000004000000000180240AA
S3150800D440000200004000000000180240000400002E
S3150800D45040000000001802400008000040000000DC
S3150800D460001802400020000040000000001802409A
S3150800D470004000000100000000000240010000001A
S3150800D480040000000008024001000000200000001F
S3150800D4900014024040000000200000000014024072
S3150800D4A08000000020000000001402400001000077
S3150800D4B020000000001402400002000020000000C6
S3150800D4C000140240000400000200000000040240AC
S3150800D4D08000000002000000000402404000000036
S3150800D4E010000000001002400400000010000000B8
S3150800D4F0001002401000000010000000001002405A
S3150800D500200000001000000000100240400000004B
S3150800D51040000000001802408000000040000000A3
S3150800D52000180240000100004000000000180240F8
S3150800D53000100000400000000018024000800000B3
S3150800D5400100000000000240100000000200000078
S3150800D5500004024020000000010000000000024014
S3150800D560400000000100000000000240200000000A
S3150800D57008000000000C024001000000080000003E
S3150800D580000C02400200000008000000000C0240E7
S3150800D5900400000008000000000C0240080000001B
S3150800D5A008000000000C02401000000008000000FF
S3150800D5B0000C02402000000008000000000C024099
S3150800D5C04000000008000000000C02408000000037
S3150800D5D008000000000C02400001000008000000DE
S3150800D5E0000C02400002000008000000000C024087
S3150800D5F00004000008000000000C024000080000BB
S3150800D60008000000000C024000100000080000009E
S3150800D610000C02400020000008000000000C024038
S3150800D6200040000008000000000C024000800000D6
S3150800D6301000000000100240010000001000000069
S3150800D6400010024002000000100000000010024016
S3150800D65008000000100000000010024080000000D2
S3150800D6601000000000100240000100001000000039
S3150800D67000100240000200001000000000100240E6
S3150800D680000400001000000000100240000800001E
S3150800D69010000000001002400010000010000000FA
S3150800D6A00010024000200000100000000010024098
S3150800D6B0004000001000000000100240008000003A
S3150800D6C020000000001402400100000020000000B5
S3150800D6D0001402400200000020000000001402406E
S3150800D6E004000000200000000014024008000000AA
S3150800D6F02000000000140240100000002000000076
S3150800D700001402402000000020000000001402401F
S3150800D710000800002000000000140240001000006D
S3150800D7202000000000140240002000002000000035
S3150800D73000140240004000002000000000140240CF
S3150800D74000800000400000000018024001000000B0
S3150800D75040000000001802400200000040000000DF
S3150800D76000180240040000004000000000180240B3
S3150800D77008000000400000000018024010000000E9
S3150800D7804000000000180240200000004000000091
S3150800D7900018024040000000400000000018024047
S3150800D7A000020000400000000018024000040000CB
S3150800D7B04000000000180240000800004000000079
S3150800D7C00018024000200000400000000018024037
S3150800D7D0004000000400000000080240002000008D
S3150800D7E0000001400100000002011B00000000408B
S3150800D7F00100000001021C000004004002000000B5
S3150800D80001021D00000800400400000001021E007D
S3150800D810000401400200000002012E000040014001
S3150800D8200000010002011800004401400000020047
S3150800D83002011900004801400000040002011A0014
S3150800D840001C00408000000001022C00002000405F
S3150800D8500001000001022D00100000000010024027
S3150800D860000200000200020001000900100000008A
S3150800D87000100240000800010400200001000B000F
S3150800D88010000000001002400020000208000002FC
S3150800D89001000D00100000000010024000400003C7
S3150800D8A01000002001000E000100000000000240E8
S3150800D8B0200001000200020001000500010000002E
S3150800D8C000000240400002000200020002000600BA
S3150800D8D002000000000402402000020104002000AB
S3150800D8E00200050008000000000C024000100300BA
S3150800D8F00200020002000C0008000000000C0240B2
S3150800D900002003010400200002000D0004000000AE
S3150800D910000802404000040002000200030006005E
S3150800D92004000000000802408000040104002000F2
S3150800D9300300070010000000001002402000050048
S3150800D940020002000300050010000000001002405B
S3150800D9504000050104002000030006002000000026
S3150800D9600014024040000600020002000300060000
S3150800D9702000000000140240800007000200020098
S3150800D9800300070020000000001402400001080000
S3150800D99002000200090008002000000000140240EE
S3150800D9A000020900020002000900090000100140F7
S3150800D9B010000000022500000200000000040240DA
S3150800D9C04000060002000000000402408000070034
S3150800D9D00700000000440040000002000126000085
S3150800D9E008000000000C02402000050008000000A6
S3150800D9F0000C0240400006000700000000480040F6
S3150800DA00000004000127000008000000000C024086
S3150800DA100001080008000000000C0240000209008E
S3150800DA200700000000140140200000000247000023
S3150800DA300400000000080240400006000400000040
S3150800DA4000080240800007000800000056435020E6
S3150800DA50436F6E666967000056435020496E7465C9
S3150800DA60726661636500000053544D6963726F65A1
S3150800DA706C656374726F6E696373000053544D333B
S3150800DA8032205669727475616C20436F6D506F72DF
S3150800DA907420696E204853206D6F6465000000008D
S3150800DAA053544D3332205669727475616C20436F36
S3150800DAB06D506F727420696E204653204D6F6465F1
S3150800DAC000000000303030303030303030353042F1
S3150800DAD000000000303030303030303030353043E0
S3150800DAE000000000000001400100000002011B00C8
S3150800DAF0000000400100000001021C000004004074
S3150800DB000200000001021D00000800400400000099
S3150800DB1001021E00000401400200000002012E005E
S3150800DB2000400140000001000201180000440140C5
S3150800DB30000002000201190000480140000004002C
S3150800DB4002011A00001C00408000000001022C009F
S3150800DB50002000400001000001022D001000000016
S3150800DB600010024000020000020002000100090045
S3150800DB701000000000100240000800010400200008
S3150800DB8001000B00100000000010024000200002F7
S3150800DB900800000201000D001000000000100240FD
S3150800DBA0004000031000002001000E0001000000E4
S3150800DBB000000240200001000200020001000500EA
S3150800DBC001000000000002404000020002000200BE
S3150800DBD002000600020000000004024020000201C4
S3150800DBE0040020000200050008000000000C0240A6
S3150800DBF0001003000200020002000C0008000000EA
S3150800DC00000C0240002003010400200002000D0061
S3150800DC100400000000080240400004000200020060
S3150800DC20030006000400000000080240800004010A
S3150800DC300400200003000700100000000010024046
S3150800DC402000050002000200030005001000000085
S3150800DC5000100240400005010400200003000600F1
S3150800DC6020000000001402404000060002000200E6
S3150800DC700300060020000000001402408000070090
S3150800DC800200020003000700200000000014024002
S3150800DC900001080002000200090008002000000038
S3150800DCA000140240000209000200020009000900EF
S3150800DCB02E2E2F626C6F636B7365742F7274772FB9
S3150800DCC053544D33322F7372632F71756575652EF4
S3150800DCD06300000004040400E8DC0008F0DC000827
S3150800DCE0F8DC000807070700457643686E6C3100C4
S3150800DCF0457643686E6C3200457643686E6C330031
S3150800DD0050505000666D6F6400000000000000006F
S3150800DD100000000000000000000000000000008075
S3090800DD2043000000AE
S315080100000B78FF2B00D070474B78002BFBD110F0F3
S3150801001069B800BF08B501200FF05AFB034A40F240
S3150801002067610020BDE8084012F0B2B80100010876
S3150801003000200FF0D1B900BF704700BF2DE9F04786
S31508010040DDF820E0099E9EF800C004460D4692465A
S315080100501F46BCF1000F02D101238EF8003030880B
S3150801006018F066FA22462B468046894618F02EFD78
S31508010070E0B10E9A3B6813600D9A7B6813600C9A7F
S31508010080BB7A1370109A3B7A13700B9AFB7A13702A
S315080100900F9A7B7A13700A9A002313605360119A98
S315080100A01370308818F044FA8046894642464B4612
S315080100B02046294618F014FD68B10B9B1B78D3B965
S315080100C001238AF800300C9B1B787BB901238AF837
S315080100D00130BDE8F087002642464B4620462946B0
S315080100E08AF8006018F0FCFC0028ECD100238AF895
S315080100F00130BDE8F08700238AF800300C9B1B7895
S31508010100002BF3D1E2E700BF2DE9F04F83B0164685
S315080101101F4682468B4617F027FF00220023044616
S315080101200D4618F0D3FCD8BB804600220023204692
S3150801013029465FFA88F818F0C9FC50B9304639469D
S3150801014017F08AFE02460B463046394618F0E6FC99
S3150801015090BBB8F1000F5FD15046594600220023E3
S315080101604FF0010918F0BCFC20B3002300223046E9
S31508010170394618F0B5FC4FF00103A0B15FFA89F9C9
S31508010180DBB2994507D02046294632463B4618F048
S3150801019083F804460D462046294603B0BDE8F08F8C
S315080101A04FF00108C1E703465FFA89F9DBB29945C1
S315080101B0E9D1F0E7C146D8E732463B4650465946AB
S315080101C018F046FB21F000490022194B49468046A2
S315080101D018F062F817F040FE02460B4640464946BB
S315080101E018F058F80B46024623F0004340460092A1
S315080101F0019300220F4B494618F000FA02460B46B6
S31508010200DDE9000118F076FC4FF0010858B15FFAF4
S3150801021088F8B8F1000F9FD000240025204629460A
S3150801022003B0BDE8F08F80465FFA88F8F1E700BFB2
S315080102300000E03F0000B03C2DE9F0410999089C17
S3150801024091F800E0DDF82880054616461F46BEF1FE
S31508010250000F01D101230B702B785B00DBB25A0921
S3150801026007EE902AB8EEE77AF7EE007AB4EEE77A67
S31508010270F1EE10FAA372227307DDD8E90001002214
S315080102801B4B18F009F8C8E900012878C009607302
S315080102902B781B01DBB24FEA1318637284F80B80C3
S315080102A018F046F932463B4618F010FC50B1404664
S315080102B018F03EF9DDE9062318F008FC4FF00103B2
S315080102C098B1D8B220726B782370AB786370EB78EB
S315080102D0A3702B79E3706B792371AB796371EB7931
S315080102E0A3710023E371BDE8F0810346E9E700BF86
S315080102F00000F03F2DE9F0410999089C91F800E0CA
S31508010300DDF82880054616461F46BEF1000F01D1C5
S3150801031001230B702B785B00DBB25A0907EE902A92
S31508010320B8EEE77AF7EE007AB4EEE77AF1EE10FA6C
S31508010330A372227307DDD8E9000100221B4B17F0CF
S31508010340ABFFC8E900012878C00960732B781B0147
S31508010350DBB24FEA1318637284F80B8018F0E8F8D9
S3150801036032463B4618F0B2FB50B1404618F0E0F869
S31508010370DDE9062318F0AAFB4FF0010398B1D8B2BC
S3150801038020726B782370AB786370EB78A3702B7946
S31508010390E3706B792371AB796371EB79A3710023F0
S315080103A0E371BDE8F0810346E9E700BF0000F03FCD
S315080103B02DE9F0410799069C91F800E0DDF82080C7
S315080103C0054616461F46BEF1000F01D101230B70E3
S315080103D02B785B00DBB25A0907EE902AB8EEE77A6A
S315080103E0F7EE007AB4EEE77AF1EE10FAA372227309
S315080103F007DDD8E900010022154B17F04DFFC8E9C2
S3150801040000016B782370AB786370EB78A3702B7956
S31508010410E3706B792371AB796371EB79A37100236F
S31508010420E3712B781B01DBB218096372E07218F0CD
S315080104307FF83B46324618F049FB4FF0010300B9F5
S31508010440034623722B78DB096373BDE8F08100BF8D
S315080104500000F03F2DE9F0410799069C91F800E06C
S31508010460DDF82080054616461F46BEF1000F01D16C
S3150801047001230B702B785B00DBB25A0907EE902A31
S31508010480B8EEE77AF7EE007AB4EEE77AF1EE10FA0B
S31508010490A372227307DDD8E900010022154B17F074
S315080104A0FBFEC8E900016B782370AB786370EB78C3
S315080104B0A3702B79E3706B792371AB796371EB794F
S315080104C0A3710023E3712B781B01DBB21809637250
S315080104D0E07218F02DF83B46324618F0F7FA4FF05D
S315080104E0010300B9034623722B78DB096373BDE860
S315080104F0F08100BF0000F03F2DE9F04F87B0CDE94C
S31508010500002319999DF8404091F800E004949DF85C
S31508010510444005949DF848509DF84C609DF85070EC
S315080105209DF854A09DF858B01B9CBEF1000F01D14F
S3150801053001230B7017F0ECFF0022394BCDE90201BC
S3150801054017F0AAFEDDE9002317F0A4FE0022002316
S315080105508046894618F0BAFA002851D01E9B1878A9
S31508010560179BC0015FFA80F983F801901D9BD3E9B7
S31508010570000118F01BFB179B00015FFA80F883F84E
S3150801058002801A9BD3E9000118F010FB9DF8103080
S31508010590637040449DF81430A3704844189B20703A
S315080105A0E5702671677184F806A084F807B01C9A6D
S315080105B01B681360DDE90023DDE9020117F06AFE15
S315080105C00022002304460D4618F080FA28B1179A2E
S315080105D00123137007B0BDE8F08F0022114B2046A6
S315080105E02946FFF791FD0023002218F06FFA4FF014
S315080105F0010390B1DBB2179A137007B0BDE8F08F0B
S315080106000022084B40464946FFF77EFD002200239B
S3150801061018F05CFA0028CDD0A0E70346DBB2EAE77A
S315080106200000F03F000014402DE9F04F87B0CDE9F6
S31508010630002319999DF8404091F800E004949DF82B
S31508010640444005949DF848509DF84C609DF85070BB
S315080106509DF854A09DF858B01B9CBEF1000F01D11E
S3150801066001230B7017F054FF0022394BCDE9020123
S3150801067017F012FEDDE9002317F00CFE0022002315
S315080106808046894618F022FA002851D01E9B187810
S31508010690179BC0015FFA80F983F801901D9BD3E986
S315080106A0000118F083FA179B00015FFA80F883F8B6
S315080106B002801A9BD3E9000118F078FA9DF81030E8
S315080106C0637040449DF81430A3704844189B207009
S315080106D0E5702671677184F806A084F807B01C9A3C
S315080106E01B681360DDE90023DDE9020117F0D2FD7D
S315080106F00022002304460D4618F0E8F928B1179A96
S315080107000123137007B0BDE8F08F0022114B204674
S315080107102946FFF7F9FC0023002218F0D7F94FF014
S31508010720010390B1DBB2179A137007B0BDE8F08FD9
S315080107300022084B40464946FFF7E6FC0022002303
S3150801074018F0C4F90028CDD0A0E70346DBB2EAE7E2
S315080107500000F03F000020402DE9F04F85B0CDE9BB
S31508010760002315999DF8386091F800E09DF83C70D2
S315080107709DF840A09DF844B09DF84850179CBEF1DD
S31508010780000F01D101230B7017F0C2FE0022374B6F
S31508010790CDE9020117F080FDDDE9002317F07AFDA6
S315080107A0002200238046894618F090F900284DD08A
S315080107B01A9B1878139BC0015FFA80F983F8019098
S315080107C0199BD3E9000118F0F1F9139B00015FFAAF
S315080107D080F883F80280169BD3E9000118F0E6F940
S315080107E040444844149B20706670A77084F803A09F
S315080107F084F804B06571A571E571189A1B681360D0
S31508010800DDE90023DDE9020117F044FD002200239A
S3150801081004460D4618F05AF928B1139A01231370A4
S3150801082005B0BDE8F08F0022114B20462946FFF797
S315080108306BFC0023002218F049F94FF0010390B12F
S31508010840DBB2139A137005B0BDE8F08F0022084B8E
S3150801085040464946FFF758FC0022002318F036F9AE
S315080108600028CDD0A4E70346DBB2EAE70000F03F53
S31508010870000014402DE9F04F85B0CDE90023159904
S315080108809DF8386091F800E09DF83C709DF840A00D
S315080108909DF844B09DF84850179CBEF1000F01D150
S315080108A001230B7017F034FE0022374BCDE9020104
S315080108B017F0F2FCDDE9002317F0ECFC0022002317
S315080108C08046894618F002F900284DD01A9B1878F7
S315080108D0139BC0015FFA80F983F80190199BD3E94C
S315080108E0000118F063F9139B00015FFA80F883F899
S315080108F00280169BD3E9000118F058F94044484490
S31508010900149B20706670A77084F803A084F804B05D
S315080109106571A571E571189A1B681360DDE90023F5
S31508010920DDE9020117F0B6FC0022002304460D4654
S3150801093018F0CCF828B1139A0123137005B0BDE855
S31508010940F08F0022114B20462946FFF7DDFB0023D5
S31508010950002218F0BBF84FF0010390B1DBB2139AED
S31508010960137005B0BDE8F08F0022084B4046494692
S31508010970FFF7CAFB0022002318F0A8F80028CDD0FB
S31508010980A4E70346DBB2EAE70000F03F0000204097
S315080109902DE9F0410799069C91F800E0DDF82080E1
S315080109A0054616461F46BEF1000F01D101230B70FD
S315080109B02B785B00DBB25A0907EE902AB8EEE77A84
S315080109C0F7EE007AB4EEE77AF1EE10FAA372227323
S315080109D007DDD8E900010022154B17F05DFCC8E9CF
S315080109E000016B782370AB786370EB78A3702B7971
S315080109F0E3706B792371AB796371EB79A37100238A
S31508010A00E3712878C009607317F092FD3B463246B8
S31508010A1018F05CF84FF0010300B9034623722B78EE
S31508010A201B01DBB21A096372E272BDE8F08100BFED
S31508010A300000F03F2DE9F0410799069C91F800E086
S31508010A40DDF82080054616461F46BEF1000F01D186
S31508010A5001230B702B785B00DBB25A0907EE902A4B
S31508010A60B8EEE77AF7EE007AB4EEE77AF1EE10FA25
S31508010A70A372227307DDD8E900010022154B17F08E
S31508010A800BFCC8E900016B782370AB786370EB78CF
S31508010A90A3702B79E3706B792371AB796371EB7969
S31508010AA0A3710023E3712878C009607317F040FD2C
S31508010AB03B46324618F00AF84FF0010300B90346DF
S31508010AC023722B781B01DBB21A096372E272BDE845
S31508010AD0F08100BF0000F03F2DE9F0470A9FDDF8DD
S31508010AE02490DFF8B080054616460C469A46D7E9A3
S31508010AF000010022234B17F0CFFB0123C7E90001B0
S31508010B008AF800302368204A013313602360377856
S31508010B101E4C384617F0FCFCD9F800301C4AC8E9C7
S31508010B20000113602F712B6096F807E085F805E040
S31508010B3096F801C085F806C096F8028085F8078000
S31508010B4096F8039085F8089096F804A085F809A008
S31508010B507079A872B679EE722770607184F804A06C
S31508010B6084F8039084F8028084F801C0A67184F899
S31508010B7007E01946082223460020BDE8F04711F090
S31508010B8093B800BF0000F03F54C6002018070020A4
S31508010B9020C10020B0C6002008B50121002011F0AF
S31508010BA087FA0B21002011F083FA0C21002011F09D
S31508010BB07FFA0D21002011F07BFA1521002011F092
S31508010BC077FA1621002011F073FA1721002011F087
S31508010BD06FFA1821002011F06BFA19210020BDE8DF
S31508010BE0084011F065BA00BF2DE9F04F2DED088BCD
S31508010BF00D4683B00968E34F169CE34EDDF85C9019
S31508010C000131396029602168316007EE901AB8EE22
S31508010C10678AF7EE007AB4EE678AF1EE10FA1F4694
S31508010C2004469246EB7940F092820BB90123EB71A7
S31508010C30DFF858830022434600921046012111F03D
S31508010C4063FA002884F84B0040F3948398F801303E
S31508010C50637698F80230A37698F80330E37698F825
S31508010C6004302377D6ED007A98F80530637798F83B
S31508010C700630A37798F8072098F80030E277F8EE5F
S31508010C80678A2376F2EE067AF4EE678AF1EE10FAAF
S31508010C90AB7940F0DB820BB90123AB71DFF8F08247
S31508010CA000224346009210460B2111F02DFA002826
S31508010CB084F84A0040F3778398F80130637498F80A
S31508010CC00230A37498F80330E37498F80430237556
S31508010CD0D6ED007A98F80530637598F80630A3754D
S31508010CE098F8072098F80030E275B8EE679A2374E9
S31508010CF0F2EE087AB4EE679AF1EE10FA6B7940F0E3
S31508010D0094820BB901236B71DFF88882002243466E
S31508010D10009210460C2111F0F7F9002884F84900D1
S31508010D2040F33C83D6ED007A98F8073098F8062008
S31508010D3098F8051098F8040098F803E098F802C0A6
S31508010D4098F801B098F8008084F809B0F8EE679A27
S31508010D5084F80AC084F80BE020736173A273E37305
S31508010D6084F80880F2EE0A7AF4EE679AF1EE10FA40
S31508010D702B7940F048820BB901232B71DFF81882D1
S31508010D8000224346009210460D2111F0BDF90028B4
S31508010D9084F848001BDD98F801B098F802E098F845
S31508010DA0030098F800C098F8041098F8052098F8F8
S31508010DB0063098F8078084F8078084F801B084F82B
S31508010DC000C084F802E0E07021716271A371D6ED6A
S31508010DD0007AB8EE67AAF3EE057AB4EE67AAF1EEE1
S31508010DE010FA2B7A40F0F5810BB901232B72DFF843
S31508010DF0AC810022434600921046152111F084F970
S31508010E00002884F84C0040F3E08298F8013084F811
S31508010E10213098F8023084F8223098F8033084F8A3
S31508010E20233098F8043084F82430D6ED007A98F8FF
S31508010E30053084F8253098F8063084F8263098F875
S31508010E40072098F8003084F82720F8EE67AA84F876
S31508010E502030F3EE067AF4EE67AAF1EE10FA6B7A11
S31508010E6040F038820BB901236B72DFF83481002216
S31508010E70434600921046162111F046F9002884F8D7
S31508010E804D0040F39D8298F8013084F8293098F88E
S31508010E90023084F82A3098F8033084F82B3098F811
S31508010EA0043084F82C30D6ED007A98F8053084F8A9
S31508010EB02D3098F8063084F82E3098F8072098F8DF
S31508010EC0003084F82F20B8EE67BA84F82830F3EE9C
S31508010ED0077AB4EE67BAF1EE10FA2B7B40F0C881B7
S31508010EE00BB901232B73DFF8BC800022434600921D
S31508010EF01046172111F008F9002884F8500040F32C
S31508010F005A8298F8013084F8413098F8023084F80A
S31508010F10423098F8033084F8433098F8043084F85E
S31508010F204430D6ED007A98F8053084F8453098F8BB
S31508010F30063084F8463098F8072098F8003084F887
S31508010F404720F8EE67BA84F84030F3EE087AF4EEF3
S31508010F5067BAF1EE10FAEB7A40F0A3810BB90123D7
S31508010F60EB72DFF8448000224346009210461821AE
S31508010F7011F0CAF8002884F84F00D6ED007A40F33C
S31508010F80178213E078C000203CC10020A00600208B
S31508010F90E0060020F006002000070020A806002031
S31508010FA0B0060020B8060020C806002098F80130CF
S31508010FB084F8393098F8023084F83A3098F80330D2
S31508010FC084F83B3098F8043084F83C3098F80530BA
S31508010FD084F83D3098F8063084F83E3098F80720B2
S31508010FE098F8003084F83F20F8EE677A84F83830AC
S31508010FF0B3EE097AF4EE477AF1EE10FAAB7A40F0DD
S31508011000D0800BB90123AB72D44D00222B46009236
S315080110101046192111F078F8002884F84E0017DDDA
S315080110206B78AA7884F83130EB7884F8322084F822
S3150801103033302A796B7984F83420A97984F83530E4
S31508011040EA792B7884F8361084F8372084F830301A
S31508011050F7EE007AB4EE678AF1EE10FA40F08A806C
S3150801106094F94B30207E94F819E0A67EE57E217F1F
S31508011070627F94F81EB0E47F07EE103A99F80030C3
S3150801108007EE903AF8EEE77AF7EE006AF4EE667A3A
S31508011090F1EE10FA15D1F8EEC77AF5EE407AF1EECF
S315080110A010FA4FD1189B4FF002084FF0010C89F83E
S315080110B0008083F800C099F8003007EE903AF8EE00
S315080110C0E77AF0EE006AF4EE667AF1EE10FA2FD1BD
S315080110D0B8EEC77AF7EE007AB4EEE77AF1EE10FACF
S315080110E030DB189B87F801E04FF0010C38707A71F4
S315080110F0BE70FD70397187F806B0FC7183F800C0BF
S31508011100159B974A83F800C04FF0030E89F800E053
S31508011110BAF800301380149A138017F0F9F9914B35
S31508011120C3E9000199F8003007EE903AF8EEE77A3C
S31508011130F5EE407AF1EE10FA04D1189A012389F8EE
S315080111400030137003B0BDEC088BBDE8F08F73B1A6
S31508011150002380F84B30037643768376C37603778C
S3150801116043778377C377F0EE488AEB718AE5F0EE29
S31508011170488A87E5F2EE067AF4EE678AF1EE10FA06
S3150801118040F0CC8094F94A30207C94F811E0A67C92
S31508011190E57C217D627D94F816B0E47D07EE103A70
S315080111A06CE7002B3FF454AF002384F84E3084F8E3
S315080111B0303084F8313084F8323084F8333084F8AA
S315080111C0343084F8353084F8363084F83730AB72E9
S315080111D03EE7002B00F09680002384F84C3084F813
S315080111E0203084F8213084F8223084F8233084F8BA
S315080111F0243084F8253084F8263084F82730F0EE38
S315080112004AAA2B7225E6002B00F08280002384F877
S31508011210483023706370A370E37023716371A371FF
S31508011220E371B0EE69AA2B71D5E5002B73D00023C3
S3150801123084F8493023726372A372E372237363736A
S31508011240A373E373F0EE499A6B718BE5002B00F0FB
S315080112508B80002384F84A3023746374A374E3747F
S3150801126023756375A375E375B0EE689AAB713FE5AF
S31508011270002B70D0002384F8503084F8403084F86D
S31508011280413084F8423084F8433084F8443084F895
S31508011290453084F8463084F84730F0EE4BBA2B7364
S315080112A053E6002B63D0002384F84F3084F8383096
S315080112B084F8393084F83A3084F83B3084F83C3085
S315080112C084F83D3084F83E3084F83F30F0EE6B7A8E
S315080112D0EB728DE6CBB1002384F84D3084F82830C3
S315080112E084F8293084F82A3084F82B3084F82C3095
S315080112F084F82D3084F82E3084F82F30B0EE6ABA8F
S315080113006B72E4E5F0EE4AAAA3E5B0EE6ABADEE549
S31508011310B0EE69AA5FE5F0EE499A23E5F2EE087A9E
S31508011320B4EE679AF1EE10FA29D0F2EE0A7AF4EEE3
S31508011330679AF1EE10FA4DD194F94830207894F86D
S3150801134001E0A678E5782179627994F806B0E4791E
S3150801135007EE103A92E6F0EE4BBAF6E5D80600200B
S3150801136038C1002098C10020B0EE689AC0E4F0EEBA
S315080113706B7A3DE6D6ED007AF8EE678A82E494F94F
S315080113804930207A94F809E0A67AE57A217B627BCE
S3150801139094F80EB0E47B07EE103A6FE6D6ED007AC4
S315080113A0F8EE679ADEE4D6ED007AB8EE679A9FE41E
S315080113B0F8EE677A1CE6D6ED007AF8EE67BAC4E568
S315080113C0D6ED007AB8EE67BA81E5D6ED007AF8EE81
S315080113D067AA3EE5F3EE057AB4EE67AAF1EE10FACE
S315080113E01BD0F3EE067AF4EE67AAF1EE10FA29D1CC
S315080113F094F94D3094F8280094F829E094F82A6075
S3150801140094F82B5094F82C1094F82D2094F82EB0BB
S3150801141094F82F4007EE103A30E694F94C3094F8D8
S31508011420200094F821E094F8226094F8235094F867
S31508011430241094F8252094F826B094F8274007EE4E
S31508011440103A1BE6F3EE077AB4EE67BAF1EE10FA34
S3150801145014D194F9503094F8400094F841E094F886
S31508011460426094F8435094F8441094F8452094F84F
S3150801147046B094F8474007EE103AFFE5F3EE087ACE
S31508011480F4EE67BAF1EE10FA14D194F94F3094F8E4
S31508011490380094F839E094F83A6094F83B5094F897
S315080114A03C1094F83D2094F83EB094F83F4007EE7E
S315080114B0103AE3E594F94E3094F8300094F831E0A7
S315080114C094F8326094F8335094F8341094F835202F
S315080114D094F836B094F8374007EE103ACEE500BFD7
S315080114E0012108B5084610F0E3FD0B21012010F093
S315080114F0DFFD0C21012010F0DBFD0D21012010F08C
S31508011500D7FD1521012010F0D3FD1621012010F079
S31508011510CFFD1721012010F0CBFD1821012010F075
S31508011520C7FD19210120BDE8084010F0C1BD00BF63
S315080115302DE9F04F2DED088B0D4683B00968E34F71
S31508011540169CE34EDDF85C9001313960296021680B
S31508011550316007EE901AB8EE678AF7EE007AB4EEB4
S31508011560678AF1EE10FA1F4604469246EB7940F077
S3150801157092820BB90123EB71DFF85883002201210E
S3150801158043460092084610F0BFFD002884F84B0038
S3150801159040F3948398F80130637698F80230A3767D
S315080115A098F80330E37698F804302377D6ED007A75
S315080115B098F80530637798F80630A37798F80720E6
S315080115C098F80030E277F8EE678A2376F2EE067A23
S315080115D0F4EE678AF1EE10FAAB7940F0DB820BB9CB
S315080115E00123AB71DFF8F0820022434600920B21FA
S315080115F0012010F089FD002884F84A0040F377831A
S3150801160098F80130637498F80230A37498F8033097
S31508011610E37498F804302375D6ED007A98F8053006
S31508011620637598F80630A37598F8072098F800307E
S31508011630E275B8EE679A2374F2EE087AB4EE679A01
S31508011640F1EE10FA6B7940F094820BB901236B71B4
S31508011650DFF888820022434600920C21012010F00F
S3150801166053FD002884F8490040F33C83D6ED007AFF
S3150801167098F8073098F8062098F8051098F80400A5
S3150801168098F803E098F802C098F801B098F8008035
S3150801169084F809B0F8EE679A84F80AC084F80BE072
S315080116A020736173A273E37384F80880F2EE0A7AF1
S315080116B0F4EE679AF1EE10FA2B7940F048820BB9ED
S315080116C001232B71DFF818820022434600920D216F
S315080116D0012010F019FD002884F848001BDD98F850
S315080116E001B098F802E098F8030098F800C098F855
S315080116F0041098F8052098F8063098F8078084F8B9
S31508011700078084F801B084F800C084F802E0E0702C
S3150801171021716271A371D6ED007AB8EE67AAF3EE6C
S31508011720057AB4EE67AAF1EE10FA2B7A40F0F58144
S315080117300BB901232B72DFF8AC81002243460092D4
S315080117401521012010F0E0FC002884F84C0040F334
S31508011750E08298F8013084F8213098F8023084F84C
S31508011760223098F8033084F8233098F8043084F846
S315080117702430D6ED007A98F8053084F8253098F8A3
S31508011780063084F8263098F8072098F8003084F84F
S315080117902720F8EE67AA84F82030F3EE067AF4EEED
S315080117A067AAF1EE10FA6B7A40F038820BB9012379
S315080117B06B72DFF83481002243460092162101201C
S315080117C010F0A2FC002884F84D0040F39D8298F899
S315080117D0013084F8293098F8023084F82A3098F8CC
S315080117E0033084F82B3098F8043084F82C30D6ED81
S315080117F0007A98F8053084F82D3098F8063084F880
S315080118002E3098F8072098F8003084F82F20B8EE83
S3150801181067BA84F82830F3EE077AB4EE67BAF1EEC0
S3150801182010FA2B7B40F0C8810BB901232B73DFF823
S31508011830BC800022434600921721012010F064FC67
S31508011840002884F8500040F35A8298F8013084F849
S31508011850413098F8023084F8423098F8033084F819
S31508011860433098F8043084F84430D6ED007A98F875
S31508011870053084F8453098F8063084F8463098F8EB
S31508011880072098F8003084F84720F8EE67BA84F8FC
S315080118904030F3EE087AF4EE67BAF1EE10FAEB7A15
S315080118A040F0A3810BB90123EB72DFF844800022D3
S315080118B0434600921821012010F026FC002884F8DE
S315080118C04F00D6ED007A40F3178213E0B0C100202D
S315080118D094C600209006002010070020200700204B
S315080118E098060020C0060020D0060020E806002041
S315080118F0F806002098F8013084F8393098F8023053
S3150801190084F83A3098F8033084F83B3098F8043074
S3150801191084F83C3098F8053084F83D3098F806305C
S3150801192084F83E3098F8072098F8003084F83F206C
S31508011930F8EE677A84F83830B3EE097AF4EE477A26
S31508011940F1EE10FAAB7A40F0D0800BB90123AB72F5
S31508011950D44D00222B4600921921012010F0D4FB08
S31508011960002884F84E0017DD6B78AA7884F83130A0
S31508011970EB7884F8322084F833302A796B7984F845
S315080119803420A97984F83530EA792B7884F8361029
S3150801199084F8372084F83030F7EE007AB4EE678A97
S315080119A0F1EE10FA40F08A8094F94B30207E94F8D3
S315080119B019E0A67EE57E217F627F94F81EB0E47F5A
S315080119C007EE103A99F8003007EE903AF8EEE77A02
S315080119D0F7EE006AF4EE667AF1EE10FA15D1F8EE32
S315080119E0C77AF5EE407AF1EE10FA4FD1189B4FF00F
S315080119F002084FF0010C89F8008083F800C099F8B5
S31508011A00003007EE903AF8EEE77AF0EE006AF4EE67
S31508011A10667AF1EE10FA2FD1B8EEC77AF7EE007AA8
S31508011A20B4EEE77AF1EE10FA30DB189B87F801E09D
S31508011A304FF0010C38707A71BE70FD70397187F8F4
S31508011A4006B0FC7183F800C0159B974A83F800C05D
S31508011A504FF0030E89F800E0BAF800301380149AA3
S31508011A60138016F055FD914BC3E9000199F8003032
S31508011A7007EE903AF8EEE77AF5EE407AF1EE10FACB
S31508011A8004D1189A012389F80030137003B0BDEC0C
S31508011A90088BBDE8F08F73B1002380F84B300376CD
S31508011AA043768376C376037743778377C377F0EEF6
S31508011AB0488AEB718AE5F0EE488A87E5F2EE067AFE
S31508011AC0F4EE678AF1EE10FA40F0CC8094F94A30C8
S31508011AD0207C94F811E0A67CE57C217D627D94F852
S31508011AE016B0E47D07EE103A6CE7002B3FF454AFCD
S31508011AF0002384F84E3084F8303084F8313084F885
S31508011B00323084F8333084F8343084F8353084F848
S31508011B10363084F83730AB723EE7002B00F09680FA
S31508011B20002384F84C3084F8203084F8213084F876
S31508011B30223084F8233084F8243084F8253084F858
S31508011B40263084F82730F0EE4AAA2B7225E6002BB8
S31508011B5000F08280002384F8483023706370A370F4
S31508011B60E37023716371A371E371B0EE69AA2B71F6
S31508011B70D5E5002B73D0002384F8493023726372AC
S31508011B80A372E37223736373A373E373F0EE499A43
S31508011B906B718BE5002B00F08B80002384F84A30AB
S31508011BA023746374A374E37423756375A375E3756A
S31508011BB0B0EE689AAB713FE5002B70D0002384F82C
S31508011BC0503084F8403084F8413084F8423084F843
S31508011BD0433084F8443084F8453084F8463084F834
S31508011BE04730F0EE4BBA2B7353E6002B63D0002334
S31508011BF084F84F3084F8383084F8393084F83A302C
S31508011C0084F83B3084F83C3084F83D3084F83E3023
S31508011C1084F83F30F0EE6B7AEB728DE6CBB1002398
S31508011C2084F84D3084F8283084F8293084F82A302D
S31508011C3084F82B3084F82C3084F82D3084F82E3033
S31508011C4084F82F30B0EE6ABA6B72E4E5F0EE4AAA70
S31508011C50A3E5B0EE6ABADEE5B0EE69AA5FE5F0EE95
S31508011C60499A23E5F2EE087AB4EE679AF1EE10FA8C
S31508011C7029D0F2EE0A7AF4EE679AF1EE10FA4DD10E
S31508011C8094F94830207894F801E0A678E578217926
S31508011C90627994F806B0E47907EE103A92E6F0EE26
S31508011CA04BBAF6E508070020BAC6002098C60020F8
S31508011CB0B0EE689AC0E4F0EE6B7A3DE6D6ED007AAE
S31508011CC0F8EE678A82E494F94930207A94F809E0B3
S31508011CD0A67AE57A217B627B94F80EB0E47B07EE5F
S31508011CE0103A6FE6D6ED007AF8EE679ADEE4D6ED9D
S31508011CF0007AB8EE679A9FE4F8EE677A1CE6D6EDA5
S31508011D00007AF8EE67BAC4E5D6ED007AB8EE67BA96
S31508011D1081E5D6ED007AF8EE67AA3EE5F3EE057A97
S31508011D20B4EE67AAF1EE10FA1BD0F3EE067AF4EEDA
S31508011D3067AAF1EE10FA29D194F94D3094F82800E2
S31508011D4094F829E094F82A6094F82B5094F82C100A
S31508011D5094F82D2094F82EB094F82F4007EE103AF7
S31508011D6030E694F94C3094F8200094F821E094F880
S31508011D70226094F8235094F8241094F8252094F8B6
S31508011D8026B094F8274007EE103A1BE6F3EE077AD9
S31508011D90B4EE67BAF1EE10FA14D194F9503094F80A
S31508011DA0400094F841E094F8426094F8435094F85E
S31508011DB0441094F8452094F846B094F8474007EE45
S31508011DC0103AFFE5F3EE087AF4EE67BAF1EE10FA87
S31508011DD014D194F94F3094F8380094F839E094F80E
S31508011DE03A6094F83B5094F83C1094F83D2094F8E6
S31508011DF03EB094F83F4007EE103AE3E594F94E30C9
S31508011E0094F8300094F831E094F8326094F833503D
S31508011E1094F8341094F8352094F836B094F837408D
S31508011E2007EE103ACEE500BF2DE9F04F83B005461F
S31508011E30DDF83890DDF834802A4C16460F469A4666
S31508011E40D9E900010022284B16F026FA0123C9E92F
S31508011E5000018AF800303A68244901931A440A6055
S31508011E603A603778384616F053FBD8F80020DFF881
S31508011E7084E0019BCEF80020C4E900012A602F7195
S31508011E8096F807E085F805E096F801C085F806C0DA
S31508011E9096F8028085F8078096F8039085F80890E9
S31508011EA096F804A085F809A096F805B0104C85F8AF
S31508011EB00AB0B679EE7218461146234608222770EB
S31508011EC084F805B084F804A084F8039084F80280A5
S31508011ED084F801C0A67184F807E003B0BDE8F04FA5
S31508011EE00FF0E2BED0C000200000F03FC0C10020C4
S31508011EF018070020B4BB00204B780BB901234B709F
S31508011F000B7833B100230B7003701946032011F0C7
S31508011F10DBBD01230B7003701946032011F0D4BDF4
S31508011F200B791BB10023437483740B714B7843B14E
S31508011F30CB7813B10023C371CB708B7843B90023D7
S31508011F404B700023C3714374837183740B7070479C
S31508011F5000238B70F3E700BF2DE9F04FA5B01146BA
S31508011F601A462F9B0B93319B1E93329B3B9C1293D4
S31508011F70339B0E931394349B3D9C20932294359B5B
S31508011F803E9C21932394369B3F9C1093179438AB20
S31508011F90409CDDF8B8A0DDF8C0B0379DDDF8F090BB
S31508011FA01894C8CB419C1F94429C1994439C1A943B
S31508011FB0449C1694459C1B94469C1C94479C1D94D2
S31508011FC000286AD09BF8000010B901208BF80000A0
S31508011FD093ED007BCDE90C127D4B002251EC170BDA
S31508011FE08DED147B16F072FD804600285DD09BF8B6
S31508011FF0043033B100238AF811308AF812308BF88D
S3150801200004309BF8013013B901238BF80130129B78
S31508012010188816F08DFA02460B46DDE90C01CDE962
S315080120200E2316F053FD002800F0A7801C9B0026FE
S315080120308AF80060D3E900890022664B4046494682
S3150801204016F06CFD002840F0A2810022624B404642
S31508012050494616F059FD00240025002800F0F082B3
S3150801206029F000452946404615F0F6FE02460B467C
S3150801207040462946CDE9102316F00CF900220446FC
S315080120800D4600234046494616F02AFD4FF0010643
S3150801209000B90646F601F6B27FE19BF80030002B3F
S315080120A040F08E8025B0BDE8F08F169B0993139BEF
S315080120B00793109B03930E9B0293129B01930B9B11
S315080120C0CDF820900BF1040280330092069705960D
S315080120D00495DDE90C010AF11102FDF7AFFF9BF842
S315080120E00130002BDED09BF803301BB18AF807803C
S315080120F08BF803809BF8023013B100238BF802306A
S3150801210000238AF807308AF806308BF8013025B0A3
S31508012110BDE8F08FDFF8BC900026002400254FF0BB
S3150801212000080B9F8AF8086040464946D7E91C23F0
S3150801213016F064FAD7E91A238046894620462946C5
S3150801214016F086FB0022002304460D4616F0C8FC4D
S31508012150002840F0A5822046294615F07DFE044652
S315080121600D464946404616F021FD294606442046B5
S3150801217016F01CFD30448AF80500DDE90E23DDE979
S315080121800C0116F0ADFC48BB9BF8033023B10023C4
S315080121908AF807308BF80330DDE90E23DDE90C01F7
S315080121A016F09EFC002840F083809BF80230002B35
S315080121B03FF478AF00238AF806308BF8023071E7CE
S315080121C05946504625B0BDE8F04FFFF7A9BE00BFF6
S315080121D00000F03F00001440000014C01799A04BFE
S315080121E00022D1E9000116F085FC9BF8033000288E
S315080121F000F0C98013B901238BF80330129B1888A4
S3150801220016F086F90022974B16F046F8DDE90C23FD
S3150801221016F040F80022002304460D4616F056FC37
S31508012220002800F021821F9B1C78179BE401E4B269
S315080122308AF80F40D3E9000116F0B8FC0001C5B2CF
S315080122401E9B8AF81050D3E9000116F0AFFC2099BD
S31508012250229A2044284408709AF805304B709AF857
S3150801226001308B709AF80230CB709AF803300B71F3
S315080122709AF804304B719AF800308B719AF800304D
S31508012280CB710B9BDB6F1360129B188816F040F914
S31508012290DDE90C2315F0FEFF0022002304460D4656
S315080122A016F014FC002800F06E8201238AF8073024
S315080122B018996B4B0022D1E9000116F01BFC002886
S315080122C03FF473AF9BF8023013B901238BF8023040
S315080122D0129B188816F01CF90022624B15F0DCFFD8
S315080122E0DDE90C2315F0D6FF0022002304460D462E
S315080122F016F0ECFB002800F0A9811F9B1878189BA3
S31508012300C001C5B28AF80D50D3E9000116F04EFC9A
S315080123100001C4B21E9B8AF80E40D3E9000116F0EB
S3150801232045FC2199239A2044284408709AF80530D7
S315080123304B709AF801308B709AF80230CB709AF884
S3150801234003300B719AF804304B719AF800308B718F
S315080123509AF80030CB710B9B9B6F1360129B188800
S3150801236016F0D6F8DDE90C2315F094FF00220023B8
S3150801237004460D4616F0AAFB002800F0F481012355
S315080123808AF806308EE6002B7FF401AF90E79FEDC1
S31508012390327B8DED107B002400250B9F8AF80C609B
S315080123A0D7E90423DDE9100116F028F9D7E9022354
S315080123B0804689462046294616F04AFA0022002315
S315080123C004460D4616F08CFB002840F06281204633
S315080123D0294615F041FD04460D464946404616F084
S315080123E0E5FB29460644204616F0E0FB1B9B3044D4
S315080123F08AF80100D3E9006700221B4B30463946AB
S3150801240016F08CFBA0BB0022184B3046394616F055
S315080124107BFB00240025002800F0068127F00045F3
S315080124203046294615F018FD02460B468046894670
S315080124303046294615F02EFF002204460D46304641
S315080124400023394616F04CFB4FF0010600B9064643
S31508012450F601F6B213E000BF0000000000001440C8
S3150801246000001C400000F03F00002440000024C08A
S31508012470DFF860930026002400254FF000080B9F23
S315080124808AF80B6040464946D7E90A2316F0B6F89A
S31508012490D7E90823804689462046294616F0D8F901
S315080124A00022002304460D4616F01AFB002840F0C8
S315080124B053812046294615F0CFFC04460D46494668
S315080124C0404616F073FB29460644204616F06EFB75
S315080124D01A9B30448AF80200D3E900670022B84BF8
S315080124E03046394616F01AFB002800F00E81DDE960
S315080124F014890026002400250B9F8AF80A604046A5
S315080125004946D7E9102316F079F8D7E90E2380460C
S3150801251089462046294616F09BF9002200230446DF
S315080125200D4616F0DDFA002840F0E88020462946D7
S3150801253015F092FC04460D464946404616F036FB10
S3150801254029460644204616F031FB199B30448AF881
S315080125500300D3E900670022994B3046394616F045
S31508012560DDFA002800F0A3800026002400250B9F31
S315080125708AF80960D7E91623DDE9140116F03EF851
S31508012580D7E91423804689462046294616F060F97C
S315080125900022002304460D4616F0A2FA002871D13E
S315080125A02046294615F058FC04460D46494640463C
S315080125B016F0FCFA29460644204616F0F7FA1D9B42
S315080125C030448AF80400D3E9006700227D4B30467F
S315080125D0394616F0A3FA00287FF49CAD00227A4BFF
S315080125E03046394616F090FA0024002510B327F034
S315080125F000453046294615F02FFC02460B46804613
S3150801260089463046294615F045FE002204460D4600
S3150801261030460023394616F063FA4FF0010600B931
S315080126200646F601F6B27CE54FF00008DFF8A491FC
S31508012630802624E74FF00008DFF88891802670E5A8
S315080126409FED5D7B80268DED107BA6E600225F4B14
S3150801265020462946FDF758FD0022002316F036FAD2
S3150801266000283FF47BAE48E60022564B2046294611
S31508012670FDF74AFD0022002316F028FA00283FF448
S3150801268003AED0E52046294615F05EFB04460D4605
S315080126908CE72046294615F057FB04460D469CE66D
S315080126A02046294615F050FB04460D4659E50022F9
S315080126B0474B3046394616F027FA002400250028EC
S315080126C075D027F000453046294615F0C5FB024668
S315080126D00B4630462946CDE9142315F0DBFD0022C9
S315080126E004460D4630460023394616F0F9F94FF0EF
S315080126F0010600B90646F601F6B238E7204629462C
S3150801270015F022FB04460D4616E70022304B3046EB
S31508012710394616F0F9F900240025002843D027F098
S3150801272000453046294615F097FB02460B4680467A
S3150801273089463046294615F0ADFD002204460D4668
S3150801274030460023394616F0CBF94FF0010600B999
S315080127500646F601F6B2CFE62046294615F0F4FA02
S3150801276004460D46ABE60022184B20462946FDF7DE
S31508012770CBFC0023002216F0A9F94FF0010300B99A
S315080127800346DBB2FCE500220E4B20462946FDF73F
S31508012790BBFC0023002216F099F94FF0010300B99A
S315080127A00346DBB282E5DDE914898026A4E68026A4
S315080127B0DDE600BFAFF30080000000000000144012
S315080127C00000F03F00001440000014C00000204043
S315080127D00000F0BF000024402DE9F843089D0A9C3B
S315080127E0002800F0E580217809B9012121701F46EA
S315080127F00C9B1888164615F09BFE804689460246AC
S315080128000B463046394616F061F920B100232B7084
S315080128100F9B1B786B7042464B463046394616F07D
S315080128205FF9002800F0E5801299964B0022D1E95C
S31508012830000116F05FF9A378002800F0C9800BB9EA
S315080128400123A3700C9B188815F062FE00228E4B9B
S3150801285015F022FD32463B4615F01CFD00220023E9
S315080128608046894616F032F9002800F0FC80149B50
S3150801287093F80080129B4FEAC8185FFA88F885F822
S315080128800680D3E9000116F091F900015FFA80F993
S315080128900B9B85F80790D3E9000116F087F90D9B84
S315080128A00D9A4044484418706B7853702B7893708E
S315080128B02B78D3702B7813712B7853712B789371EE
S315080128C02B78D371099B109A5B6813600C9B188847
S315080128D015F01EFE32463B4615F0DCFC00220023AD
S315080128E08046894616F0F2F8002800F0AB800123ED
S315080128F0EB701399634B0022D1E9000116F0FAF83F
S31508012900002872D063780BB9012363700C9B188871
S3150801291015F0FEFD00225C4B15F0BEFC32463B4627
S3150801292015F0B8FC002200238046894616F0CEF839
S3150801293000287AD0149B1878139BC0015FFA80F897
S3150801294085F80480D3E9000116F030F90001C4B214
S315080129500B9B6C71D3E9000116F028F90E9B0E9AB0
S315080129602044404418706B7853702B7893702B78F9
S31508012970D3702B7813712B7853712B7893712B782D
S31508012980D371099B119A1B6813600C9B188815F063
S31508012990BFFD32463B4615F07DFC00220023064664
S315080129A00F4616F093F880B30123AB70BDE8F883A0
S315080129B02378E3B1A3780BB1E870A07063780BB103
S315080129C0002363700023EB70AB702370BDE8F883B6
S315080129D0002B8ED00023EB70A37042464B4630463F
S315080129E0394616F07DF8002883D1637843B9BDE8E6
S315080129F0F883A378002BF0D00023EB70A370ECE7E3
S31508012A000023AB706370BDE8F88300221F4B304684
S31508012A103946FDF779FB0023002216F057F84FF0E7
S31508012A20010300B90346DBB2BFE70022174B404654
S31508012A304946FDF769FB0022002316F047F80028EE
S31508012A40A3D077E70022124B40464946FDF75CFBC7
S31508012A500023002216F03AF84FF0010300B90346A5
S31508012A60DBB2EB7045E70022094B40464946FDF7C4
S31508012A704BFB0022002316F029F800283FF426AF65
S31508012A80F5E600BF00001C400000F03F00002040B2
S31508012A9000001440F0B585B00EAC70CC002830D0DB
S31508012AA0287808B9012028701846174600295FD1E9
S31508012AB0AB78002B4DD1002F4FD16B78002B45D128
S31508012AC0A37D002B2DD0637D3370A37B7370E37BCD
S31508012AD0B370237CF370637C3371A37C7371E37CDD
S31508012AE0B371237DF371A37D002B2DD1237A003396
S31508012AF018BF012313990B70119B01221A7005B097
S31508012B00F0BD2B78002BFAD0AB780BB1A075A87065
S31508012B106B7813B1002323726B7000232B7005B0F9
S31508012B20F0BDE3793370237873706378B370A37853
S31508012B30F370E3783371237973716379B371A37988
S31508012B40F371A37D002BD1D00123D3E727726F70D0
S31508012B50B6E7A175A970002FAFD0129B0293013574
S31508012B6001950094DDE90C230A98FDF773FCA7E7A4
S31508012B7004F10E02129B0293A91C00920191DDE950
S31508012B800C23FDF715FC96E72DE9F04FA9B033990B
S31508012B90119135991D9138991491399921913A993B
S31508012BA023913B9922913C9924913D9915913E99FE
S31508012BB01C913F991E9140991691419918914399F3
S31508012BC0329C349DDDF8D8A0DDF8DCB0DDF808913B
S31508012BD01A9100284DD0297809B901212970CDE922
S31508012BE01223149BB3F80080404615F0A1FCDDE9D9
S31508012BF0122306460F4615F091FF00284BD10023F4
S31508012C00209300231F9330463946DDE9122315F038
S31508012C105DFF002858D1E3782593237826936378B6
S31508012C202793209B94F804B06779A079A278002BA2
S31508012C3040F0C181AB7883B1209AA273AA70149B24
S31508012C4094F804B0B3F80080E378259323782693A3
S31508012C5067796378A079A27827931F9B002B40F0A8
S31508012C601A826B7813B11F9AE2726A7029B0BDE8AD
S31508012C70F08F2B78002BF9D0AB780BB1A073A87025
S31508012C806B780BB100236B700023A373E3722B706F
S31508012C9029B0BDE8F08F15990A4B0022D1E9000148
S31508012CA015F028FF011C18BF012120911C99054B1D
S31508012CB00022D1E9000115F01DFF0028A1D001234A
S31508012CC01F93A0E700001C409BF800302370269351
S31508012CD000269AF800306370A670D9E9008927930F
S31508012CE00022C74B4046494615F018FF002800F058
S31508012CF08B81DFF80CB3B046002700264FF0000A97
S31508012D00119B84F80A80D3E904235046594615F0E5
S31508012D1075FC119B8246D3E9022330468B46394618
S31508012D2015F096FD0022002306460F4615F0D8FE3B
S31508012D30002840F0E9813046394615F08DF80646F7
S31508012D400F465946504615F031FF394680443046FC
S31508012D5015F02CFF4044C3B2E37025931A9BD3E9BF
S31508012D6000670022A64B3046394615F0D7FE0028E3
S31508012D7040F07F810022A34B3046394615F0C4FE48
S31508012D80002800F0E281002200233046394615F07A
S31508012D90A7FE4FF0010A002800F0E68127F0004956
S31508012DA03046494615F058F8B04602460B460646DF
S31508012DB00F464046494615F06DFACDE91A014FEA24
S31508012DC0CA1A5FFA8AFA3046119E84F809A0D6E92A
S31508012DD00A23394615F012FCD6E9082380468946A6
S31508012DE0DDE91A0115F034FD0022002306460F46D7
S31508012DF015F076FE002840F072813046394615F006
S31508012E002BF806460F464946404615F0CFFE394689
S31508012E108244304615F0CAFE50445FFA80FB189B7F
S31508012E2084F804B0D3E900670022754B3046394669
S31508012E3015F074FE002840F025810022714B3046BA
S31508012E40394615F061FE002800F06581002200234D
S31508012E503046394615F044FE4FF0010A002800F0C5
S31508012E607F8127F000493046494614F0F5FFB04600
S31508012E7002460B4606460F464046494615F00AFAEB
S31508012E80CDE918014FEACA1A5FFA8AFA3046119E45
S31508012E9084F808A0D6E91023394615F0AFFBD6E920
S31508012EA00E2380468946DDE9180115F0D1FC00227A
S31508012EB0002306460F4615F013FE002840F01D8133
S31508012EC03046394614F0C8FF06460F46494640467D
S31508012ED015F06CFE39468244304615F067FE5044BB
S31508012EE0C7B2169B6771D3E900890022444B404655
S31508012EF0494615F013FE002840F0B1800022414BE7
S31508012F004046494615F000FE002800F00D810022D2
S31508012F1000234046494615F0E3FD4FF00106002817
S31508012F2000F01C8129F00043CDF858801793DDE99C
S31508012F30160114F091FF02460B4680468946DDE9E3
S31508012F40160115F0A7F9CDE91801F601F6B2119B9C
S31508012F50E671D3E916234046494615F04FFB119B06
S31508012F60CDE91601D3E91423DDE9180115F070FC42
S31508012F70002200238046894615F0B2FD002840F05C
S31508012F80B5804046494614F067FF80468946DDE923
S31508012F90160115F00BFE49460644404615F006FE95
S31508012FA03044149BC0B2A071B3F80080209B002264
S31508012FB0002B3FF43FAE1E9B0E93159B0D93119B61
S31508012FC0069203F16401229B0C93219B0B931D9B93
S31508012FD00A93279B0593269B0493259B0390AE1C76
S31508012FE004F10E0E01930297CDF800B04046DDE9D3
S31508012FF0122309960891CDF81CE0FDF77DFA1EE625
S3150801300000001440000014C000225B4B40464946AC
S3150801301015F07AFD00260027002800F08F8029F098
S3150801302000474046394614F017FF02460B468246CA
S315080130308B464046394615F02DF9002206460F46BD
S3150801304040460023494615F04BFD4FF0010800287C
S3150801305000F088804FEAC8185FFA88F850E69FEDB5
S31508013060447B4FF000088DED187BDFF810910026A0
S315080130706DE79FED3F7B00268DED1A7B3F4F4FF0A5
S31508013080000AA0E69FED3A7B00268DED187B3B4FA3
S315080130904FF0000AFAE6119B389260333A931E9B69
S315080130A040931C9B3F93249B3E93239B3D931D9BDF
S315080130B03C93279B3793269B3693259B3393DDE9D0
S315080130C0122301350B34359040463B953994349794
S315080130D0CDF8C8B029B0BDE8F04FFDF7A5BA30461E
S315080130E0394614F031FE06460F468CE640464946F7
S315080130F014F02AFE8046894649E73046394614F0D7
S3150801310023FE06460F46E1E63046394614F01CFE14
S3150801311006460F4615E69FED167B00268DED187BB4
S31508013120164F4FF0800AB1E69FED117B4FF000086C
S315080131308DED187BDFF84490802608E74FF0000AEA
S31508013140DFF838B04FF08008DAE59FED097B0026F5
S315080131508DED1A7B094F4FF0800A34E60646E1E603
S3150801316082467EE6804675E7824617E6AFF300801B
S315080131700000000000000000000014C00000144018
S315080131800B791BB10023437383730B714B7843B1DE
S31508013190CB7813B100234371CB708B7843B90023E5
S315080131A04B70002343714373037183730B7070472C
S315080131B000238B70F3E700BF2DE9F04F9DB02EACCD
S315080131C0299912912A990B912B990E912C9918915B
S315080131D02D991991319910913299139134991A911E
S315080131E035991B9136991591379916913899DDF8C4
S315080131F098A0DDF89CB0289FDDF8CC90179170CC8B
S3150801320039991491002800F09F80397809B901216C
S3150801321039701299CDE90C23D1E900010022B64B88
S3150801322015F054FC8046002800F095803B792BB1B7
S3150801323000238AF80D308AF80E303B717B780BB97A
S3150801324001237B700B9B188815F072F902460B4611
S31508013250DDE90C01CDE90E2315F038FC002800F054
S315080132601981A64B00268AF80060D3E90089002255
S31508013270A34B4046494615F051FC002800F07582DB
S315080132809FED997B8DED107B002400258AF8086057
S31508013290DBE90423DDE9100115F0B0F9DBE90223C6
S315080132A0804689462046294615F0D2FA002200238F
S315080132B004460D4615F014FC002840F07D82204690
S315080132C0294614F0C9FD04460D464946404615F0FF
S315080132D06DFC29460644204615F068FC894B3044A6
S315080132E08AF80100D3E900890022874B40464946FE
S315080132F015F014FC00285DD10022844B404649464E
S3150801330015F002FC00240025002800F0D78129F0D9
S3150801331000452946404614F09FFD02460B464046A5
S315080133202946CDE9102314F0B5FF002204460D46BF
S3150801333000234046494615F0D3FB4FF0010600B974
S315080133400646F601F6B23CE03B78002B40F0C28017
S315080133501DB0BDE8F08F149B0993139B0793109B2F
S3150801336006930E9B02933A1D0B9B019300920BF158
S315080133705003CDF82090059604950394DDE90C01D8
S315080133800AF10D02FCF75AFE7B78002BE0D0FB7898
S315080133901BB18AF8058087F80380BB780BB1002337
S315080133A0BB7000238AF805308AF804307B701DB09B
S315080133B0BDE8F08F9FED4E7B8DED107B0026002436
S315080133C000258AF80760DBE90A23DDE9100115F013
S315080133D015F9DBE90823804689462046294615F072
S315080133E037FA0022002304460D4615F079FB00281A
S315080133F040F085812046294614F02EFD04460D46E7
S315080134004946404615F0D2FB29460644204615F0A2
S31508013410CDFB3F4B30448AF80200D3E900890022EC
S31508013420374B4046494615F079FB002800F075816F
S315080134309FED2D7B8DED107B0026002400258AF853
S315080134400660DBE91023DDE9100115F0D7F8DBE9A1
S315080134500E23804689462046294615F0F9F90022A9
S31508013460002304460D4615F03BFB002840F04E812B
S315080134702046294614F0F0FC04460D4649464046C6
S3150801348015F094FB29460644204615F08FFB304477
S315080134908AF80300DDE90E23DDE90C0115F020FBAE
S315080134A0002837D1FB781BB100238AF80530FB7059
S315080134B0DDE90E23DDE90C0115F012FB002840F0C9
S315080134C09180BB78002B3FF443AF00238AF8043080
S315080134D0BB703DE7394650461DB0BDE8F04FFFF7D2
S315080134E04FBE00BFAFF30080000000000000F03FB0
S315080134F00000000000002440000010407000002079
S315080135000000F03F4000002000002440000024C0D5
S31508013510080000201599C44B0022D1E9000115F0D5
S31508013520E9FAFB78002800F0C5800BB90123FB7086
S315080135300B9B188814F0ECFF0022BC4B14F0ACFE70
S31508013540DDE90C2314F0A6FE0022002304460D46ED
S3150801355015F0BCFA002800F0B780179B1C78159B5C
S31508013560E401E5B28AF80B50D3E9000115F01EFB18
S315080135700001C4B2129B8AF80C40D3E9000115F088
S3150801358015FB2C4418991A9A204408709AF80330A6
S315080135904B709AF801308B709AF80230CB709AF812
S315080135A000300B719AF800304B719AF800308B7124
S315080135B09AF80030CB71DBF84C3013600B9B1888F6
S315080135C014F0A6FFDDE90C2314F064FE00220023A3
S315080135D004460D4615F07AFA002800F00481012305
S315080135E08AF805301699904B0022D1E9000115F0A9
S315080135F081FA00283FF465AFBB780BB90123BB708C
S315080136000B9B188814F084FF0022884B14F044FEA3
S31508013610DDE90C2314F03EFE0022002304460D4684
S3150801362015F054FA00285DD0179B1C78169BE40107
S31508013630E5B28AF80950D3E9000115F0B7FA000195
