S01F00002E2E2F48414E636F6465725F453430375F475453796E632E73726563C0
S31508004000DC8500206D6A0108000000000000000041
S315080040100000000000000000000000000000000092
S3150800402000000000000000000000000055370108ED
S315080040300000000000000000F137010841380108BF
S315080040400000000000000000000000000000000062
S315080040500000000000000000000000000000000052
S31508004060000000007545010800000000000000007F
S315080040700000000000000000000000000000000032
S31508004080000000000000000000000000292B0108C5
S31508004090E12A0108052B01084D2B01080000000044
S315080040A0614501084D4501083945010829450108BA
S315080040B01545010801450108ED4401080000000006
S315080040C000000000000000000000000000000000E2
S315080040D000000000894F0108A14F0108B94F0108E7
S315080040E000000000000000008550010800000000E4
S315080040F0D9440108C5440108B54401080000000078
S3150800410000000000E94F0108000000000000000060
S315080041100000000000000000000000000000000091
S31508004120000000000000000000000000ED4F01083C
S3150800413000000000A545010800000000B92B010891
S31508004140712B0108952B0108DD2B0108B5500108D4
S31508004150000000000000000000000000D14F010828
S315080041600000000000000000000000000000000041
S315080041700000000000000000000000000000000031
S311080041800000000000000000EE11AA5527
S3150800C000000001010100010001010000000100011A
S3150800C0106464640048414E636F6465725F453430FA
S3150800C020375F475453796E635F736F6674776172CF
S3150800C0306549445F76315F3238303532315F3231A7
S3150800C0403434323848414E636F6465725F45343024
S3150800C050375F475453796E632E630000417070430F
S3150800C06074726C5461736B00200000000014024067
S3150800C07008000900200000000014024010000E000D
S3150800C080200000000014024020000F0020000000DD
S3150800C0900014024040000400200000000014024082
S3150800C0A08000050020000000001402400001060080
S3150800C0B020000000001402400002070020000000D3
S3150800C0C000140240000408000400000000080240B2
S3150800C0D001000A00040000000008024004000C00E9
S3150800C0E0414443636F6E76657273696F6E5461730C
S3150800C0F06B0000002E2E2F626C6F636B7365742FB6
S3150800C1007274772F53544D33322F7372632F6865C9
S3150800C11061705F342E630000546D724370754C6F06
S3150800C120616400002E2E2F626C6F636B7365742F2B
S3150800C1307274772F53544D33322F7372632F746191
S3150800C140736B732E6300000049444C4500000000E1
S3150800C1502E2E2F626C6F636B7365742F7274772F34
S3150800C16053544D33322F7372632F74696D6572732E
S3150800C1702E630000546D72205376630000640040FD
S3150800C1800000000208000000000C02400100000048
S3150800C19008000000000C02400200010009131415F3
S3150800C1A016000000006800400000000402000000BD
S3150800C1B000040240200005000200000000040240BE
S3150800C1C040000600093F404142000000010102010B
S3150800C1D00202020202030202040202030303040328
S3150800C1E003050303060303050404060404070404FD
S3150800C1F008040407050508050508060508070508CF
S3150800C2000706080806080807080808002E2E2F62E1
S3150800C2106C6F636B7365742F7274772F53544D3339
S3150800C220322F7372632F53544D33325F4534303790
S3150800C2302F63616E2E63000043616E4576656E74EA
S3150800C2405461736B0000000043616E5472616E7333
S3150800C2506D69745461736B002E2E2F626C6F636B5D
S3150800C2607365742F7274772F53544D33322F73724C
S3150800C270632F53544D33325F453430372F6D616326
S3150800C2802E6300004D61634E65745461736B000044
S3150800C290457643686E6C3100457643686E6C3200AD
S3150800C2A0457643686E6C33002E2E2F626C6F636B77
S3150800C2B07365742F7274772F53544D33322F7372FC
S3150800C2C0632F53544D33325F453430372F706F72B6
S3150800C2D0742E630000000140010000000201000006
S3150800C2E010000000001002400002090010000000C3
S3150800C2F00010024000080B00000400400200000085
S3150800C3000102000001000000000002404000060093
S3150800C310020000000004024020000500000800405A
S3150800C320040000000102000008000000000C0240A2
S3150800C33000100C0008000000000C024000200D0050
S3150800C340000401400200000002030000040000008F
S3150800C35000080240400006000400000000080240F1
S3150800C36080000700000001400100000002011900DA
S3150800C370000000400100000001021C00000400400B
S3150800C3800200000001021D00000800400400000031
S3150800C39001021E00000401400200000002012C00F8
S3150800C3A0004001400000010002011800004401405D
S3150800C3B000000200020119000048014000000400C4
S3150800C3C002011A00001C00408000000001022C0037
S3150800C3D0002000400001000001022D0004000000BA
S3150800C3E0000802400100000020000000001402407E
S3150800C3F040000000200000000014024080000000F9
S3150800C4002000000000140240000100002000000087
S3150800C4100014024000020000200000000014024040
S3150800C4200004000002000000000402408000000032
S3150800C4300200000000040240400000001000000056
S3150800C4400010024004000000100000000010024026
S3150800C450100000001000000000100240200000003C
S3150800C46010000000001002404000000040000000DC
S3150800C470001802408000000040000000001802403A
S3150800C48000010000400000000018024000100000F3
S3150800C4904000000000180240008000000100000073
S3150800C4A000000240100000000200000000040240E4
S3150800C4B020000000010000000000024040000000CB
S3150800C4C001000000000002402000000008000000F3
S3150800C4D0000C02400100000008000000000C0240A9
S3150800C4E00200000008000000000C024004000000E2
S3150800C4F008000000000C02400800000008000000C8
S3150800C500000C02401000000008000000000C024069
S3150800C5102000000008000000000C02404000000057
S3150800C52008000000000C024080000000080000001F
S3150800C530000C02400001000008000000000C024048
S3150800C5400002000008000000000C02400004000081
S3150800C55008000000000C0240000800000800000067
S3150800C560000C02400010000008000000000C024009
S3150800C5700020000008000000000C024000400000F7
S3150800C58008000000000C02400080000010000000B7
S3150800C59000100240010000001000000000100240D8
S3150800C5A00200000010000000001002400800000011
S3150800C5B0100000000010024080000000100000007B
S3150800C5C000100240000100001000000000100240A8
S3150800C5D000020000100000000010024000040000E5
S3150800C5E010000000001002400008000010000000C3
S3150800C5F00010024000100000100000000010024069
S3150800C600002000001000000000100240004000005A
S3150800C610100000000010024000800000200000000A
S3150800C620001402400100000020000000001402402F
S3150800C6300200000020000000001402400400000070
S3150800C640200000000014024008000000200000003E
S3150800C65000140240100000002000000000140240F0
S3150800C660200000002000000000140240000800001E
S3150800C6702000000000140240001000002000000006
S3150800C68000140240002000002000000000140240B0
S3150800C6900040000020000000001402400080000056
S3150800C6A040000000001802400100000040000000A1
S3150800C6B00018024002000000400000000018024076
S3150800C6C004000000400000000018024008000000B6
S3150800C6D04000000000180240100000004000000062
S3150800C6E00018024020000000400000000018024028
S3150800C6F04000000040000000001802400002000050
S3150800C700400000000018024000040000400000003D
S3150800C710001802400008000040000000001802400F
S3150800C7200020000040000000001802400040000001
S3150800C73001000000000002400100000004000000A3
S3150800C740000802400100000020000000001402401A
S3150800C7504000000020000000001402408000000095
S3150800C7602000000000140240000100002000000024
S3150800C77000140240000200002000000000140240DD
S3150800C78000040000020000000004024080000000CF
S3150800C79002000000000402404000000010000000F3
S3150800C7A000100240040000001000000000100240C3
S3150800C7B010000000100000000010024020000000D9
S3150800C7C01000000000100240400000004000000079
S3150800C7D000180240800000004000000000180240D7
S3150800C7E00001000040000000001802400010000090
S3150800C7F04000000000180240008000000100000010
S3150800C8000000024010000000020000000004024080
S3150800C8102000000001000000000002404000000067
S3150800C820010000000000024020000000080000008F
S3150800C830000C02400100000008000000000C024045
S3150800C8400200000008000000000C0240040000007E
S3150800C85008000000000C0240080000000800000064
S3150800C860000C02401000000008000000000C024006
S3150800C8702000000008000000000C024040000000F4
S3150800C88008000000000C02408000000008000000BC
S3150800C890000C02400001000008000000000C0240E5
S3150800C8A00002000008000000000C0240000400001E
S3150800C8B008000000000C0240000800000800000004
S3150800C8C0000C02400010000008000000000C0240A6
S3150800C8D00020000008000000000C02400040000094
S3150800C8E008000000000C0240008000001000000054
S3150800C8F00010024001000000100000000010024075
S3150800C90002000000100000000010024008000000AD
S3150800C9101000000000100240800000001000000017
S3150800C9200010024000010000100000000010024044
S3150800C9300002000010000000001002400004000081
S3150800C940100000000010024000080000100000005F
S3150800C9500010024000100000100000000010024005
S3150800C96000200000100000000010024000400000F7
S3150800C97010000000001002400080000020000000A7
S3150800C98000140240010000002000000000140240CC
S3150800C990020000002000000000140240040000000D
S3150800C9A020000000001402400800000020000000DB
S3150800C9B0001402401000000020000000001402408D
S3150800C9C020000000200000000014024000080000BB
S3150800C9D020000000001402400010000020000000A3
S3150800C9E0001402400020000020000000001402404D
S3150800C9F000400000200000000014024000800000F3
S3150800CA00400000000018024001000000400000003D
S3150800CA100018024002000000400000000018024012
S3150800CA200400000040000000001802400800000052
S3150800CA3040000000001802401000000040000000FE
S3150800CA4000180240200000004000000000180240C4
S3150800CA5040000000400000000018024000020000EC
S3150800CA6040000000001802400004000040000000DA
S3150800CA7000180240000800004000000000180240AC
S3150800CA80002000004000000000180240004000009E
S3150800CA90040000000008024000200000100000000A
S3150800CAA00010024000020000020002000100090016
S3150800CAB010000000001002400008000104002000D9
S3150800CAC001000B00100000000010024000200002C8
S3150800CAD00800000201000D001000000000100240CE
S3150800CAE0004000031000002001000E0001000000B5
S3150800CAF000000240200001000200020001000500BB
S3150800CB00010000000000024040000200020002008E
S3150800CB100200060002000000000402402000020194
S3150800CB20040020000200050008000000000C024076
S3150800CB30001003000200020002000C0008000000BA
S3150800CB40000C0240002003010400200002000D0032
S3150800CB500400000000080240400004000200020031
S3150800CB6003000600040000000008024080000401DB
S3150800CB700400200003000700100000000010024017
S3150800CB802000050002000200030005001000000056
S3150800CB9000100240400005010400200003000600C2
S3150800CBA020000000001402404000060002000200B7
S3150800CBB00300060020000000001402408000070061
S3150800CBC002000200030007002000000000140240D3
S3150800CBD00001080002000200090008002000000009
S3150800CBE000140240000209000200020009000900C0
S3150800CBF0000001400100000002011B000000004087
S3150800CC000100000001021C000004004002000000B0
S3150800CC1001021D00000800400400000001021E0079
S3150800CC20000401400200000002012E0000400140FD
S3150800CC300000010002011800004401400000020043
S3150800CC4002011900004801400000040002011A0010
S3150800CC50001C00408000000001022C00002000405B
S3150800CC600001000001022D00001001401000000024
S3150800CC7002250000020000000004024040000600F1
S3150800CC8002000000000402408000070007000000C0
S3150800CC9000440040000002000126000008000000D1
S3150800CCA0000C02402000050008000000000C0240AD
S3150800CCB0400006000700000000480040000004008D
S3150800CCC00127000008000000000C024000010800CF
S3150800CCD008000000000C02400002090007000000DE
S3150800CCE00014014020000000024700000400000074
S3150800CCF00008024040000600040000000008024048
S3150800CD00800007000800000053544D6963726F6580
S3150800CD106C656374726F6E696373000053544D33A8
S3150800CD2032205669727475616C20436F6D506F724C
S3150800CD307420696E204853206D6F646500000000FA
S3150800CD4053544D3332205669727475616C20436FA3
S3150800CD506D506F727420696E204653204D6F64655E
S3150800CD60000000003030303030303030303530425E
S3150800CD70000000003030303030303030303530434D
S3150800CD800000000056435020436F6E666967000036
S3150800CD9056435020496E74657266616365000000EB
S3150800CDA0100000000010024000020000020002000D
S3150800CDB001000900100000000010024000080001F0
S3150800CDC00400200001000B001000000000100240C3
S3150800CDD0002000020800000201000D0010000000FB
S3150800CDE000100240004000031000002001000E0061
S3150800CDF001000000000002402000010002000200BD
S3150800CE000100050001000000000002404000020089
S3150800CE1002000200020006000200000000040240B0
S3150800CE20200002010400200002000500080000009E
S3150800CE30000C0240001003000200020002000C0071
S3150800CE4008000000000C0240002003010400200036
S3150800CE5002000D0004000000000802404000040023
S3150800CE600200020003000600040000000008024059
S3150800CE7080000401040020000300070010000000E1
S3150800CE800010024020000500020002000300050011
S3150800CE9010000000001002404000050104002000B8
S3150800CEA003000600200000000014024040000600AF
S3150800CEB002000200030006002000000000140240E1
S3150800CEC0800007000200020003000700200000009F
S3150800CED000140240000108000200020009000800D0
S3150800CEE020000000001402400002090002000200AF
S3150800CEF009000900000001400100000002011B00B2
S3150800CF00000000400100000001021C00000400406F
S3150800CF100200000001021D00000800400400000095
S3150800CF2001021E00000401400200000002012E005A
S3150800CF3000400140000001000201180000440140C1
S3150800CF400000020002011900004801400000040028
S3150800CF5002011A00001C00408000000001022C009B
S3150800CF60002000400001000001022D002E2E2F6235
S3150800CF706C6F636B7365742F7274772F53544D33CC
S3150800CF80322F7372632F71756575652E6300000005
S3150800CF9050505000457643686E6C310045764368BC
S3150800CFA06E6C3200457643686E6C330007070700DF
S3140800CFB094CF00089CCF0008A4CF0008040404FF
S315080100000B78FF2B00D070474B78002BFBD100F003
S315080100107DBE00BF08B5012000F026FA034A40F26A
S3150801002067610020BDE8084002F020BF0100010811
S31508010030002000F0F1B800BF704700BF2DE9F84F66
S315080100406C4B6D4C9B78276ADFF8C4B1002B70D0D6
S315080100507E1CCBF8006094F830502662AB06D4F8C3
S315080100602CA05DD445F02005012363F3830584F8AC
S315080100703050F50766D5614A1678BAF1000F06D0F1
S31508010080B6FA86F676090AF1FF331670E362DFF8E7
S3150801009084A11EB19AF80230012B58D194F8305038
S315080100A08AF80260E906A66A33D4DBF80030012231
S315080100B045F0100562F30105DA0784F830503CD49F
S315080100C04F4B1D782EB1B5FA85F56D09013E1D70A8
S315080100D0A6621DB19AF80130012B3CD14CF250337E
S315080100E09F428AF801503FD046F2A8139F420ED18B
S315080100F094F836305BB900220023D4E9020108F0EE
S31508010100C9FF20B1636A3F4A013363621360BDE8E0
S31508010110F88F05F00303012B36D00136A662CFE727
S3150801012005F00C03042B42D00AF1010AC4F82CA0ED
S31508010130A1E73E46CBF800708DE7334B0022C4E9B0
S315080101400423BDE7304B0022C4E9062393E70320C5
S3150801015005F01EFAA2E7032005F01AFA4CF250330D
S315080101609F428AF80150BFD194F836202748531C7C
S31508010170DBB20021022B027084F836302162C6D127
S3150801018084F83610BDE8F88FDFF87C904FF0000848
S31508010190D4E9040142464B4608F07CFFE0B102234C
S315080101A0013663F30105A66284F8305088E7DFF863
S315080101B058904FF00008D4E9060142464B4608F02C
S315080101C069FF88B102230AF1010A63F38305C4F8BA
S315080101D02CA084F830504EE7DBF80030DB077FF5BA
S315080101E06FAFC4E904896BE7F0073FF544AFC4E98B
S315080101F0068940E764760020F875002068760020B5
S3150801020053760020387600200000F03F69760020FA
S315080102106C760020507600202DE9F84F824C206A32
S3150801022008F068FED4E900897DA3D3E900230646D0
S315080102300F464046494608F021FD02460B46304620
S31508010240394694F837A008F04DFF002800F0A2803F
S31508010250764BBAFA8AFAC3E900674FEA5A1A84F85A
S3150801026037A0DFF8FC81DFF8FC9198F8092089F8B6
S3150801027001A0C4E9006798F80A30002A40F0908086
S3150801028094F8346006F1010B5FFA8BFBBBF1010FA1
S3150801029040F29280002B40F0BE809B4694F8355080
S315080102A089F800500135EDB2022D28BF00254720F7
S315080102B004F096FA5E4B1B78002B00F0818000361D
S315080102C05C4B18BF01261E70002800F089805A4B26
S315080102D01870D8ED017A9FED596ADFED596A594EC2
S315080102E0B8EE677AD8ED007AF8EE677AE7EE067A1D
S315080102F067EEA67A17EE900A08F01EFE94ED027BC9
S31508010300514BC6E9000183ED007B00F001FD4F4B1F
S31508010310187000F003FD4E4B18604E4800F000FDC2
S315080103204D4B99F80110186001B10121472004F0DD
S31508010330A1FA98F8093023B940F2011384F834B0C8
S31508010340238798F80A300BB984F8355003226321BC
S31508010350072005F063F8D8F800300133C8F80030F3
S3150801036023B9D8F804300133C8F8043098F80930AD
S315080103700133DBB2092B88BF002388F8093098F8C6
S315080103800A300133DBB2132B88BF002388F80A3001
S31508010390BDE8F88F254B4646C3E900894F4660E715
S315080103A0002B96D194F8355089F800500135EDB2F5
S315080103B0022D28BF00258CE7002B3FF46FAF76E7A7
S315080103C038B100361B4A1C4B18BF01261670187027
S315080103D07FE799F80030174A003318BF01231370D5
S315080103E0154B1A78002A3FF473AF94F83A7094F8CB
S315080103F0381094F83920194E187001EB470102EBB1
S315080104004102B118B25C097A89F8031089F8022009
S3150801041084F83A205DE7934649E700BFAFF30080C9
S31508010420000000000088C340F8750020E075002030
S31508010430390100204C760020507600200000804FBC
S315080104400AD7233C58760020407600206A76002099
S31508010450487600205CC000086076002000C00008CD
S31508010460E87500206476002000B5082185B0402093
S3150801047001F0E0FF012002F083FC2449032004F087
S3150801048017FF0121472004F0C7F90221472004F08C
S3150801049071F91F49072005F0AFF81E49032005F039
S315080104A099F84FF4007000F0A1FA42F2107000F0CA
S315080104B091FA4FF47A7000F019FA002301AA164945
S315080104C00193012002938DF80C3002F045F80128BA
S315080104D004D04FF41971114800F09AFC40F2666293
S315080104E040F26561012002F0A3FD02F0BFFD02F0B2
S315080104F095FD02F0BBFD0A4A0A4901230020107046
S3150801050053709370CB7005B05DF804FB40420F0041
S315080105103D0001083900010820A1070044C0000870
S315080105205076002064760020454B1B78012B00D0BD
S3150801053070472DE9F04143490B78012B96B005D058
S31508010540414803F0BFFA16B0BDE8F0813F4F0023DA
S315080105503A460B705178DEB20332013300296DD069
S315080105600A2BF7D11C461E46394803F0A5FD394921
S31508010570394A0B944FF480634FF4006408914FF4A1
S31508010580005100254FF0806E314809920D934FF4C2
S3150801059080724FF480330E940F91012407A9CDF888
S315080105A01CE0109211930A950C95129514951595C0
S315080105B0139403F019FE2146254803F041FE03F082
S315080105C0F7F901A9204801958DF808408DF80950D9
S315080105D00395049505958DF8186003F0F7F996B11A
S315080105E0DFF87C802C467B5D174803EB430308EB59
S315080105F083030134E4B2997A224603231D4403F0A6
S3150801060017FAB442EFD1002003F024FE012003F0CB
S315080106102FFE012003F03AFE104A0B48136843F4F3
S3150801062000531360012103F05DFA0121064803F026
S315080106304FFA0121044803F0F1F981E7344693E7BB
S315080106403A0100205A010020002201403C01002005
S31508010650106402404C2201406001002000700040F5
S3150801066068C000082DE9F04F9B4B1B6895B0002B1D
S3150801067000F0E980994BA3F11E07BB78002B00F027
S31508010680AD807B78002B00F0A980954B1B78002B59
S3150801069000F0A480904A97F800801568013BDBB208
S315080106A04C2606FB035690364435BB4603E04C35CB
S315080106B0AE4200F0928015F8443C4345F7D1894B88
S315080106C04FF0000906E009F10109B9F10A0F03F132
S315080106D0030305D05A78012AF5D11A784245F2D191
S315080106E0A5F144044C2201A8214608F005FDD5F8D8
S315080106F004C0029BD5F800E04FEACC6003F07842CB
S31508010700824200F09580002200E00A46511CC9B2D7
S3150801071014AF07EB810757F8487C07F0784A8245FA
S31508010720F3D10B296BD902320E29D2B20ED814ABEA
S3150801073003EB82010B4651F8481C43F84C1C13463F
S315080107400E2B02F10102D2B2F1D9029B664A32F8A6
S31508010750191023F07843C1F30B016FF078429942DF
S31508010760119259D900230133DBB214AA02EB830291
S31508010770994652F8482C22F078429142F3D80B2B2D
S3150801078034D90E2B11D8013BDBB24FF00E0A14AA4D
S3150801079002EB8A070AF1FF3A3A465FFA8AFA57F8EC
S315080107A0487C42F8447C9A45F1D10CF1010314AA1C
S315080107B0102B02EB890941EA000C28BF002301A985
S315080107C020464C224C3549F848CC1393CDF848E0DD
S315080107D008F092FCAE427FF46EAF5F463F4B03379B
S315080107E0BB427FF44AAF15B0BDE8F08F0D9A032BD3
S315080107F022F07842C2EB0E0E15D98E44C3E70E9B42
S31508010800023223F078430329D2B29E4415D927F040
S31508010810784ACAEB0E0E8AE70D9A002322F078422F
S31508010820C2EB0E0E9946059A22F078429644AAE73B
S315080108300E9B23F078439E440122069921F07841C4
S31508010840C1EB0E0E73E7264F3B7803EBC30203EBAE
S315080108504200800000F002F91F4B8146186098B3E8
S31508010860204C054604F11E064FF02108A378E3B192
S3150801087094F800E001AA0023D9060133102B42F8A7
S31508010880041FF9D14C22284601A98DF804E0CDF8B8
S31508010890488008F031FC3B7803EBC30203EB4203C3
S315080108A04C3509EB83039D4203D80334B442DDD1A9
S315080108B0E0E60122142142F2030002F0D1FD064BC3
S315080108C0186800F045F9D5E60122142142F2020022
S315080108D002F0C6FDCEE600BF5C0100205A010020E9
S315080108E0380100203C01002060010020034A044B26
S315080108F0A2FB002040091860704700BF1F85EB5115
S315080109000400002070B582B000F018FD02AC084E54
S3150801091044F8040D074D03E02968204600F04CFE13
S31508010920FFF702FE3378002BF6D0FFF79BFEF3E7BD
S31508010930380100200400002008B5FFF7F5FD044B37
S315080109401B781BB1BDE80840FFF78CBE08BD00BF88
S315080109503801002030B583B000F0F0FC02AC054D3B
S3150801096044F8040DFFF764FB2968204600F024FECD
S31508010970F8E700BF0800002010B584B0002400F095
S31508010980E5FF02F049FDFFF745FBFFF7D5FF052215
S315080109902346009203940294019480220849094847
S315080109A000F0EAFA084B039406211A8807480091D1
S315080109B0029401942346064900F0DEFA04B010BDFC
S315080109C0E0C00008050901080C00002055090108C6
S315080109D05CC00008034A044BA2FB002040091860CA
S315080109E0704700BF1F85EB510800002080087F284B
S315080109F0024B96BF802218801A8070470C0000208F
S31508010A00144A00E01A4613688342FBD310B45468AB
S31508010A1011198842416809D04418A3420CD0904262
S31508010A2003605DF8044B18BF1060704721441046F7
S31508010A304418A3425160F2D1074C2468A342EED070
S31508010A4018CB90422144036041605DF8044B18BFFE
S31508010A501060704778010020740100202DE9F041EB
S31508010A60044600F063FC35480368002B48D0344B34
S31508010A701F683C423ED17CB304F108014B071CBFF9
S31508010A8021F007010831002955D0DFF8C080D8F8D0
S31508010A900060B1422ED82B4D2C6803E0236823B1A0
S31508010AA025461C4662689142F8D803689C4221D0C3
S31508010AB0236828682B60531A102B00F1080511D8F2
S31508010AC0B61A00233A4362602360C8F8006000F052
S31508010AD0FDFC2846BDE8F081254600F0F7FC2846CE
S31508010AE0BDE8F0816218104653606160FFF788FF20
S31508010AF06268E5E7002500F0E9FC2846BDE8F081D3
S31508010B001149104E114D736021F0070101F57F520D
S31508010B1030320260536031600A6043F6F0762A6823
S31508010B20074F8B51A2F108034FF000423A604E601D
S31508010B302B6017469DE70D46CFE700BF74010020DD
S31508010B408041002078010020880100201000002043
S31508010B5000283AD038B51D4D50F8043C2A6813428E
S31508010B60044610D050F8081CD9B14FF486711848BC
S31508010B7000F04EF92A6854F8043C134202D054F89E
S31508010B80081C71B138BD40F20B11114800F040F94B
S31508010B9054F8083C002BE8D12A6854F8043C13425F
S31508010BA0F0D023EA020344F8043C00F0BFFB094AEB
S31508010BB054F8041C1368A4F108000B441360FFF7EA
S31508010BC01FFFBDE8384000F081BC70478041002016
S31508010BD0F4C0000810000020014B1868704700BFD8
S31508010BE0100000200C490D484B6870B4C3F5C33397
S31508010BF06422A0330A4E04780A4D02FB03F35B090B
S31508010C00A6FB0323C3F3C7139C422B7038BF03709B
S31508010C1000234B6070BC70479C410020984100201E
S31508010C20C55A7C0A8C41002070B50D46064608F067
S31508010C3047FB0446284608F043FB844201D00020BE
S31508010C4070BD6CB132782B789A42F8D1002303E053
S31508010C50F05CEA5C9042F2D10133DBB29C42F7D8F0
S31508010C60012070BD80B51D4D1D4F1E4B1E481F4EE0
S31508010C7082B000240093012223463C602C706C60EC
S31508010C802C7242F2107100F03FFF30600446E8B161
S31508010C90174A184B002515701D7000F04FFB00957B
S31508010CA002462B462046294600F054FF012805D066
S31508010CB0012214214FF4805002F0D2FB0E4B002280
S31508010CC01A60FFF759FE00F0F9FAFEE7012214212E
S31508010CD04FF4805002F0C4FB3468D9E79C410020E8
S31508010CE088410020E50B010818C10008944100203D
S31508010CF08C4100209841002090410020704700BF98
S31508010D00704700BF02F040BD02F064BD03F070BC3D
S31508010D10014B1878704700BF8C410020FFF75CBF74
S31508010D2070B5054602F030FD114B1C6806467CB1CC
S31508010D302946A068FFF778FF012805D10DE0A068CC
S31508010D40FFF772FF012808D024692946002CF6D13D
S31508010D50304602F03FFD002070BD6468304602F05F
S31508010D6039FD20461CB100F069FD800070BD70BDDB
S31508010D70884100202DE9F041804614200F4614468B
S31508010D80FFF76CFE054630B30023AF60EC602B61BC
S31508010D90C5F8048002F0F8FC124E074602F0F4FC8E
S31508010DA0346802460CB90DE01C462369002BFBD1B9
S31508010DB0104602F00FFD256138462C60BDE8F0416A
S31508010DC002F008BD02F006FD2C6035603846BDE824
S31508010DD0F04102F0FFBC012214214FF4805002F0C9
S31508010DE03FFBD1E788410020074A138801339BB2AC
S31508010DF0092B138005D905490B68002001330B60BF
S31508010E00108003F019BB00BF8441002090410020E7
S31508010E10012214214FF4805002F022BB054B1A78A7
S31508010E20012A00D070471A7A002AFBD15A68013282
S31508010E305A6070479C41002008B502F0A5FC044B96
S31508010E400121002219701A72BDE8084002F0C2BCDD
S31508010E509C410020014B00221A7070479C410020DA
S31508010E6008B5034C2368012BFDD902F081FCF9E78B
S31508010E70E04100200D4B0E4A1968126848609042FD
S31508010E800DD30C4A10B5044610681968043104F0EC
S31508010E9049FE094B1A68944238BF1C6010BD074ABF
S31508010EA010681968043104F03DBE00BFFC420020F9
S31508010EB018430020BC410020140000201C430020D8
S31508010EC0F8B5274B274D284E00221A602A68336841
S31508010ED09A4241D02A682B6812681B6B21499A42AB
S31508010EE02DD9224C224F236803EB830357F823306D
S31508010EF04BB111E02368013B2360236803EB8303AD
S31508010F0057F8233043B92368002BF3D140F25271C5
S31508010F101848FFF77DFFEDE7236803EB83039B0082
S31508010F20F91808334A6852684A601F44BA420CD015
S31508010F30D3682B602A6833689A4209D0F8BD0868D5
S31508010F400968343104F058FDCBE752684A60EFE787
S31508010F50BDE8F840FFF770BFFFF77CFFBAE700BFAF
S31508010F6040430020FC420020144300203C4300205B
S31508010F70E041002024C100082DE9F04F83B00CADF3
S31508010F808A469146984695E8A0080646002800F044
S31508010F90A8800D2D00F288804820FFF75FFD0446E2
S31508010FA0002800F08D80BBF1000F00F0A080C0F88A
S31508010FB030B04FEA89025846A52108F037F909F1F8
S31508010FC08049236B09F1FF3903EB890929F00709E0
S31508010FD00AF1FF330AF10F0104F1330213F9010F84
S31508010FE002F8010F93F9000008B19942F6D10D2DC7
S31508010FF04FF00003AB4604F1040A28BF4FF00D0B6E
S3150801100084F843305046C4F82CB0C4F844B004F010
S3150801101075FD04F1180004F071FDCBF10E03A3610F
S315080110202461646242463146484602F07DFB2060EF
S3150801103007B13C6002F0C0FB454A464E13680133CE
S3150801104013603368002B44D0434F3B6823B3DFF862
S3150801105028814248E26A03680133036004F13401D6
S315080110602046FFF787FE3E4BE06A1A68904288BF22
S31508011070186000EB800008EB8000514604F042FD41
S3150801108002F0ACFB3B681BB13368DB6A9D421CD896
S31508011090012003B0BDE8F08F3368DFF8DC80DB6A36
S315080110A09D4228BF3460D4E740F2ED112D48FFF781
S315080110B0AFFE4820FFF7D2FC044600287FF473AF41
S315080110C04FF0FF3003B0BDE8F08F02F051FB01206D
S315080110D0DFE734601368DFF8A080012B16D01E4FB6
S315080110E0B7E74FF4F6711F48FFF792FE51E74FEA4B
S315080110F0890210460192FFF7B1FC019A2063002884
S315080111007FF45AAF2046FFF723FDD9E7474608F58E
S315080111108C793846143704F0E5FCB945F9D1DFF87E
S315080111205CB0DFF85C900C4F584604F0DBFC48468F
S3150801113004F0D8FC0C4804F0D5FC0C4804F0D2FCA9
S315080111400B4A0C4BC2F800B0C3F8009081E700BF08
S3150801115038430020FC420020C041002020430020E3
S315080111603C43002024C1000800430020A841002078
S31508011170BC4100201C430020E041002024430020FC
S31508011180C8410020F8B504461A4F02F015FB24B3EE
S31508011190251D284604F0E0FCA36A1BB104F11800DA
S315080111A004F0DAFC144E2946304604F0ABFC02F092
S315080111B015FB3B680F4A9C4200D0F8BD0F4B1B68D4
S315080111C08BB90F4930680968884210D00D4B1B68E6
S315080111D02BB10D4B01221A60F8BD3C68D8E7BDE872
S315080111E0F840FFF76DBEBDE8F84002F0C1BA1360DA
S315080111F0F8BD00BFFC420020A8410020C0410020E4
S3150801120038430020F84200204043002010B5044628
S3150801121068B10A4B62699A4201D0002010BDA06AE2
S31508011220074B9842F9D0B0FA80F0400910BD40F258
S3150801123059410448FFF7ECFDEBE700BFA841002040
S315080112400043002024C1000858B370B5174D2B6818
S3150801125098420BD0044602F0AFFA2046FFF7D6FFB4
S31508011260012804D0BDE8704002F0B8BA70BD261D49
S31508011270304604F071FC0E4AE36A11680D488B4248
S3150801128088BF136003EB830300EB8300314604F048
S3150801129039FC2B68E26ADB6A9A42E3D302F068FA00
S315080112A0E0E740F27A410448FFF7B2BDFC4200206C
S315080112B03C430020E041002024C1000830B585B038
S315080112C00024144A0192039402940094234680222E
S315080112D011491248FFF750FE01280BD005460DB1FA
S315080112E005B030BD0E4840F21F5105B0BDE830408B
S315080112F0FFF78EBD00F0E2FB01280546EFD102F0AB
S3150801130043FA084A084B15601C6005B0BDE8304031
S3150801131002F0CCBA1443002048C10008610E010846
S3150801132024C10008C041002018430020024A13685E
S3150801133001331360704700BFF842002010B502F070
S315080113403BFA034B1C6802F049FA204610BD00BF60
S31508011350184300202DE9F04F504B1B6883B0002B32
S315080113607FD14F4B1A6801321A601E68002E56D07B
S315080113704C4B0193019B1B689E426CD34A4DDFF887
S315080113804481DFF84491494F002429E0464B1B6804
S31508011390DB68D3F80CA0DAF804200AF1040B9642AC
S315080113A0584671D304F0D8FBDAF828200AF1180058
S315080113B00AB104F0D1FBDAF82C203B6802EB820073
S315080113C09A42594608EB800088BF3A6004F09AFBB6
S315080113D0D9F80010DAF82C20CB6A9A4228BF0124E2
S315080113E02B681B68002BD1D1019A4FF0FF3313608C
S315080113F0D9F800302E4ADB6A126803EB830358F8E2
S315080114002330022B28BF0124002A32D0294B1B681E
S31508011410002B18BF0124204603B0BDE8F08F224DEA
S315080114202B681B68002B32D1234B2968234A18687D
S315080114302860196013681C49013313602B681B68FF
S31508011440D3B9184B01931A464FF0FF331360019B2A
S315080114501B689E4292D2DFF86C80DFF86C900024FC
S31508011460C6E7134A1368013313600024FFF7BCFC6F
S31508011470CCE7FFF7B9FCC9E70B680A4ADB680192B2
S31508011480DB685B68136075E7019B1A60B0E740F299
S315080114905B610B48FFF7BCFCC6E700BFF8420020BA
S315080114A01843002014000020BC4100203C430020C2
S315080114B0DC410020404300201C430020C441002099
S315080114C024C10008E0410020FC4200202DE9F84F24
S315080114D0304C2368002B53D002F06EF92368013B88
S315080114E023602368002B45D12B4B1B68002B41D069
S315080114F02A4EDFF8B8A02A4DDFF8B490DFF8B48099
S3150801150037461FE0FB68DC6804F1040B04F1180098
S3150801151004F022FB584604F01FFBE36A2A6803EB32
S3150801152083009342594609EB800088BF2B6004F07B
S31508011530E9FAD8F80030E26ADB6A9A4224BF012345
S31508011540CAF800303368002BDCD1164C23686BB11E
S3150801155023685BB10125FFF7FDFE08B1CAF8005003
S315080115602368013B23602368002BF4D1DAF8004095
S31508011570012C0BD0002402F031F92046BDE8F88F82
S3150801158040F25A510848FFF743FCA5E702F0F0F884
S31508011590F1E700BFF842002038430020004300204D
S315080115A03C430020DC41002024C1000840430020C0
S315080115B0E0410020FC42002038B50C4605460028CB
S315080115C034D02CB31C491D480A682B6801320A60BD
S315080115D002689A421C440ED3A3420ED9184B2C60BA
S315080115E01868043004F0B8FA2046FFF743FCFFF701
S315080115F06DFF48B138BDA34201D9A242EED32C6092
S31508011600FFF764FF0028F5D1BDE8384002F0B0B80D
S3150801161040F2BF210B48FFF7FBFB074A074913684E
S315080116202C682C60013313600B68E9E740F2BE2190
S315080116300448FFF7EDFBC4E7F842002018430020F1
S31508011640FC42002024C10008044B1B680BB9FFF7B4
S3150801165037BC034B01221A60704700BFF8420020CD
S315080116604043002070B50E460546C8B10F4C2168A7
S315080116702846183104F056FA2068043004F06CFA4A
S31508011680731C06D00A4B18683044BDE87040FFF752
S31508011690F1BB216807480431BDE8704004F032BA4D
S315080116A040F265710448FFF7B3FBDFE7FC4200200F
S315080116B018430020A841002024C1000870B50E4631
S315080116C0054680B10B4C21682846183104F01AFAF0
S315080116D02068043004F040FA074B18683044BDE826
S315080116E07040FFF7C7BB40F29B710448FFF790FBB8
S315080116F0E8E700BFFC4200201843002024C1000887
S3150801170038B5C368DC684CB304F11805284604F0FB
S3150801171023FA154B1B68E3B9251D284604F01CFA64
S31508011720124AE36A116812488B4288BF136003EBB9
S315080117308303294600EB830004F0E4F90D4BE26AC2
S315080117401B68DB6A9A4223BF0B4B012018600020F5
S3150801175038BD2946094804F0D5F9EFE740F2D171B9
S315080117600748FFF755FBCFE7F84200203C43002026
S31508011770E0410020FC4200204043002000430020B5
S3150801178024C1000810B5044630B1064A064B126852
S315080117901B6884E80C0010BD40F2F7710348FFF797
S315080117A037FBF2E7C44100201843002024C1000892
S315080117B0F8B50D46044618B36DB301F0FDFF2B6865
S315080117C018485A1C016821D0174E27683268974273
S315080117D0626801D091420ED28F1ABB420BD95B1AAD
S315080117E01344316802682B60002584E8060001F07D
S315080117F0F5FF2846F8BD012501F0F0FF2846F8BD9A
S3150801180040F601010948FFF703FBD5E7002501F07A
S31508011810E5FF2846F8BD40F602010448FFF7F8FA45
S31508011820CBE700BF18430020C441002024C10008AB
S31508011830014B01221A6070474043002068B1036BCF
S315080118401A78A52A4FF000000AD113F8012F0130A2
S31508011850A52A80B2F9D080087047024B1868EEE7CE
S31508011860704700BFFC420020014B1868704700BF53
S31508011870FC420020044B186828B1044B1B68002B56
S315080118800CBF012002207047C0410020F842002009
S3150801189000282DD0F8B5174DC36A2A68D26A934233
S315080118A00FD22A68144ED26A416903EB830306EB09
S315080118B08303C2F10E029942826103D02B68DB6A67
S315080118C0C362F8BD071D0446384604F045F92A687F
S315080118D00A4BD06A1A68E062904200D9186000EB98
S315080118E0800006EB80003946BDE8F84004F00AB9E5
S315080118F0704700BFFC420020E04100203C43002025
S31508011900F0B138B5C26A436C9A4218D0051D04462F
S31508011910284604F021F90B4A636C1168E362C3F1A6
S315080119200E008B42A061084888BF136003EB83034E
S31508011930294600EB8300BDE8384004F0E3B838BD1A
S31508011940704700BF3C430020E041002000F000B88A
S31508011950064B074A03F5006012F8011F03F8011B3D
S315080119608342F9D1034B00221A707047484300207D
S31508011970FF7F000844430020C1F500630133984204
S3150801198019DA0144884216DADFF838C0F0B50C4D89
S315080119909CF80060AE460024FF272A5CFF2A00F166
S315080119A0010303D001240EF80070264698B2884236
S315080119B0F3DB0CB9F0BD70478CF80060FAE700BF9D
S315080119C0484300204443002040F2FC73984201D961
S315080119D00020704710B50446FFF794F9024B1C59CD
S315080119E0FFF792F9204610BD48430020F8B540F2AA
S315080119F0FC73984211D80446084E0D46FFF782F942
S31508011A003759FFF781F9BD4207D0FFF77BF9355101
S31508011A10FFF77AF9024B01221A70F8BD48430020F4
S31508011A2044430020F8B50F4C01F0C6FE25681DB1E8
S31508011A30BDE8F84001F0D2BE0B4F0C4E384604F013
S31508011A4051F8304604F04EF8094A0A4B17600C2142
S31508011A502A4606201E6004F05BF92060BDE8F840BE
S31508011A6001F0BCBE744B00204C4B0020604B00209B
S31508011A70484B0020784B0020914208B5006141602F
S31508011A8005D88169D21A8A420CD3012008BD9A4227
S31508011A9001D29942F9D2074B011D186804F042F8A0
S31508011AA0002008BD044B011D186804F03BF800200E
S31508011AB008BD00BF484B0020784B002000B585B013
S31508011AC0FFF7B0FF0C4B1B6873B1002302228DE8A8
S31508011AD00C0003930293802208490948FFF74CFA40
S31508011AE010B105B05DF804FBE0210648FFF790F94F
S31508011AF0002005B05DF804FB744B002074C1000892
S31508011B00311C010850C100082DE9F0410D46B1B15B
S31508011B108046282017461E46FEF7A0FF044658B100
S31508011B20FFF780FF069BC4F80080A561E76126627E
S31508011B306362201D03F0E2FF2046BDE8F0814FF401
S31508011B40847103482C46FFF763F92046BDE8F08106
S31508011B5050C1000870B5134E346884B0BCB11D4637
S31508011B600191029203903BB11A462046002301A92E
S31508011B7004F090F904B070BDFFF77CFE012809D086
S31508011B8030682B462A4601A904F0E8F8F2E7204610
S31508011B9004B070BD2B463068089A01A904F0DEF836
S31508011BA0E8E700BF744B00202DE9F0471D4D82B0D0
S31508011BB04FF00008AA460DE0DB68DC681F6804F1EF
S31508011BC00409484603F0C8FF636A20469847E36953
S31508011BD0012B0BD02B6813491A68002AECD1124A3B
S31508011BE010680860136002B0BDE8F087A6693E4434
S31508011BF00023B74219463A46204607D26660246151
S31508011C00DAF80000494603F08DFFE3E7CDF80080D6
S31508011C10FFF7A0FF0028DDD140F282210348FFF734
S31508011C20F7F8D7E7484B0020784B002050C1000849
S31508011C302DE9F04FDFF87091594FDFF8708187B0C1
S31508011C40CB46BA46D9F800301D68002D6BD0DB6843
S31508011C501D68FFF76BFBFFF771FB3B688342044680
S31508011C6069D88542CAF8000071D9291BD8F800003D
S31508011C7004F078FAFFF72AFC002865D000231A46F3
S31508011C8003A9D8F8000004F069F90028DAD0059C00
S31508011C90636913B1201D03F05FFFFFF74FFB3B6834
S31508011CA09842054635D3039E3D60022E27D0032E62
S31508011CB021D0002EE2D1049BA1692A461944204667
S31508011CC0FFF7DAFE0128D9D1636A20469847E36906
S31508011CD0012BD3D1A369049A00961A4420463346A8
S31508011CE03146FFF737FF0028C8D140F22F212D488A
S31508011CF0FFF78EF8C2E72046FEF72AFFBEE70499EA
S31508011D00A16149B1294420462B462A46FFF7B4FE6C
S31508011D10B4E7FFF749FFC6E74FF40F712148FFF70C
S31508011D2077F8A169EEE7FFF701FBFFF707FB3B68C9
S31508011D309842044605D2FFF737FF3C60FFF7C6FB1A
S31508011D409CE7CAF8004090E701F012FD96E7FFF715
S31508011D50BDFBDBF80030DB68DE68301D03F0FCFEF6
S31508011D60F369012B03D0736A3046984786E7B16950
S31508011D70224629442B463046FFF77EFE0128F2D13A
S31508011D8000232A46009319463046FFF7E3FE00284A
S31508011D90E9D14FF4AD710348FFF73AF8E3E700BF1D
S31508011DA07C4B002050C10008484B0020744B002092
S31508011DB02DE9F0473D4E3E4DDFF8FC90DFF8FC80FB
S31508011DC03C4F88B000234FF0FF3201A9306804F078
S31508011DD0C5F8012805D00122142142F2081001F0A4
S31508011DE03FFB9DF80440012C05D90122142142F23A
S31508011DF00C1001F035FB2B5D012BE3D19DF8053065
S31508011E00032B4BD8DFE803F0392413029DF804307D
S31508011E1057F833201AB1012090479DF8043007EB93
S31508011E20C3035B68002BCDD001209847CAE79DF80C
S31508011E30043057F833201AB1002090479DF8043032
S31508011E4007EBC3035B68002BBCD000209847B9E7B2
S31508011E5000249DF8043004EB43030DF1110258F8F0
S31508011E6023A00134BAF1000F04D0079B9DF8101086
S31508011E700398D047022CECD1A4E79DF8043059F811
S31508011E8033201AB1039890479DF8043009EBC30330
S31508011E905B68002B96D00398984793E70122142193
S31508011EA042F2091001F0DCFA8CE700BFB04B0020C2
S31508011EB0A44B0020D84B0020804B0020944B0020D7
S31508011EC02DE9F04F4FF00008414C424D424EDFF8E4
S31508011ED00C918DB0474600234FF0FF3206A92068C2
S31508011EE004F03CF8012805D00122142142F207101A
S31508011EF001F0B6FA9DF81820012A40D89DF820303D
S31508011F00082B42D8AA5C002A3FD0DDF81CA08DF820
S31508011F100E301AF0804247D18DF80D206BB1013B86
S31508011F20DBB206AA093313440DF10E0108AA12F809
S31508011F30010F01F8010F9A42F9D15346002B3ADBFA
S31508011F408DF80C8001930297CDF81CA0FEF7DAFEF6
S31508011F509DF8183003EB8303834601A956F833002D
S31508011F6001F0ECFE04282ED09DF8183003EB43034C
S31508011F700344584649F823A0FEF7C6FEABE70122FB
S31508011F80142142F20C1001F06BFA0123002206A972
S31508011F90206803F0E3FE00289DD10122142142F2B4
S31508011FA0041001F05DFA96E702238DF80D302AF048
S31508011FB08043002BC4DA23F00043042202930197DD
S31508011FC08DF80C20C0E75846FEF79EFEDDE700BFF8
S31508011FD0B44B0020A44B00207CC10008BC4B002058
S31508011FE070B588B0002301280446009305D901225B
S31508011FF0142142F20C1001F033FA164A04EB840359
S315080120004FF4806152F83350284601F09DFF0128AC
S31508012010064602D0009808B070BD0F4B8DF80440F3
S315080120201868032400236A4601A98DF8054003F0C0
S3150801203031FF38B128464FF4806101F0F7FF009867
S3150801204008B070BD3246142142F2061001F008FAB2
S31508012050F0E700BF7CC10008B04B00202DE9F04332
S315080120608FB00023012805460093019305D9012263
S31508012070142142F20C1001F0F3F905EB85034F4ADE
S315080120808DF81C5052F833600221304601F05CFF8E
S31508012090012803460AD00821304601F055FF0128D8
S315080120A004466CD000980FB0BDE8F0830021304695
S315080120B08DF81D3001F0E8FE0446B0B3DFF808914B
S315080120C0DFF80881642702AA0021304601F08CFE58
S315080120D0FFF734F959F825209DF810109DF81230AC
S315080120E08DF8205007FB00F0A8FB00E0C2EB901228
S315080120F00D928DF82830002935D1029A09929DF85A
S3150801210011203ABB6BB15A1ED2B202AB0B321A443A
S315080121100AA90DF1120313F8010F01F8010F9342F1
S31508012120F9D1013C14F0FF04CDD1254A00231068EA
S3150801213007A901AA03F0AEFED0B1019B3046012BD7
S315080121404FF0020108BF009301F070FF00980FB02D
S31508012150BDE8F083099B013C43F0804314F0FF047A
S315080121600993B0D1E1E7039A42F000420992C6E722
S315080121700122142142F2061001F072F9DDE7104A34
S31508012180022310688DF81D306A46002307A903F05B
S3150801219081FE58B130460B4901F0BEFE3046082192
S315080121A001F044FF00980FB0BDE8F08322461421E0
S315080121B042F2061001F054F9ECE700BF7CC10008B1
S315080121C0B04B002010000032A84B0020D34D6210FE
S315080121D02DE9F0438FB000230128054600930193AA
S315080121E005D90122142142F20C1001F039F905EB47
S315080121F085034F4A8DF81C5052F83360102130463A
S3150801220001F0A2FE012803460AD04021304601F01A
S315080122109BFE012804466CD000980FB0BDE8F083F8
S31508012220014630468DF81D3001F02EFE0446B0B346
S31508012230DFF80891DFF80881642702AA01213046F0
S3150801224001F0D2FDFFF77AF859F825209DF810100C
S315080122509DF812308DF8205007FB00F0A8FB00E02E
S31508012260C2EB90120D928DF82830002935D1029AC9
S3150801227009929DF811203ABB6BB15A1ED2B202AB34
S315080122800B321A440AA90DF1120313F8010F01F8CA
S31508012290010F9342F9D1013C14F0FF04CDD1254A2F
S315080122A00023106807A901AA03F0F4FDD0B1019B28
S315080122B03046012B4FF0100108BF009301F0B6FE1E
S315080122C000980FB0BDE8F083099B013C43F08043B9
S315080122D014F0FF040993B0D1E1E7039A42F00042F2
S315080122E00992C6E70122142142F2061001F0B8F854
S315080122F0DDE7104A022310688DF81D306A4600236F
S3150801230007A903F0C7FD58B130460B4901F004FE91
S315080123103046402101F08AFE00980FB0BDE8F083EF
S315080123202246142142F2061001F09AF8ECE700BFA2
S315080123307CC10008B04B002010000034A84B0020D7
S31508012340D34D6210F0B589B00023012804460093E5
S3150801235005D90122142142F20C1001F081F82E4A06
S3150801236004EB8403012152F83350284601F0ECFDB1
S31508012370012802D0009809B0F0BD2849284601F085
S31508012380A1FD012836D02649284601F09BFD0128E2
S31508012390064635D02349284601F094FD012835D053
S315080123A0214840F2FE31FEF733FD002004EB4403D9
S315080123B018441E4A1E4B52F8207018688DF80440BE
S315080123C0002633466A4601A98DF8084003978DF819
S315080123D0056003F05FFD30B12846012101F026FEB4
S315080123E0009809B0F0BD0122142142F2061001F04D
S315080123F037F8F1E72846094901F08EFD0020D5E7AF
S315080124002846074901F088FD3046CFE728460549A1
S3150801241001F082FD0220C9E77CC1000801000038ED
S3150801242000010038000001380CC20008BC4B00202E
S31508012430B04B0020F0B53A4A3A4D3B4C3B4F3C4E27
S31508012440DFF810E1308000230128136053609360A0
S31508012450D3602B606B60AB60EB6023606360A36045
S31508012460E3603B707B709CBF022333800329AEF87F
S3150801247000109CBF0421AEF80010084685B0002262
S315080124801C2103F045FC2B4B1860002839D03088F5
S315080124900022182103F03CFC274B1860002837D08E
S315080124A0264D2749274800230A228DE8240003934D
S315080124B002938022FEF760FD012805D0012214212E
S315080124C042F2021000F0CCFF1F4C2049204800239D
S315080124D002228DE81400039302938022FEF74CFD35
S315080124E0012805D00122142142F2031000F0B8FF99
S315080124F02868FEF747FE206805B0BDE8F040FEF7FC
S3150801250041BE012214214FF4045000F0A9FFBEE791
S315080125100122142142F2011000F0A2FFC0E700BF18
S31508012520D84B0020804B0020944B0020A44B002060
S31508012530904B0020B04B0020B44B0020B84B002034
S3150801254038C20008B11D0108D44B002048C2000852
S31508012550C11E0108A64B00202DE9F04F01288DB0B8
S3150801256007460E4691465DD90122142142F20C1006
S3150801257000F076FF00230093D34B4FEA870A0AEB54
S31508012580070403EBC4040121606801F01DFFA0687C
S31508012590012101F0FDFE6069012101F0F9FED4F87F
S315080125A00CB094F82050618A58462A4601F0DAFEA2
S315080125B0D4F81880E18B2A4640460CAD01F0D2FECC
S315080125C0228A45F8242D022358464FF0010E294642
S315080125D04FF0000B8DF810308DF811308DF813E09F
S315080125E08DF812B001F060FEA38B0393294640468D
S315080125F001F05AFEA6F59C53B449083B8B420DD807
S31508012600D9F80030B3F1005F08D2D9F80430B3F134
S31508012610005F03D299F80830022B07D958460DB046
S31508012620BDE8F08F3BD000230093A5E7A84AA94946
S315080126304FF00808A2F13F00454643464FF0640CA7
S3150801264003E0D378157992F805801D44EDB26B1C29
S315080126504344DBB206FB03F4B1FBF4F4A4B204F180
S31508012660FF3EBEF5806F03FB04F3A2F1030212D20B
S31508012670B1FBF3F39B1B0CFB03F3B3FBF6F313F06C
S31508012680800F0CBF4FF0010E4FF0FF0E13FB0EF338
S315080126905BB2022B0BDD9042D3D10020BFE7014686
S315080126A04FF0007001F090FE0E23009364E7FEF7E9
S315080126B029FB0AEB0703844A019052F83360304636
S315080126C001F01AFA013D05A801F024FB4FF0000BB1
S315080126D08DF8185005A908F1FF3830460125ADF8DF
S315080126E014408DF819808DF81AB08DF81BB08DF845
S315080126F01CB08DF81DB08DF81EB08DF816B08DF88A
S3150801270017B08DF81F5001F015FA99F80840002CFA
S3150801271000F0EC80AC4240F09780D9F80410D9F863
S315080127200020009D8DF82BB0C9000B0CD20041F09A
S315080127300401ADF8203008A8130C42F00402ADF8E4
S3150801274024308DF82C408DF82D408DF82A50ADF89F
S3150801275028B0ADF82210ADF8262001F061FA2B4613
S31508012760013308A88DF82A30ADF8284001F058FA47
S31508012770012F05D90122142142F20C1000F070FE36
S31508012780514BBA4403EBCA0B0CAD9BF8213005F843
S31508012790283D01240F22002328468DF809208DF8AB
S315080127A00A308DF80B4000F073FF9BF822308DF844
S315080127B00830284600F06CFF9BF823308DF8083066
S315080127C0284600F065FF9BF824308DF80830284626
S315080127D000F05EFF22462146304601F069FB22469B
S315080127E00221304601F064FB22461021304601F0F1
S315080127F05FFB22460821304601F05AFB224640215A
S31508012800304601F055FB22464FF48061304601F00F
S315080128104FFB314BDC55FEF791FD64222F4B3049B6
S3150801282002FB00F0A3FB00239B09019841F827301E
S31508012830FEF76AFA2B4B1868FEF706FD2A4B18684D
S31508012840FEF702FD2046EAE6D9F80020D9F8041079
S31508012850009C8DF82A40520142F00802490192B2C1
S3150801286089B208A8ADF82420ADF82620ADF82010C5
S31508012870ADF822108DF82BB08DF82CB08DF82D50AF
S31508012880ADF828B001F0CCF9D9F80410D9F8002030
S315080128908DF82C502346C900D20001330C0C8DF853
S315080128A02A3041F00401130C08A842F00402ADF8DD
S315080128B02850ADF82040ADF82210ADF82430ADF817
S315080128C0262001F0ADF953E77CC10008B82E0F00A8
S315080128D005C2000880DE8002A44B0020D34D621099
S315080128E0A84B0020B84B0020D44B0020D9F8003063
S315080128F0D9F80420DDF800808DF82B405B0143F000
S31508012900080352019BB292B208A8ADF82430ADF87B
S3150801291026308DF82C408DF82D508DF82A80ADF88B
S315080129202840ADF82020ADF8222001F079F9434678
S31508012930013308A88DF82A30ADF8285001F070F94E
S3150801294016E700BF012870B504460D4617D90122BE
S31508012950142142F20C1000F083FD012D05D9012244
S31508012960142142F2051000F07BFD0122142142F2E6
S315080129700C1000F075FD134B185D48B970BD01299F
S31508012980F9D90122142142F2051000F069FDF2E796
S31508012990FEF7B8F904EB84040B4B064653F83400EA
S315080129A03DB101F081FA04463046FEF7ADF92046FD
S315080129B070BD01F075FA04463046FEF7A5F92046C2
S315080129C070BD00BFA44B00207CC10008F0B50128EA
S315080129D089B006460F4615461C4605D9012214211B
S315080129E042F20C1000F03CFD8DF8086003978DF853
S315080129F0105055B1681E54FA80F0631E04AA13F8E4
S31508012A00011F02F8011F8342F9D1174C206803F010
S31508012A109BFB164B1B88181A012814D9206800231A
S31508012A2001AA02A903F036FA18B10124204609B011
S31508012A30F0BD0122142142F2041000F011FD012417
S31508012A40204609B0F0BD30460121FFF77BFF044659
S31508012A5018B10024204609B0F0BD0122142142F222
S31508012A60041000F0FDFCE1E7B44B0020904B002078
S31508012A70012838B504460D4605D90122142142F22A
S31508012A800C1000F0EDFC074B53F834202AB103EB88
S31508012A90C402526802B138BD012202EB440243F86E
S31508012AA02250F8E7804B0020012838B504460D4628
S31508012AB005D90122142142F20C1000F0D1FC074B72
S31508012AC053F834202AB103EBC402526802B138BD67
S31508012AD0012202EB440243F82250F8E7944B002006
S31508012AE010B5FEF70BF90020FFF7B8FA0446FEF712
S31508012AF007F91CB1024B4FF080521A6010BD00BF96
S31508012B0004ED00E010B5FEF7F9F80020FFF760FBC9
S31508012B100446FEF7F5F81CB1024B4FF080521A60D5
S31508012B2010BD00BF04ED00E010B5FEF7E7F8002080
S31508012B30FFF708FC0446FEF7E3F81CB1024B4FF019
S31508012B4080521A6010BD00BF04ED00E010B5FEF713
S31508012B50D5F80020FFF744FA0446FEF7D1F81CB170
S31508012B60024B4FF080521A6010BD00BF04ED00E021
S31508012B7010B5FEF7C3F80120FFF770FA0446FEF711
S31508012B80BFF81CB1024B4FF080521A6010BD00BF4E
S31508012B9004ED00E010B5FEF7B1F80120FFF718FBC8
S31508012BA00446FEF7ADF81CB1024B4FF080521A608D
S31508012BB010BD00BF04ED00E010B5FEF79FF8012037
S31508012BC0FFF7C0FB0446FEF79BF81CB1024B4FF01A
S31508012BD080521A6010BD00BF04ED00E010B5FEF783
S31508012BE08DF80120FFF7FCF90446FEF789F81CB1B8
S31508012BF0024B4FF080521A6010BD00BF04ED00E091
S31508012C00012870B505460C4605D90122142142F260
S31508012C100C1000F025FC0A4B53F825307BB11A68D5
S31508012C20A24203D106E01A68944203D09B68002B9E
S31508012C30F9D170BD5B6813B1BDE87040184770BD26
S31508012C40F84B002001460120FFF7DABF01460020B4
S31508012C50FFF7D6BF2DE9F047012806460D46174668
S31508012C609846DDF820900BD90122142142F20C1066
S31508012C7000F0F6FB0122142142F20C1000F0F0FBE1
S31508012C80304B53F826404CB123689D4203D146E0A8
S31508012C9023689D4214D0A469002CF9D12A4B53F814
S31508012CA0263013B92BE09B684BB31A689542FAD1C3
S31508012CB05B6893B34A4641463846BDE8F04718472C
S31508012CC0FEF720F8277167B107F1FF3E58FA8EFE25
S31508012CD008F1FF33221D13F8011F02F8011F73457E
S31508012CE0F9D1237DC4F810907E2B01D801332375C1
S31508012CF0FEF70AF8144B53F82630002BD5D1134B9F
S31508012D0053F826403CB14B46424639462846A44626
S31508012D10BDE8F0476047BDE8F087BDE8F087FDF7F5
S31508012D20F1FF2771002FDCD007F1FF3E58FA8EFE1E
S31508012D3008F1FF33221D13F8011F02F8011F73451D
S31508012D40F9D1CEE7E84B0020F04B0020004C0020DB
S31508012D5000B583B0009313460A4601460120FFF7E2
S31508012D6079FF03B05DF804FB00B583B00093134601
S31508012D700A4601460020FFF76DFF03B05DF804FB24
S31508012D80012870B504461CD90122142142F20C10FF
S31508012D9000F066FB174D18481849194A002345F8EB
S31508012DA0243040F8243041F8243042F824301549BB
S31508012DB00120FFF75DFE14490120BDE87040FFF7C9
S31508012DC073BE0C4E0C4D0D490D4A002346F82030B2
S31508012DD045F8203041F8203042F820300028E6D165
S31508012DE00A49FFF745FE20460949BDE87040FFF745
S31508012DF05BBE00BFF84B0020F04B0020E84B0020DB
S31508012E00004C0020452C0108512D01084D2C0108C4
S31508012E10692D01080128F8B505460F46164605D954
S31508012E200122142142F20C1000F01AFB0C20FDF7C6
S31508012E3015FE044688B10C4B276053F825206660B9
S31508012E400021A1600AB905E01A469368002BFBD157
S31508012E509460F8BD43F82540F8BD0122142142F2D9
S31508012E60012000F0FDFAE6E7F84B00200128F8B545
S31508012E7005460F46164605D90122142142F20C10C1
S31508012E8000F0EEFA0C20FDF7E9FD044688B10C4B7B
S31508012E90276053F8252066600021A1600AB905E07C
S31508012EA01A469368002BFBD19460F8BD43F8254078
S31508012EB0F8BD0122142142F2022000F0D1FAE6E718
S31508012EC0F04B002000295DD02DE9F0432E4D2F4E01
S31508012ED02F4F83B00446A84615E02278DFF8C4C010
S31508012EE0DFF8B0E0501E1F284FF0010007D88CF814
S31508012EF0002088F800003B708EF8003033700139E5
S31508012F0004F1010422D02B78002BE6D03378DFF8C0
S31508012F1094E02048012B1CD03B7894F80090027865
S31508012F200EEB030C01338CF801909EF800E094F83F
S31508012F3000C0DBB29E453B7008BF0123624408BF4F
S31508012F4033700139027004F10104DCD103B0BDE824
S31508012F50F083034620781A780023904288F80030D7
S31508012F603370CCD1DFF840E00B480C4A019120239D
S31508012F7003708EF800300A480223137003F02EFA04
S31508012F800199BCE7704700BF2E4C00203D4C00203C
S31508012F900B4C00203C4C0020200000200A4C00204D
S31508012FA00D4C00200C4C00202100002030B4064DA9
S31508012FB0064C074A082308462B700021237030BCAB
S31508012FC0117003F00BBA00BF210000202000002079
S31508012FD00A4C002003F02EBD70B50D4E054600249F
S31508012FE056F82430AB42E0B204F101040CD0032CAC
S31508012FF0F6D133689D4200D070BD064A064913884A
S3150801300009780B44138070BD03F05CF9EFE700BF44
S31508013010304C0020084C002010C0000808B501F00B
S31508013020E7FF0248BDE8084002F01EB8C52E0108B0
S31508013030F8B5094D094F0A4E29601346114604464B
S31508013040084A30703B60FFF7E5FE2968064A2046C4
S31508013050BDE8F840FFF70ABF180000201C00002051
S315080130603E4C0020D52F0108AD2F01084B4B1A788D
S31508013070012A7CD0F0B54A4E4A4D4B4C83B0012704
S315080130801F7003F0D9FC33784849009503EB830395
S3150801309003EB83039B00A1FB033149093A4600234D
S315080130A04348FEF731FD2060002861D073783F4917
S315080130B0009503EB830303EB83039B00A1FB033119
S315080130C04909002301223B48FEF71EFD60600028DE
S315080130D05CD0B3783549009503EB830303EB83038F
S315080130E09B00A1FB03314909002301223248FEF75F
S315080130F00BFDA060002842D02568FEF71FF90023C2
S315080131000246009328461946FEF724FD012805D0F4
S31508013110012214214FF4185000F0A2F96568FEF750
S315080131200DF900230246009328461946FEF712FDBB
S31508013130012805D0012214214FF4185000F090F906
S31508013140A468FEF7FBF800230246009320461946B9
S31508013150FEF700FD012805D0012214214FF418506D
S3150801316000F07EF9154B00221A8003B0F0BD7047B6
S315080131703A4614214FF4185000F072F996E70122E5
S3150801318014214FF4185000F06BF9B5E70122142108
S315080131904FF4185000F064F99BE700BF885C0020E3
S315080131A010C00008D92F0108304C00201F85EB51AB
S315080131B090C2000898C20008A0C20008084C002066
S315080131C0014B1878704700BF21000020014B187881
S315080131D0704700BF200000202DE9F041404B1B78C5
S315080131E082B002460C4633B1012B31D0022B0CD0EA
S315080131F002B0BDE8F0813B4B3B4918780968234684
S31508013200FFF7E4FB02B0BDE8F0810138C0B21F2820
S315080132108DF80620ECD808444A1E002312F8011F2F
S315080132200B448242DBB2F9D10DF1060001218DF87A
S31508013230073001F0F7FE20469DF8061001F0F2FE70
S3150801324001210DF1070001F0EDFE03F0F3FBCFE7D5
S3150801325085B2264E00F0B0FA41F2440336F803E08F
S31508013260BEF1100F33D006F5825841F24603B8F87D
S31508013270007036F803C007EB87129200B318B552EF
S31508013280A3F802C06DB1101D013D10FA85F0033295
S31508013290611E3044B31811F8012F03F8012F834238
S315080132A0F9D17B1C9BB20F2B00D90023A8F800305B
S315080132B041F2440241F246030EF1010E0CF1010CF2
S315080132C026F802E026F803C000F088FA90E700F035
S315080132D085FA40F229310648FDF79AFD88E700BFCD
S315080132E00A4C00203E4C00201C000020404C0020C7
S315080132F058C2000808467047014B1888704700BF36
S31508013300084C002010B54478012C82B020D00ED389
S31508013310022C03D00324204602B010BD02F0D6FBCE
S31508013320002814BF01240324204602B010BD01A8B9
S3150801333003F096FB02F080FB019B00900098C3F80E
S31508013340010001240522204683F8002102B010BDA0
S31508013350807802F075FB204602B010BDF0B55030FA
S3150801336085B004010F4604F110066D46A0B2FEF7BA
S315080133702BFB0434B44245F8040BF7D10C4A029BE3
S31508013380934202D0002005B0F0BD009A0199039836
S31508013390541823448342F5D147B1100C130A3880D7
S315080133A00120FA707960BB7005B0F0BD0120EAE72B
S315080133B0AA55EE11F0B587B00D466946164604467C
S315080133C0FFF7CCFF012808BF9DF803304FEA062610
S315080133D006BF0133DBB2012346EA05451D430295C3
S315080133E0FDF7ACFF0B4B03901A46503403442401F6
S315080133F02B44059304F11007049202AEA0B22946A4
S315080134000434FEF7F3FAA74202D056F8045FF5E74B
S3150801341007B0F0BDAA55EE110E4B002203F5C07197
S315080134201A809A70DA705A6008338B424FF000009E
S31508013430F6D110B5084B094C1870207003E02078B6
S315080134400130C0B220700021FFF788FF0128F6D0AD
S3150801345010BD00BF8C5C00208A5C0020895C0020BE
S315080134602DE9F0412F4C884684B0064621460023B3
S3150801347003E0302B01F1080115D034F83300294F48
S31508013480B0424FEAC30503F10103F2D188784045FA
S31508013490EFD13D44EB780133EB70FDF74FFF6860E0
S315080134A004B0BDE8F08120490B782F2BF8D804EB3E
S315080134B0C305581C24F83360012385F80280EB7094
S315080134C001920870FDF73AFF019A6860002AE7D071
S315080134D0164D2878E8B1002403E02878DCB2844246
S315080134E015D202A92046FFF739FF012804F1010385
S315080134F0F3D1BDF80820B242EFD19DF80A20424522
S31508013500EBD1424631462046FFF754FFC8E72F283C
S31508013510C6D842463146FFF74DFF2B7801332B704B
S31508013520BEE700BF8C5C00208A5C0020895C002015
S3150801353008B54FF440714FF4A060FEF71DFA024B2F
S3150801354000221A7008BD00BF895C0020074B0022C3
S3150801355003F5C0701A809A70DA705A60083383428C
S315080135604FF00001F6D1024B197070478C5C0020B0
S315080135708A5C0020024B1878302828BF3020704713
S31508013580895C0020024B1878302828BF3020704704
S315080135908A5C0020F0B52F2983B00D4604461746EC
S315080135A024D818B32F44BD424FF0000613DB1AE0A6
S315080135B02F2DDDB217D8019BBDF800609DF80220BA
S315080135C09DF803002680BD42A270E0706360CEB20A
S315080135D004F1080407DA69462846FFF7BFFE6B1CA3
S315080135E0711C0028E4D1304603B0F0BD0122142134
S315080135F04FF41450FFF734FFD4E700BF2F29F8B56D
S315080136000C46054616462BD850B33219944230DA81
S31508013610194FE300F918C97801B32F2C4FF00000B0
S3150801362029D8BE46FE1837F834302B80B378AB70EC
S315080136300134E970E4B20130E300716869609442CB
S315080136400EEB030CC0B205F1080506DA9CF8031067
S3150801365001B9F8BD302CE5D1F8BDF8BD0846F8BD6D
S31508013660012214214FF41450FFF7FAFE321994423D
S31508013670CEDB0020F8BDF8BD8C5C002040F0BF60B1
S31508013680024B40F40030D860704700BF00ED00E0FF
S31508013690C3785BB9037818485A09203203F01F0327
S315080136A0012101FA03F340F822307047134BF0B4B5
S315080136B0D9684778827804780F4EC943C1F3022145
S315080136C0C1F10405EDB20F2307FA05F50B41EDB279
S315080136D013402B4304F1604202F561421B01DBB240
S315080136E082F800330378012203F01F015B098A403F
S315080136F046F82320F0BC704700E100E000ED00E049
S3150801370003480068006880F3088862B600DF00BFD6
S3150801371008ED00E0DFF80C00016841F47001016072
S315080137207047000088ED00E030B46FF002034FF0F7
S315080137308075074C40F8045C40F80C4C40F8081CAE
S3150801374040F8202C40F8243C30BC4438704700BF70
S3150801375099370108054B19680868B0E8F04F80F3F6
S3150801376009884FF0000080F311887047FC42002059
S31508013770044B4FF080521A60BFF34F8FBFF36F8F20
S31508013780704700BF04ED00E0EFF311804FF0BF0171
S3150801379081F311887047002008B5054B1B68013372
S315080137A003D0F7210348FDF733FBFFF7EDFFFEE7EB
S315080137B024000020A8C2000808B5FFF7E5FF044A5F
S315080137C0136801331360BFF34F8FBFF36F8F08BDC3
S315080137D02400002080F31188704700BF034B186846
S315080137E00138186000B17047FFF7F4BF24000020C4
S315080137F0EFF30980114B1A681EF0100F08BF20ED70
S31508013800108A20E9F04F10604DF8043D4FF0BF00D3
S3150801381080F31188FDF718FF4FF0000080F3118837
S3150801382008BC19680868B0E8F04F1EF0100F08BF09
S31508013830B0EC108A80F30988704700BFFC4200206B
S3150801384008B5FFF7A1FFFDF7E9FAFDF757FA0F4AA1
S31508013850138801339BB2092B07D81380FDF750FA59
S315080138600020BDE80840FFF7B5BF00231380FDF728
S3150801387071FD0028F2D0064B4FF080521A60FDF711
S315080138803FFA0020BDE80840FFF7A4BF0E5E0020FE
S3150801389004ED00E00349044B40F28F6007220860FB
S315080138A01A60704714E000E010E000E010B5244B00
S315080138B0244C1A78244882B0D2B2FF210192197099
S315080138C01B78DBB28DF803309DF803309DF80310A1
S315080138D003F0BF0307220906237002600ED50622EC
S315080138E000E00A469DF803305B00DBB28DF8033031
S315080138F09DF803301B0602F1FF31F2D40199104CF1
S31508013900124B1202C9B202F4E062026021701A680F
S3150801391042F47F021A601A6842F07F421A60FFF782
S31508013920B9FF0B4B00221A60FFF7F4FE094A136828
S3150801393043F040431360FFF7E3FEFFF72DFF00BF97
S3150801394000E400E00C5E0020105E002020ED00E09F
S315080139502400002034EF00E008B5EFF305830F2BB0
S3150801396005D90E490E4A5B5C12789A420FD80D4B5F
S315080139700D4A1B68126803F4E063934200D808BD38
S3150801398040F209310948BDE80840FDF741BA40F25D
S31508013990F9210648FDF73CFAE9E700BFF0E300E044
S315080139A00C5E00200CED00E0105E0020A8C20008A5
S315080139B008B501214FF4807000F030FD00214FF465
S315080139C08070BDE8084000F029BD00BFF0B5446825
S315080139D00A680E79D1F810E0CD680F4B24F04074CF
S315080139E024F48074224342EA0622426087688A6880
S315080139F04E794EEA050422433B40134343EA460304
S31508013A0083600A7DC36A013AD2B223F4700343EA9A
S31508013A100253C362F0BD00BFFDF7FFC0836819B941
S31508013A2023F001038360704743F001038360704705
S31508013A30092970B41DD9A1F10A0606EB4606C5681F
S31508013A400724B440B34025EA04042343062AC36085
S31508013A501BD90C2A27D90D3A02EB8202C36A1F2405
S31508013A60944001FA02F223EA04010A43C26270BCD5
S31508013A70704701EB410605690724B440B34025EABE
S31508013A8004042343062A0361E3D8013A02EB8202BE
S31508013A90436B1F24944001FA02F223EA04010A4304
S31508013AA0426370BC7047073A02EB8202036B1F241C
S31508013AB0944001FA02F223EA04010A43026370BC44
S31508013AC0704700BF836843F080438360704700BF37
S31508013AD0836819B923F480738360704743F480734C
S31508013AE083607047836819B923F40073836070474C
S31508013AF043F400738360704708B50D4B98424FF045
S31508013B0001010AD04FF0806000F07AFC00214FF0E5
S31508013B108060BDE8084000F073BC4FF0007000F00B
S31508013B206FFC00214FF00070BDE8084000F068BC4A
S31508013B3000640040036823F002030360036843F04E
S31508013B40010303604368DB0707D44FF6FF7301E0FF
S31508013B50013B02D04268D207FAD5436813F0010344
S31508013B605BD08B79012B03680CBF43F0800323F0EC
S31508013B70800330B40360CB79012B03680CBF43F093
S31508013B80400323F0400303600B7A012B03680CBF43
S31508013B9043F0200323F0200303604B7A012B0368CB
S31508013BA00CBF43F0100323F0100303608B7A012B3B
S31508013BB003680CBF43F0080323F008030360CB7ABC
S31508013BC0012B03680CBF43F0040323F004030360CD
S31508013BD0CA788D780B794C790988120642EA85727A
S31508013BE042EA034343EA04534A1E1343C361036883
S31508013BF023F0010303604368D90707D54FF6FF731E
S31508013C0001E0013B02D04268D207FAD4406800F0CD
S31508013C10010080F0010030BC70471846704700BFAC
S31508013C203A4B827AD3F8001241F00101F0B4C3F895
S31508013C300012012101FA02F2D3F81C12D4432140E1
S31508013C40C3F81C12017BB1B9D3F80C52C788468850
S31508013C502F492540C3F80C52857A483546EA074666
S31508013C6043F83560857A86880388ED00294443EA56
S31508013C7006434B60017B012930D0C37A23493BBBFC
S31508013C80D1F804322340C1F804320389BBB91F496C
S31508013C90D1F814321C40C1F81442437B012B05D1DB
S31508013CA01A49D1F81C321A43C1F81C22174AD2F80C
S31508013CB0003223F00103C2F80032F0BC7047012B31
S31508013CC0EBD11249D1F814321343C1F81432E4E79F
S31508013CD0D1F804321343C1F80432D6E70B490788F1
S31508013CE0D1F80C5246880A4B1543C1F80C52857A0D
S31508013CF0483546EA074641F83560857A8688C18897
S31508013D00ED002B4441EA06415960B6E700640040DC
S31508013D1040660040002310B40221032401220471E5
S31508013D20417102808371C371037243728372C372D4
S31508013D308370C3705DF8044B704700BF8368F0B4A5
S31508013D400446580105D4A3681A0143D50122104631
S31508013D5001E0002210461201A318D3F8805105F09C
S31508013D600105C3F880510D7A55B34E68D3F88071B1
S31508013D7045EAC6054E7A3D433543C3F880518D7AE7
S31508013D8005F00F058D72D3F8845125F00F05C3F898
S31508013D9084518E7AD3F884513543C3F88451224429
S31508013DA0D1F80B40C2F88841D1F80F10C2F88C112E
S31508013DB0D3F8802142F00102C3F88021F0BC704794
S31508013DC00F684D7AD3F8806145EA47553543C3F8FC
S31508013DD08051D4E7A368DB0002D502221046BAE770
S31508013DE00420F0BC704700BF10B400EB0114D4F8EE
S31508013DF0B03103F00403DBB21372CBBBD4F8B03194
S31508013E005B0D1360D4F8B03103F002035372D4F892
S31508013E10B43103F00F039372D4F8B44100EB0113E4
S31508013E20240AD474D3F8B841D472D3F8B841240A11
S31508013E301473D3F8B841240C5473D3F8B841240E3B
S31508013E409473D3F8BC41D473D3F8BC41240A1474CF
S31508013E50D3F8BC41240C5474D3F8BC311B0E9374AB
S31508013E6059B103695DF8044B43F0200303617047B8
S31508013E70D4F8B031DB085360C4E7C3685DF8044B76
S31508013E8043F02003C360704731B1012906BF0069B9
S31508013E9000F0030000207047C06800F00300704777
S31508013EA08069000E704700BF8069C0F307407047FC
S31508013EB043691AB923EA010141617047194341610E
S31508013EC0704700BF11F4700F07D08369C3F313035A
S31508013ED00B4214BF012000207047CB0107D5436868
S31508013EE0C3F313030B4214BF0120002070470A01D4
S31508013EF007D58368C3F313030B4214BF01200020BF
S31508013F0070478B014CBFC3680369C3F313030B42A4
S31508013F1014BF0120002070470A4B99420CD08A0130
S31508013F20C1F3130306D44A0109D40A014CBF8360BD
S31508013F3043607047C360704700238361704703611C
S31508013F40704700BF7000F03043690B401ED040290E
S31508013F5067D00ED9B1F5006F5CD019D8B1F5007FDD
S31508013F6050D0B1F5806F37D0B1F5807F27D00020CA
S31508013F70704704294AD018D910293DD0202937D0AD
S31508013F800829F4D1C068C0F3001070471846704775
S31508013F90B1F5803F24D0B1F5003F25D0B1F5004FEA
S31508013FA0E5D14068C0F38000704701290BD002298A
S31508013FB0DDD1C06810F0030018BF01207047806981
S31508013FC000F001007047806800F0013020F0807031
S31508013FD0003018BF012070478069C0F38000704720
S31508013FE04068C0F3C00070474068C0F300107047CE
S31508013FF00069C0F3C0007047006910F0030018BFDC
S31508014000012070478069C0F340007047C068C0F35B
S31508014010C0007047836913F0700F14BF0120002098
S3150801402070470069C0F30010704700BFB1F5807F83
S315080140301ED00DD9B1F5006F24D013D9B1F5803F43
S3150801404025D0B1F5003F2ED0B1F5004F1AD07047F3
S3150801405008291FD00FD9202922D0402927D110237A
S3150801406003617047B1F5007F02D0B1F5806F1DD1AC
S3150801407004234360704701290FD0042918D1082366
S31508014080C360704700220423826143607047082396
S31508014090436070471023C3607047064B83607047BF
S315080140A008230361704710234360704770477047C0
S315080140B0704700BF0101010002683749002310B4A7
S315080140C022F0010221248842026003604360836072
S315080140D0C360036144614DD0304B984235D0304BB3
S315080140E0984239D02F4B98423DD02F4B984247D012
S315080140F02E4B984248D02E4B98421DD02D4B9842B4
S315080141001ED02D4B984243D02C4B98421DD02C4B98
S31508014110984221D02B4B984225D02B4B98422FD031
S315080141202A4B984230D02A4B984205D0294B9842BF
S3150801413006D05DF8044B7047274A43F8942CF8E7F4
S315080141404FF03D5243F8AC2CF3E74FF4746243F851
S31508014150202C5DF8044B70474FF4741243F8382C41
S315080141605DF8044B70474FF0746243F8502C5DF8C4
S31508014170044B7047194B5DF8044B3D229A60704712
S31508014180174A43F8642CD4E7164A43F87C2CD0E73F
S315080141903D2243F8082CCCE7106002402860024013
S315080141A040600240586002407060024088600240E8
S315080141B0A0600240B86002401064024028640240D0
S315080141C040640240586402407064024088640240B8
S315080141D0A0640240B864024000003D20006002402D
S315080141E03D000020400F002001F11802F0B48CCAEE
S315080141F0CD680E684C692E43264316431E434A6A08
S315080142008B6A4D6B8C6B3E4316431E430B4A036800
S31508014210CF6A35432C431A40224302600B6B42692D
S315080142200D694C6889683B4322F0070213434361D1
S3150801423045608460C160F0BC704700BF3F801CF0D8
S31508014240036819B923F001030360704743F00103BA
S3150801425003607047054A136818B923F4807313601D
S31508014260704743F480731360704700BF003C0240F7
S31508014270054A136818B923F400731360704743F4A9
S3150801428000731360704700BF003C0240054A13687B
S3150801429018B923F480631360704743F4806313608D
S315080142A0704700BF003C024000222DE9F047134643
S315080142B0D1F800E001274FF0030C04E00133102B7D
S315080142C002F1020229D007FA03F434EA0E05F5D100
S315080142D0D0F800800E790CFA02F5ED4308EA0508D4
S315080142E0C0F80080D0F8009006FA02FA013E4AEAC0
S315080142F00909012E0CFA02F8C0F800900FD9C56811
S31508014300CC7925EA0805C560C568944001332C4374
S31508014310102BC46002F10202D5D1BDE8F087866888
S3150801432091F805903540856086688D7909FA02F914
S3150801433049EA06068660466826EA04044460466831
S3150801434005FA03F4A4B234434460D8E70369194271
S3150801435014BF0120002070470AB9418370470183C1
S31508014360704700BFCB0800EB830001F0070110B4CA
S315080143708900046A0F238B4024EA03030362036A54
S315080143805DF8044B8A4042EA03010162704700BFA7
S3150801439029B9054A136B23EA000010637047024BDB
S315080143A01A6B1043186370470038024029B9054A49
