S02A00002E2E2F48414E636F6465725F453430375F5454415F436F6E74726F6C6C65725F76332E7372656379
S31508004000E4D70020656F02080000000000000000E9
S315080040100000000000000000000000000000000092
S31508004020000000000000000000000000113D02082A
S315080040300000000000000000AD3D0208FD3D02083A
S315080040400000000000000000000000000000000062
S315080040500000000000000000000000000000000052
S3150800406000000000ED4A0208000000000000000001
S315080040700000000000000000000000000000000032
S3150800408000000000000000000000000039310208AE
S31508004090F1300208153102085D31020800000000FF
S315080040A0D94A0208C54A0208B14A0208A14A0208C2
S315080040B08D4A0208794A0208654A0208000000008B
S315080040C000000000000000000000000000000000E2
S315080040D000000000F154020809550208215502089B
S315080040E00000000000000000E9550208000000007A
S315080040F0514A02083D4A02082D4A020800000000FB
S3150800410000000000515502080000000000000000F1
S315080041100000000000000000000000000000000091
S3150800412000000000000000000000000055550208CD
S31508004130000000001D4B020800000000C9310208FB
S3150800414081310208A5310208ED3102081956020824
S3150800415000000000000000000000000039550208B9
S315080041600000000000000000000000000000000041
S315080041700000000000000000000000000000000031
S311080041800000000000000000EE11AA5527
S3150800C000000000000000000000000000000044409E
S3150800C0100000000000004640000000000000484004
S3150800C0200000000000004A400000000000005740E1
S3150800C03000000000000058400000000000005940C1
S3150800C040000000000080614000000000000062401F
S3150800C0500000000000806240000000000080674089
S3150800C06000000000000068400000000000806840F2
S3150800C07000000000000069400000000000806940E0
S3150800C0800000000000006A400000000000000000F8
S3150800C0900000000000004440000000000000464088
S3150800C0A00000000000004840000000000000564064
S3150800C0B000000000000057400000000000806040BB
S3150800C0C000000000000061400000000000806140A0
S3150800C0D0000000000000624000000000008062408E
S3150800C0E00000000000806740000000000000684073
S3150800C0F00000000000006D400000000000806D4058
S3150800C1000000000000006E40000000000080714042
S3150800C1100000000000C071400000000000000000A0
S3150800C120000000000000F03F000000000000F03FA3
S3150800C130000000000000F03F0000000000000000C2
S3150800C140000000000000F03F000000000000F03F83
S3150800C1500000000000000000000000000000F03FA2
S3150800C160000000000000F03F000000000000000092
S3150800C170000000000000F03F000000000000F03F53
S3150800C180000000000000F03F000000000000F03F43
S3150800C190000000000000F03F000000000000F03F33
S3150800C1A00000000000000000000000000000F03F52
S3150800C1B0000000000000F03F000000000000000042
S3150800C1C0000000000000F03F000000000000000032
S3150800C1D0000000000000F03F000000000000F03FF3
S3150800C1E0000000000000F03F000000000000F03FE3
S3150800C1F00000000000000000000000000000F03F02
S3150800C2000000000000000000000000000000F03FF1
S3150800C210000000000000F03F0000000000000000E1
S3150800C220000000000000F03F000000000000F03FA2
S3150800C23000000101010001000101000000010001E8
S3150800C24000000000000072400000000000C07140BD
S3150800C25000000000000061400000000000004640A9
S3150800C26000000000000048400000000000004440B4
S3150800C270000000000080714000000000008060405F
S3150800C2800000000000A07140000000A09999A93F95
S3150800C2900000000000003040000000000000B03F31
S3150800C2A00000000000003040000000000000B03F21
S3150800C2B00000000000003040000000000000B03F11
S3150800C2C00000000000003040000000000000B03F01
S3150800C2D0000000000000A03F0000000000004040F1
S3150800C2E0000000000000A03F0000000000004040E1
S3150800C2F0000000000000A03F0000000000004040D1
S3150800C300000000000000A03F0000000000004040C0
S3150800C3100000000000806A400000000000006A403B
S3150800C32000000000000046400000000000004840F1
S3150800C33000000000000059400000000000004A40CC
S3150800C34000000000000058400000000000004440C3
S3150800C350000000000000614000000000000072407C
S3150800C36000000000000057400000000000004640A2
S3150800C37000000000000048400000000000004440A3
S3150800C38000000000000056400000000000004A407F
S3150800C3900000000000006A4000000000000046405F
S3150800C3A00000000000004840000000000000444073
S3150800C3B0000000000080624000000000008061402C
S3150800C3C0000000000000624000000000000072400B
S3150800C3D000000000000068400000000000806D407A
S3150800C3E00000000000C0714000000000000061402D
S3150800C3F00000000000005740000000000000464012
S3150800C4000000000000006E400000000000004840E8
S3150800C4100000000000004440000000000080674063
S3150800C4200000000000006D40000000000080714020
S3150800C4300000000000005640000000000080604038
S3150800C4400000000000A06D400000000000E06D4004
S3150800C450000000000000F03F000000000000F03F70
S3150800C460000000000000F03F000000000000F03F60
S3150800C470000000000000F03F000000000000F03F50
S3150800C480000000000000F03F000000000000F03F40
S3150800C490000000000000F03F000000000000F03F30
S3150800C4A0000000000000F03F000000000000F03F20
S3150800C4B0000000000000F03F000000000000F03F10
S3150800C4C0000000000000F03F000000000000F03F00
S3150800C4D0000000000000F03F000000000000F03FF0
S3150800C4E0000000000000F03F000000000000F03FE0
S3150800C4F0000000000000F03F000000000000F03FD0
S3150800C500000000000000F03F000000000000F03FBF
S3150800C5100000000000003040000000000000B03FAE
S3150800C5200000000000003040000000000000B03F9E
S3150800C5300000000000003040000000000000B03F8E
S3150800C5400000000000003040000000000000B03F7E
S3150800C5500000000000003040000000000000B03F6E
S3150800C5600000000000003040000000000000B03F5E
S3150800C5700000000000003040000000000000B03F4E
S3150800C5800000000000003040000000000000B03F3E
S3150800C59000000000008056400000000000005040E7
S3150800C5A0000000000000903F00000000000050401E
S3150800C5B0000000000000903F00000000000020403E
S3150800C5C0000000000000C03F0000000000C06040FE
S3150800C5D00000000000004040000000000000A03FEE
S3150800C5E00000000000004040000000000000A03FDE
S3150800C5F00000000000004040000000000000A03FCE
S3150800C6000000000000004040000000000000A03FBD
S3150800C610000000A09999A93F000000000000B03F63
S3150800C6200000000000003040000000000000B03F9D
S3150800C6300000000000003040000000000000B03F8D
S3150800C6400000000000003040000000000000B03F7D
S3150800C65000000000000030400000000000006940B3
S3150800C66000000000008069400000000000806A4069
S3150800C6700000000000006A4000000000000046407C
S3150800C68000000000000048400000000000004A408A
S3150800C690000000000000594000000000000058405B
S3150800C6A000000000008062400000000000006240B8
S3150800C6B0000000000080684000000000000068409C
S3150800C6C000000000000044400000000000806740B1
S3150800C6D00000000000005740000000000080614094
S3150800C6E00000000000003040000000000000B03FDD
S3150800C6F00000000000003040000000000000B03FCD
S3150800C7000000000000002040000000000000C03FBC
S3150800C7100000000000005040000000000000903FAC
S3150800C7200000000000005040000000000000903F9C
S3150800C730000000000000F03F0000000000000000BC
S3150800C74000000000000000000000000000000000DB
S3150800C750000000000000000000000000000010C0FB
S3150800C760000000000000B03F00000000000030405C
S3150800C77000000000000008C0000000000000C03FE4
S3150800C780000000000000204000000000000018C063
S3150800C790000000000000903F00000000000050402C
S3150800C7A000000000000018C0000000000000903FD4
S3150800C7B0000000000000504000000000000010C00B
S3150800C7C0000000000000B03F0000000000003040FC
S3150800C7D00100000001000000010000000100000047
S3150800C7E0000000000000000016000000160000000F
S3150800C7F016000000160000000000000019000000E6
S3150800C80019000000190000001900000000000000CF
S3150800C810000001000000000000000000000010C039
S3150800C820000000000000B03F00000000000030409B
S3150800C83000000000000008C0000000000000C03F23
S3150800C840000000000000204000000000000018C0A2
S3150800C850000000000000903F00000000000050406B
S3150800C86000000000000018C0000000000000903F13
S3150800C870000000000000504000000000000010C04A
S3150800C880000000000000B03F00000000000030403B
S3150800C8900100000001000000010000000100000086
S3150800C8A00000000000000000000001000000000079
S3150800C8B000000000000010C0000000000000B03FAB
S3150800C8C0000000000000304000000000000008C022
S3150800C8D0000000000000C03F0000000000002040EB
S3150800C8E000000000000018C0000000000000903F93
S3150800C8F0000000000000504000000000000018C0C2
S3150800C900000000000000903F0000000000005040BA
S3150800C91000000000000010C0000000000000B03F4A
S3150800C9200000000000003040010000000100000087
S3150800C93001000000010000000000000000000000E7
S3150800C94000000000000018C0000000000000903F32
S3150800C950000000000000504000000000000008C071
S3150800C960000000000000C03F00000000000020405A
S3150800C97000000000000018C0000000000000903F02
S3150800C98000000000000050401500000015000000DF
S3150800C990150000001500000000000000000000005F
S3150800C9A0000001000000000000000000000010C0A8
S3150800C9B0000000000000B03F00000000000030400A
S3150800C9C000000000000008C0000000000000C03F92
S3150800C9D0000000000000204000000000000018C011
S3150800C9E0000000000000903F0000000000005040DA
S3150800C9F000000000000018C0000000000000903F82
S3150800CA00000000000000504000000000000010C0B8
S3150800CA10000000000000B03F0000000000003040A9
S3150800CA2001000000010000000100000001000000F4
S3150800CA30000000000000000000000000000010C018
S3150800CA40000000000000B03F000000000000304079
S3150800CA5000000000000008C0000000000000C03F01
S3150800CA60000000000000204000000000000018C080
S3150800CA70000000000000903F000000000000504049
S3150800CA8000000000000018C0000000000000903FF1
S3150800CA90000000000000504000000000000010C028
S3150800CAA0000000000000B03F000000000000304019
S3150800CAB00100000001000000010000000100000064
S3150800CAC0000000000000000000000000000018C080
S3150800CAD0000000000000903F0000000000005040E9
S3150800CAE000000000000008C0000000000000C03F71
S3150800CAF0000000000000204000000000000018C0F0
S3150800CB00000000000000903F0000000000005040B8
S3150800CB1015000000150000001500000015000000B3
S3150800CB2000000000000000001600000016000000CB
S3150800CB3016000000160000000000000019000000A2
S3150800CB40190000001900000019000000000000008C
S3150800CB5000000000000010C0000000000000B03F08
S3150800CB60000000000000304000000000000010C077
S3150800CB70000000000000B03F000000000000304048
S3150800CB8000000000000010C0000000000000B03FD8
S3150800CB90000000000000304000000000000010C047
S3150800CBA0000000000000B03F000000000000304018
S3150800CBB01800000018000000180000001800000007
S3150800CBC0000000000000000000000000000010C087
S3150800CBD0000000000000B03F0000000000003040E8
S3150800CBE000000000000010C0000000000000B03F78
S3150800CBF0000000000000304000000000000010C0E7
S3150800CC00000000000000B03F0000000000003040B7
S3150800CC1000000000000010C0000000000000B03F47
S3150800CC200000000000003040170000001700000058
S3150800CC3017000000170000000000000000000100B7
S3150800CC400D0000000D0000000D0000000D000000A2
S3150800CC50000000000C0000000C0000000C000000A2
S3150800CC600C000000000000000B0000000B00000094
S3150800CC700B0000000B000000000000000000000090
S3150800CC8000000000000010C0000000000000B03FD7
S3150800CC90000000000000304000000000000008C04E
S3150800CCA0000000000000C03F000000000000204017
S3150800CCB000000000000018C0000000000000903FBF
S3150800CCC0000000000000504000000000000018C0EE
S3150800CCD0000000000000903F0000000000005040E7
S3150800CCE000000000000010C0000000000000B03F77
S3150800CCF000000000000030400100000001000000B4
S3150800CD000100000001000000000000000000000013
S3150800CD106464640048414E636F6465725F453430ED
S3150800CD20375F5454415F436F6E74726F6C6C6572F3
S3150800CD305F76335F736F66747761726549445F76B1
S3150800CD40315F3034303132325F3230323932370087
S3150800CD504170704374726C5461736B0048414E6342
S3150800CD606F6465725F453430375F5454415F436F73
S3150800CD706E74726F6C6C65725F76332E630000009A
S3150800CD8020000000001402400800090020000000EE
S3150800CD900014024010000E0020000000001402409B
S3150800CDA020000F002000000000140240400004008C
S3150800CDB0200000000014024080000500200000004A
S3150800CDC00014024000010600200000000014024082
S3150800CDD000020700200000000014024000040800BA
S3150800CDE0040000000008024001000A0004000000D8
S3150800CDF00008024004000C00414443636F6E7665E8
S3150800CE007273696F6E5461736B0000002E2E2F6269
S3150800CE106C6F636B7365742F7274772F53544D332D
S3150800CE20322F7372632F686561705F342E6300005A
S3150800CE30546D724370754C6F6164000049444C45EB
S3150800CE40000000002E2E2F626C6F636B7365742FC3
S3150800CE507274772F53544D33322F7372632F746164
S3150800CE60736B732E630000002E2E2F626C6F636B3C
S3150800CE707365742F7274772F53544D33322F737230
S3150800CE80632F74696D6572732E630000546D72208A
S3150800CE905376630043616E4576656E745461736BB1
S3150800CEA00000000043616E5472616E736D697454BC
S3150800CEB061736B002E2E2F626C6F636B7365742F14
S3150800CEC07274772F53544D33322F7372632F535422
S3150800CED04D33325F453430372F63616E2E63000061
S3150800CEE0006400400000000208000000000C024038
S3150800CEF00100000008000000000C024002000100CA
S3150800CF00091314151600000000680040000000040C
S3150800CF100200000000040240200005000200000094
S3150800CF200004024040000600093F4041420000005C
S3150800CF3001010201020202020203020204020203C2
S3150800CF400303040303050303060303050404060495
S3150800CF50040704040804040705050805050806056A
S3150800CF600807050807060808060808070808080045
S3150800CF70457643686E6C3100457643686E6C3200C0
S3150800CF80457643686E6C33002E2E2F626C6F636B8A
S3150800CF907365742F7274772F53544D33322F73720F
S3150800CFA0632F53544D33325F453430372F6D6163E9
S3150800CFB02E6300002E2E2F626C6F636B7365742FC1
S3150800CFC07274772F53544D33322F7372632F535421
S3150800CFD04D33325F453430372F706F72742E6300CD
S3150800CFE000000140010000000201000010000000DE
S3150800CFF00010024000020900100000000010024064
S3150800D00000080B00000400400200000001020000B6
S3150800D0100100000000000240400006000200000077
S3150800D020000402402000050000080040040000003B
S3150800D0300102000008000000000C024000100C006D
S3150800D04008000000000C024000200D00000401400A
S3150800D050020000000203000004000000000802406D
S3150800D0604000060004000000000802408000070097
S3150800D0700000014001000000020119000000004004
S3150800D0800100000001021C0000040040020000002C
S3150800D09001021D00000800400400000001021E00F5
S3150800D0A0000401400200000002012C00004001407B
S3150800D0B000000100020118000044014000000200BF
S3150800D0C002011900004801400000040002011A008C
S3150800D0D0001C00408000000001022C0000200040D7
S3150800D0E00001000001022D000400000000080240B3
S3150800D0F0010000002000000000140240400000006B
S3150800D10020000000001402408000000020000000FB
S3150800D1100014024000010000200000000014024034
S3150800D1200002000020000000001402400004000075
S3150800D1300200000000040240800000000200000017
S3150800D14000040240400000001000000000100240E9
S3150800D150040000001000000000100240100000004B
S3150800D160100000000010024020000000100000001F
S3150800D1700010024040000000400000000018024075
S3150800D1808000000040000000001802400001000076
S3150800D1904000000000180240001000004000000097
S3150800D1A00018024000800000010000000000024054
S3150800D1B010000000020000000004024020000000E9
S3150800D1C001000000000002404000000001000000CD
S3150800D1D0000002402000000008000000000C024089
S3150800D1E00100000008000000000C024002000000D8
S3150800D1F008000000000C02400400000008000000BF
S3150800D200000C02400800000008000000000C024064
S3150800D2101000000008000000000C0240200000007A
S3150800D22008000000000C0240400000000800000052
S3150800D230000C02408000000008000000000C0240BC
S3150800D2400001000008000000000C02400002000077
S3150800D25008000000000C024000040000080000005E
S3150800D260000C02400008000008000000000C024004
S3150800D2700010000008000000000C0240002000001A
S3150800D28008000000000C02400040000008000000F2
S3150800D290000C024000800000100000000010024050
S3150800D2A0010000001000000000100240020000000B
S3150800D2B010000000001002400800000010000000E6
S3150800D2C0001002408000000010000000001002401C
S3150800D2D000010000100000000010024000020000DB
S3150800D2E010000000001002400004000010000000BA
S3150800D2F00010024000080000100000000010024064
S3150800D300001000001000000000100240002000007D
S3150800D310100000000010024000400000100000004D
S3150800D32000100240008000002000000000140240A7
S3150800D3300100000020000000001402400200000066
S3150800D3402000000000140240040000002000000035
S3150800D35000140240080000002000000000140240EB
S3150800D3601000000020000000001402402000000009
S3150800D3702000000000140240000800002000000001
S3150800D38000140240001000002000000000140240B3
S3150800D39000200000200000000014024000400000A9
S3150800D3A02000000000140240008000004000000039
S3150800D3B0001802400100000040000000001802406A
S3150800D3C002000000400000000018024004000000AF
S3150800D3D0400000000018024008000000400000005D
S3150800D3E0001802401000000040000000001802402B
S3150800D3F02000000040000000001802404000000025
S3150800D4004000000000180240000200004000000032
S3150800D4100018024000040000400000000018024006
S3150800D420000800004000000000180240002000002C
S3150800D4304000000000180240004000000100000003
S3150800D440000002400100000004000000000802403D
S3150800D4500100000020000000001402404000000007
S3150800D4602000000000140240800000002000000098
S3150800D47000140240000100002000000000140240D1
S3150800D4800002000020000000001402400004000012
S3150800D49002000000000402408000000002000000B4
S3150800D4A00004024040000000100000000010024086
S3150800D4B004000000100000000010024010000000E8
S3150800D4C010000000001002402000000010000000BC
S3150800D4D00010024040000000400000000018024012
S3150800D4E08000000040000000001802400001000013
S3150800D4F04000000000180240001000004000000034
S3150800D50000180240008000000100000000000240F0
S3150800D5101000000002000000000402402000000085
S3150800D5200100000000000240400000000100000069
S3150800D530000002402000000008000000000C024025
S3150800D5400100000008000000000C02400200000074
S3150800D55008000000000C024004000000080000005B
S3150800D560000C02400800000008000000000C024001
S3150800D5701000000008000000000C02402000000017
S3150800D58008000000000C02404000000008000000EF
S3150800D590000C02408000000008000000000C024059
S3150800D5A00001000008000000000C02400002000014
S3150800D5B008000000000C02400004000008000000FB
S3150800D5C0000C02400008000008000000000C0240A1
S3150800D5D00010000008000000000C024000200000B7
S3150800D5E008000000000C024000400000080000008F
S3150800D5F0000C0240008000001000000000100240ED
S3150800D60001000000100000000010024002000000A7
S3150800D6101000000000100240080000001000000082
S3150800D62000100240800000001000000000100240B8
S3150800D6300001000010000000001002400002000077
S3150800D6401000000000100240000400001000000056
S3150800D6500010024000080000100000000010024000
S3150800D660001000001000000000100240002000001A
S3150800D67010000000001002400040000010000000EA
S3150800D6800010024000800000200000000014024044
S3150800D6900100000020000000001402400200000003
S3150800D6A020000000001402400400000020000000D2
S3150800D6B00014024008000000200000000014024088
S3150800D6C010000000200000000014024020000000A6
S3150800D6D0200000000014024000080000200000009E
S3150800D6E00014024000100000200000000014024050
S3150800D6F00020000020000000001402400040000046
S3150800D70020000000001402400080000040000000D5
S3150800D7100018024001000000400000000018024006
S3150800D720020000004000000000180240040000004B
S3150800D73040000000001802400800000040000000F9
S3150800D74000180240100000004000000000180240C7
S3150800D75020000000400000000018024040000000C1
S3150800D76040000000001802400002000040000000CF
S3150800D77000180240000400004000000000180240A3
S3150800D78000080000400000000018024000200000C9
S3150800D790400000000018024000400000040000009D
S3150800D7A000080240002000000000014001000000BF
S3150800D7B002011B00000000400100000001021C00DD
S3150800D7C0000400400200000001021D00000800409D
S3150800D7D00400000001021E000004014002000000CF
S3150800D7E002012E000040014000000100020118005D
S3150800D7F000440140000002000201190000480140EF
S3150800D8000000040002011A00001C0040800000000D
S3150800D81001022C00002000400001000001022D003A
S3150800D8201000000000100240000200000200020082
S3150800D8300100090010000000001002400008000165
S3150800D8400400200001000B00100000000010024038
S3150800D850002000020800000201000D001000000070
S3150800D86000100240004000031000002001000E00D6
S3150800D8700100000000000240200001000200020032
S3150800D88001000500010000000000024040000200FF
S3150800D8900200020002000600020000000004024026
S3150800D8A02000020104002000020005000800000014
S3150800D8B0000C0240001003000200020002000C00E7
S3150800D8C008000000000C02400020030104002000AC
S3150800D8D002000D0004000000000802404000040099
S3150800D8E002000200030006000400000000080240CF
S3150800D8F08000040104002000030007001000000057
S3150800D9000010024020000500020002000300050086
S3150800D910100000000010024040000501040020002D
S3150800D9200300060020000000001402404000060024
S3150800D9300200020003000600200000000014024056
S3150800D9408000070002000200030007002000000014
S3150800D9500014024000010800020002000900080045
S3150800D9602000000000140240000209000200020024
S3150800D97009000900001001401000000002250000FF
S3150800D98002000000000402404000060002000000F9
S3150800D9900004024080000700070000000044004021
S3150800D9A0000002000126000008000000000C0240EA
S3150800D9B02000050008000000000C02404000060098
S3150800D9C0070000000048004000000400012700008E
S3150800D9D008000000000C02400001080008000000D2
S3150800D9E0000C024000020900070000000014014074
S3150800D9F02000000002470000040000000008024062
S3150800DA0040000600040000000008024080000700ED
S3150800DA100800000056435020436F6E666967000091
S3150800DA2056435020496E746572666163650000004E
S3150800DA3053544D6963726F656C656374726F6E6972
S3150800DA406373000053544D333220566972747561FE
S3150800DA506C20436F6D506F727420696E2048532096
S3150800DA606D6F64650000000053544D3332205669CB
S3150800DA70727475616C20436F6D506F727420696E95
S3150800DA80204653204D6F646500000000303030306A
S3150800DA903030303030353042000000003030303021
S3150800DAA0303030303035304300000000000001408F
S3150800DAB00100000002011B000000004001000000F8
S3150800DAC001021C00000400400200000001021D00C3
S3150800DAD0000800400400000001021E000004014086
S3150800DAE00200000002012E00004001400000010073
S3150800DAF0020118000044014000000200020119005A
S3150800DB00004801400000040002011A00001C004001
S3150800DB108000000001022C000020004000010000E7
S3150800DB2001022D0010000000001002400002000053
S3150800DB300200020001000900100000000010024067
S3150800DB40000800010400200001000B00100000007E
S3150800DB5000100240002000020800000201000D002B
S3150800DB6010000000001002400040000310000020D2
S3150800DB7001000E0001000000000002402000010024
S3150800DB80020002000100050001000000000002403A
S3150800DB904000020002000200020006000200000027
S3150800DBA000040240200002010400200002000500D3
S3150800DBB008000000000C02400010030002000200EA
S3150800DBC002000C0008000000000C024000200301BF
S3150800DBD00400200002000D000400000000080240B6
S3150800DBE040000400020002000300060004000000D2
S3150800DBF0000802408000040104002000030007001A
S3150800DC00100000000010024020000500020002007B
S3150800DC100300050010000000001002404000050146
S3150800DC200400200003000600200000000014024043
S3150800DC304000060002000200030006002000000063
S3150800DC4000140240800007000200020003000700DB
S3150800DC502000000000140240000108000200020033
S3150800DC600900080020000000001402400002090014
S3150800DC7002000200090009002E2E2F626C6F636BEA
S3150800DC807365742F7274772F53544D33322F737212
S3150800DC90632F71756575652E630000000404040022
S3150800DCA0B0DC0008B8DC0008C0DC0008070707007D
S3150800DCB0457643686E6C3100457643686E6C320073
S3150800DCC0457643686E6C330050505000666D6F643D
S3150800DCD00000000000000000000000000000000036
S3110800DCE000000000000000804300000067
S315080100000B78FF2B00D070474B78002BFBD111F0F2
S31508010010FFB900BF08B5012010F006FD034A40F2FA
S3150801002067610020BDE8084013F048BA01000108DD
S31508010030002010F089BB00BF704700BF2DE9F047CB
S31508010040DDF820E0099E9EF800C004460D4692465A
S315080100501F46BCF1000F02D101238EF8003030880B
S3150801006019F01EFC22462B468046894619F0E6FE03
S31508010070E0B10E9A3B6813600D9A7B6813600C9A7F
S31508010080BB7A1370109A3B7A13700B9AFB7A13702A
S315080100900F9A7B7A13700A9A002313605360119A98
S315080100A01370308819F0FCFB8046894642464B4658
S315080100B02046294619F0CCFE68B10B9B1B78D3B9AB
S315080100C001238AF800300C9B1B787BB901238AF837
S315080100D00130BDE8F087002642464B4620462946B0
S315080100E08AF8006019F0B4FE0028ECD100238AF8DA
S315080100F00130BDE8F08700238AF800300C9B1B7895
S31508010100002BF3D1E2E700BF2DE9F04F83B0164685
S315080101101F4682468B4619F0DFF800220023044663
S315080101200D4619F08BFED8BB8046002200232046D7
S3150801013029465FFA88F819F081FE50B930463946E2
S3150801014019F042F802460B463046394619F09EFE2A
S3150801015090BBB8F1000F5FD15046594600220023E3
S315080101604FF0010919F074FE20B30023002230462E
S31508010170394619F06DFE4FF00103A0B15FFA89F90E
S31508010180DBB2994507D02046294632463B4619F047
S315080101903BFA04460D462046294603B0BDE8F08FD2
S315080101A04FF00108C1E703465FFA89F9DBB29945C1
S315080101B0E9D1F0E7C146D8E732463B4650465946AB
S315080101C019F0FEFC21F000490022194B49468046E8
S315080101D019F01AFA18F0F8FF02460B464046494646
S315080101E019F010FA0B46024623F0004340460092E6
S315080101F0019300220F4B494619F0B8FB02460B46FC
S31508010200DDE9000119F02EFE4FF0010858B15FFA39
S3150801021088F8B8F1000F9FD000240025204629460A
S3150801022003B0BDE8F08F80465FFA88F8F1E700BFB2
S315080102300000E03F0000B03C2DE9F04F87B0CDE962
S31508010240002319999DF8404091F800E004949DF81F
S31508010250444005949DF848509DF84C609DF85070AF
S315080102609DF854A09DF858B01B9CBEF1000F01D112
S3150801027001230B7019F004FB0022394BCDE9020169
S3150801028019F0C2F9DDE9002319F0BCF900220023AF
S315080102908046894619F0D2FD002851D01E9B187850
S315080102A0179BC0015FFA80F983F801901D9BD3E97A
S315080102B0000119F033FE179B00015FFA80F883F8F5
S315080102C002801A9BD3E9000119F028FE9DF8103027
S315080102D0637040449DF81430A3704844189B2070FD
S315080102E0E5702671677184F806A084F807B01C9A30
S315080102F01B681360DDE90023DDE9020119F082F9C3
S315080103000022002304460D4619F098FD28B1179AD4
S315080103100123137007B0BDE8F08F0022114B204668
S315080103202946FFF7F1FE0023002219F087FD4FF059
S31508010330010390B1DBB2179A137007B0BDE8F08FCD
S315080103400022084B40464946FFF7DEFE00220023FD
S3150801035019F074FD0028CDD0A0E70346DBB2EAE721
S315080103600000F03F000014402DE9F04F87B0CDE9B9
S31508010370002319999DF8404091F800E004949DF8EE
S31508010380444005949DF848509DF84C609DF850707E
S315080103909DF854A09DF858B01B9CBEF1000F01D1E1
S315080103A001230B7019F06CFA0022394BCDE90201D1
S315080103B019F02AF9DDE9002319F024F900220023AE
S315080103C08046894619F03AFD002851D01E9B1878B7
S315080103D0179BC0015FFA80F983F801901D9BD3E949
S315080103E0000119F09BFD179B00015FFA80F883F85D
S315080103F002801A9BD3E9000119F090FD9DF810308F
S31508010400637040449DF81430A3704844189B2070CB
S31508010410E5702671677184F806A084F807B01C9AFE
S315080104201B681360DDE90023DDE9020119F0EAF82A
S315080104300022002304460D4619F000FD28B1179A3B
S315080104400123137007B0BDE8F08F0022114B204637
S315080104502946FFF759FE0023002219F0EFFC4FF059
S31508010460010390B1DBB2179A137007B0BDE8F08F9C
S315080104700022084B40464946FFF746FE0022002364
S3150801048019F0DCFC0028CDD0A0E70346DBB2EAE789
S315080104900000F03F000020402DE9F04F85B0CDE97E
S315080104A0002315999DF8386091F800E09DF83C7095
S315080104B09DF840A09DF844B09DF84850179CBEF1A0
S315080104C0000F01D101230B7019F0DAF90022374B1D
S315080104D0CDE9020119F098F8DDE9002319F092F83F
S315080104E0002200238046894619F0A8FC00284DD031
S315080104F01A9B1878139BC0015FFA80F983F801905B
S31508010500199BD3E9000119F009FD139B00015FFA54
S3150801051080F883F80280169BD3E9000119F0FEFCE6
S3150801052040444844149B20706670A77084F803A061
S3150801053084F804B06571A571E571189A1B68136092
S31508010540DDE90023DDE9020119F05CF80022002348
S3150801055004460D4619F072FC28B1139A012313704B
S3150801056005B0BDE8F08F0022114B20462946FFF75A
S31508010570CBFD0023002219F061FC4FF0010390B175
S31508010580DBB2139A137005B0BDE8F08F0022084B51
S3150801059040464946FFF7B8FD0022002319F04EFCF4
S315080105A00028CDD0A4E70346DBB2EAE70000F03F16
S315080105B0000014402DE9F04F85B0CDE900231599C7
S315080105C09DF8386091F800E09DF83C709DF840A0D0
S315080105D09DF844B09DF84850179CBEF1000F01D113
S315080105E001230B7019F04CF90022374BCDE90201B2
S315080105F019F00AF8DDE9002319F004F800220023AE
S315080106008046894619F01AFC00284DD01A9B18789D
S31508010610139BC0015FFA80F983F80190199BD3E90E
S31508010620000119F07BFC139B00015FFA80F883F83F
S315080106300280169BD3E9000119F070FC4044484436
S31508010640149B20706670A77084F803A084F804B020
S315080106506571A571E571189A1B681360DDE90023B8
S31508010660DDE9020118F0CEFF0022002304460D46FB
S3150801067019F0E4FB28B1139A0123137005B0BDE8FC
S31508010680F08F0022114B20462946FFF73DFD002336
S31508010690002219F0D3FB4FF0010390B1DBB2139A94
S315080106A0137005B0BDE8F08F0022084B4046494655
S315080106B0FFF72AFD0022002319F0C0FB0028CDD040
S315080106C0A4E70346DBB2EAE70000F03F000020405A
S315080106D02DE9F047099E04460D46308817469A4685
S315080106E019F0DEF822462B4619F0A8FB40B30C9BFD
S315080106F01B783BB3089BD3E90089002200234046B7
S31508010700494619F0C3FB4FF0010300B38AF80030DC
S31508010710404649460022002319F0B8FB48B9089B10
S315080107202046D3E90023294618F06EFF19F0F6FB97
S3150801073030800B9A01233B7013700C9B1B780BB10D
S31508010740BDE8F0870A9A01231370BDE8F0870346CE
S31508010750DCE700BF2DE9F047DDF82880DDF82090B9
S3150801076004461D460E461746D8E900010022254BC8
S3150801077018F04AFF0123C8E9000189F800303368F7
S31508010780214ADDF82490DFF8948001331360336041
S315080107902E78304619F074F8D9F800301B4AC8E9A2
S315080107A00001136026712360EB7963716B78A3717D
S315080107B0AB78E371EB7823722B7963726B79A37249
S315080107C0AB79E372124B3A881A80032015F086F941
S315080107D0104B22791A70A2795A70E2799A70227AA4
S315080107E0DA70627A1A71A27A5A71E27A9A71617921
S315080107F0094AD9711080216808220020BDE8F0470E
S3150801080012F0E8BB0000F03F94C70020C0C10020E9
S31508010810B0C000201007002018C2002038C80020E8
S3150801082008B50121002012F0D9FD0B21002012F094
S31508010830D5FD0C21002012F0D1FD0D21002012F06A
S31508010840CDFD1521002012F0C9FD1621002012F058
S31508010850C5FD1721002012F0C1FD1821002012F054
S31508010860BDFD19210020BDE8084012F0B7BD00BF43
S315080108702DE9F04F2DED088B0D4683B00968E34F3E
S31508010880169CE34EDDF85C900131396029602168D8
S31508010890316007EE901AB8EE678AF7EE007AB4EE81
S315080108A0678AF1EE10FA1F4604469246EB7940F044
S315080108B092820BB90123EB71DFF858830022434674
S315080108C000921046012112F0B5FD002884F84B006C
S315080108D040F3948398F80130637698F80230A3764A
S315080108E098F80330E37698F804302377D6ED007A42
S315080108F098F80530637798F80630A37798F80720B3
S3150801090098F80030E277F8EE678A2376F2EE067AEF
S31508010910F4EE678AF1EE10FAAB7940F0DB820BB997
S315080109200123AB71DFF8F08200224346009210469C
S315080109300B2112F07FFD002884F84A0040F37783E3
S3150801094098F80130637498F80230A37498F8033064
S31508010950E37498F804302375D6ED007A98F80530D3
S31508010960637598F80630A37598F8072098F800304B
S31508010970E275B8EE679A2374F2EE087AB4EE679ACE
S31508010980F1EE10FA6B7940F094820BB901236B7181
S31508010990DFF8888200224346009210460C2112F0A5
S315080109A049FD002884F8490040F33C83D6ED007AD6
S315080109B098F8073098F8062098F8051098F8040072
S315080109C098F803E098F802C098F801B098F8008002
S315080109D084F809B0F8EE679A84F80AC084F80BE03F
S315080109E020736173A273E37384F80880F2EE0A7ABE
S315080109F0F4EE679AF1EE10FA2B7940F048820BB9BA
S31508010A0001232B71DFF81882002243460092104613
S31508010A100D2112F00FFD002884F848001BDD98F817
S31508010A2001B098F802E098F8030098F800C098F821
S31508010A30041098F8052098F8063098F8078084F885
S31508010A40078084F801B084F800C084F802E0E070F9
S31508010A5021716271A371D6ED007AB8EE67AAF3EE39
S31508010A60057AB4EE67AAF1EE10FA2B7A40F0F58111
S31508010A700BB901232B72DFF8AC81002243460092A1
S31508010A801046152112F0D6FC002884F84C0040F3D4
S31508010A90E08298F8013084F8213098F8023084F819
S31508010AA0223098F8033084F8233098F8043084F813
S31508010AB02430D6ED007A98F8053084F8253098F870
S31508010AC0063084F8263098F8072098F8003084F81C
S31508010AD02720F8EE67AA84F82030F3EE067AF4EEBA
S31508010AE067AAF1EE10FA6B7A40F038820BB9012346
S31508010AF06B72DFF8348100224346009210461621B4
S31508010B0012F098FC002884F84D0040F39D8298F86D
S31508010B10013084F8293098F8023084F82A3098F898
S31508010B20033084F82B3098F8043084F82C30D6ED4D
S31508010B30007A98F8053084F82D3098F8063084F84C
S31508010B402E3098F8072098F8003084F82F20B8EE50
S31508010B5067BA84F82830F3EE077AB4EE67BAF1EE8D
S31508010B6010FA2B7B40F0C8810BB901232B73DFF8F0
S31508010B70BC800022434600921046172112F05AFC07
S31508010B80002884F8500040F35A8298F8013084F816
S31508010B90413098F8023084F8423098F8033084F8E6
S31508010BA0433098F8043084F84430D6ED007A98F842
S31508010BB0053084F8453098F8063084F8463098F8B8
S31508010BC0072098F8003084F84720F8EE67BA84F8C9
S31508010BD04030F3EE087AF4EE67BAF1EE10FAEB7AE2
S31508010BE040F0A3810BB90123EB72DFF844800022A0
S31508010BF0434600921046182112F01CFC002884F87E
S31508010C004F00D6ED007A40F3178213E0A8C0002002
S31508010C10F8C1002098060020D8060020E806002022
S31508010C20F8060020A0060020A8060020B00600202D
S31508010C30C006002098F8013084F8393098F8023057
S31508010C4084F83A3098F8033084F83B3098F8043041
S31508010C5084F83C3098F8053084F83D3098F8063029
S31508010C6084F83E3098F8072098F8003084F83F2039
S31508010C70F8EE677A84F83830B3EE097AF4EE477AF3
S31508010C80F1EE10FAAB7A40F0D0800BB90123AB72C2
S31508010C90D44D00222B4600921046192112F0CAFBA8
S31508010CA0002884F84E0017DD6B78AA7884F831306D
S31508010CB0EB7884F8322084F833302A796B7984F812
S31508010CC03420A97984F83530EA792B7884F83610F6
S31508010CD084F8372084F83030F7EE007AB4EE678A64
S31508010CE0F1EE10FA40F08A8094F94B30207E94F8A0
S31508010CF019E0A67EE57E217F627F94F81EB0E47F27
S31508010D0007EE103A99F8003007EE903AF8EEE77ACE
S31508010D10F7EE006AF4EE667AF1EE10FA15D1F8EEFE
S31508010D20C77AF5EE407AF1EE10FA4FD1189B4FF0DB
S31508010D3002084FF0010C89F8008083F800C099F881
S31508010D40003007EE903AF8EEE77AF0EE006AF4EE34
S31508010D50667AF1EE10FA2FD1B8EEC77AF7EE007A75
S31508010D60B4EEE77AF1EE10FA30DB189B87F801E06A
S31508010D704FF0010C38707A71BE70FD70397187F8C1
S31508010D8006B0FC7183F800C0159B974A83F800C02A
S31508010D904FF0030E89F800E0BAF800301380149A70
S31508010DA0138018F06DFD914BC3E9000199F80030E5
S31508010DB007EE903AF8EEE77AF5EE407AF1EE10FA98
S31508010DC004D1189A012389F80030137003B0BDECD9
S31508010DD0088BBDE8F08F73B1002380F84B3003769A
S31508010DE043768376C376037743778377C377F0EEC3
S31508010DF0488AEB718AE5F0EE488A87E5F2EE067ACB
S31508010E00F4EE678AF1EE10FA40F0CC8094F94A3094
S31508010E10207C94F811E0A67CE57C217D627D94F81E
S31508010E2016B0E47D07EE103A6CE7002B3FF454AF99
S31508010E30002384F84E3084F8303084F8313084F851
S31508010E40323084F8333084F8343084F8353084F815
S31508010E50363084F83730AB723EE7002B00F09680C7
S31508010E60002384F84C3084F8203084F8213084F843
S31508010E70223084F8233084F8243084F8253084F825
S31508010E80263084F82730F0EE4AAA2B7225E6002B85
S31508010E9000F08280002384F8483023706370A370C1
S31508010EA0E37023716371A371E371B0EE69AA2B71C3
S31508010EB0D5E5002B73D0002384F849302372637279
S31508010EC0A372E37223736373A373E373F0EE499A10
S31508010ED06B718BE5002B00F08B80002384F84A3078
S31508010EE023746374A374E37423756375A375E37537
S31508010EF0B0EE689AAB713FE5002B70D0002384F8F9
S31508010F00503084F8403084F8413084F8423084F80F
S31508010F10433084F8443084F8453084F8463084F800
S31508010F204730F0EE4BBA2B7353E6002B63D0002300
S31508010F3084F84F3084F8383084F8393084F83A30F8
S31508010F4084F83B3084F83C3084F83D3084F83E30F0
S31508010F5084F83F30F0EE6B7AEB728DE6CBB1002365
S31508010F6084F84D3084F8283084F8293084F82A30FA
S31508010F7084F82B3084F82C3084F82D3084F82E3000
S31508010F8084F82F30B0EE6ABA6B72E4E5F0EE4AAA3D
S31508010F90A3E5B0EE6ABADEE5B0EE69AA5FE5F0EE62
S31508010FA0499A23E5F2EE087AB4EE679AF1EE10FA59
S31508010FB029D0F2EE0A7AF4EE679AF1EE10FA4DD1DB
S31508010FC094F94830207894F801E0A678E5782179F3
S31508010FD0627994F806B0E47907EE103A92E6F0EEF3
S31508010FE04BBAF6E5D0060020E8C1002060C2002011
S31508010FF0B0EE689AC0E4F0EE6B7A3DE6D6ED007A7B
S31508011000F8EE678A82E494F94930207A94F809E07F
S31508011010A67AE57A217B627B94F80EB0E47B07EE2B
S31508011020103A6FE6D6ED007AF8EE679ADEE4D6ED69
S31508011030007AB8EE679A9FE4F8EE677A1CE6D6ED71
S31508011040007AF8EE67BAC4E5D6ED007AB8EE67BA63
S3150801105081E5D6ED007AF8EE67AA3EE5F3EE057A64
S31508011060B4EE67AAF1EE10FA1BD0F3EE067AF4EEA7
S3150801107067AAF1EE10FA29D194F94D3094F82800AF
S3150801108094F829E094F82A6094F82B5094F82C10D7
S3150801109094F82D2094F82EB094F82F4007EE103AC4
S315080110A030E694F94C3094F8200094F821E094F84D
S315080110B0226094F8235094F8241094F8252094F883
S315080110C026B094F8274007EE103A1BE6F3EE077AA6
S315080110D0B4EE67BAF1EE10FA14D194F9503094F8D7
S315080110E0400094F841E094F8426094F8435094F82B
S315080110F0441094F8452094F846B094F8474007EE12
S31508011100103AFFE5F3EE087AF4EE67BAF1EE10FA53
S3150801111014D194F94F3094F8380094F839E094F8DA
S315080111203A6094F83B5094F83C1094F83D2094F8B2
S315080111303EB094F83F4007EE103AE3E594F94E3095
S3150801114094F8300094F831E094F8326094F833500A
S3150801115094F8341094F8352094F836B094F837405A
S3150801116007EE103ACEE500BF012108B5084612F090
S3150801117035F90B21012012F031F90C21012012F069
S315080111802DF90D21012012F029F91521012012F05E
S3150801119025F91621012012F021F91721012012F053
S315080111A01DF91821012012F019F919210120BDE8AC
S315080111B0084012F013B900BF2DE9F04F2DED088B49
S315080111C00D4683B00968E34F169CE34EDDF85C9043
S315080111D00131396029602168316007EE901AB8EE4D
S315080111E0678AF7EE007AB4EE678AF1EE10FA1F46BF
S315080111F004469246EB7940F092820BB90123EB71D2
S31508011200DFF858830022012143460092084612F06E
S3150801121011F9002884F84B0040F3948398F80130BB
S31508011220637698F80230A37698F80330E37698F84F
S3150801123004302377D6ED007A98F80530637798F865
S315080112400630A37798F8072098F80030E277F8EE89
S31508011250678A2376F2EE067AF4EE678AF1EE10FAD9
S31508011260AB7940F0DB820BB90123AB71DFF8F08271
S315080112700022434600920B21012012F0DBF80028D8
S3150801128084F84A0040F3778398F80130637498F834
S315080112900230A37498F80330E37498F80430237580
S315080112A0D6ED007A98F80530637598F80630A37577
S315080112B098F8072098F80030E275B8EE679A237413
S315080112C0F2EE087AB4EE679AF1EE10FA6B7940F00D
S315080112D094820BB901236B71DFF888820022434699
S315080112E000920C21012012F0A5F8002884F8490083
S315080112F040F33C83D6ED007A98F8073098F8062033
S3150801130098F8051098F8040098F803E098F802C0D0
S3150801131098F801B098F8008084F809B0F8EE679A51
S3150801132084F80AC084F80BE020736173A273E3732F
S3150801133084F80880F2EE0A7AF4EE679AF1EE10FA6A
S315080113402B7940F048820BB901232B71DFF81882FB
S315080113500022434600920D21012012F06BF8002865
S3150801136084F848001BDD98F801B098F802E098F86F
S31508011370030098F800C098F8041098F8052098F822
S31508011380063098F8078084F8078084F801B084F855
S3150801139000C084F802E0E07021716271A371D6ED94
S315080113A0007AB8EE67AAF3EE057AB4EE67AAF1EE0B
S315080113B010FA2B7A40F0F5810BB901232B72DFF86D
S315080113C0AC810022434600921521012012F032F821
S315080113D0002884F84C0040F3E08298F8013084F83C
S315080113E0213098F8023084F8223098F8033084F8CE
S315080113F0233098F8043084F82430D6ED007A98F82A
S31508011400053084F8253098F8063084F8263098F89F
S31508011410072098F8003084F82720F8EE67AA84F8A0
S315080114202030F3EE067AF4EE67AAF1EE10FA6B7A3B
S3150801143040F038820BB901236B72DFF83481002240
S31508011440434600921621012011F0F4FF002884F882
S315080114504D0040F39D8298F8013084F8293098F8B8
S31508011460023084F82A3098F8033084F82B3098F83B
S31508011470043084F82C30D6ED007A98F8053084F8D3
S315080114802D3098F8063084F82E3098F8072098F809
S31508011490003084F82F20B8EE67BA84F82830F3EEC6
S315080114A0077AB4EE67BAF1EE10FA2B7B40F0C881E1
S315080114B00BB901232B73DFF8BC8000224346009247
S315080114C01721012011F0B6FF002884F8500040F3D7
S315080114D05A8298F8013084F8413098F8023084F835
S315080114E0423098F8033084F8433098F8043084F889
S315080114F04430D6ED007A98F8053084F8453098F8E6
S31508011500063084F8463098F8072098F8003084F8B1
S315080115104720F8EE67BA84F84030F3EE087AF4EE1D
S3150801152067BAF1EE10FAEB7A40F0A3810BB9012301
S31508011530EB72DFF84480002243460092182101200D
S3150801154011F078FF002884F84F00D6ED007A40F3B1
S31508011550178213E088C20020F8C7002088060020F9
S31508011560080700201807002090060020B80600206A
S31508011570C8060020E0060020F006002098F8013091
S3150801158084F8393098F8023084F83A3098F80330FC
S3150801159084F83B3098F8043084F83C3098F80530E4
S315080115A084F83D3098F8063084F83E3098F80720DC
S315080115B098F8003084F83F20F8EE677A84F83830D6
S315080115C0B3EE097AF4EE477AF1EE10FAAB7A40F007
S315080115D0D0800BB90123AB72D44D00222B46009261
S315080115E01921012011F026FF002884F84E0017DD85
S315080115F06B78AA7884F83130EB7884F8322084F84D
S3150801160033302A796B7984F83420A97984F835300E
S31508011610EA792B7884F8361084F8372084F8303044
S31508011620F7EE007AB4EE678AF1EE10FA40F08A8096
S3150801163094F94B30207E94F819E0A67EE57E217F49
S31508011640627F94F81EB0E47F07EE103A99F80030ED
S3150801165007EE903AF8EEE77AF7EE006AF4EE667A64
S31508011660F1EE10FA15D1F8EEC77AF5EE407AF1EEF9
S3150801167010FA4FD1189B4FF002084FF0010C89F868
S31508011680008083F800C099F8003007EE903AF8EE2A
S31508011690E77AF0EE006AF4EE667AF1EE10FA2FD1E7
S315080116A0B8EEC77AF7EE007AB4EEE77AF1EE10FAF9
S315080116B030DB189B87F801E04FF0010C38707A711E
S315080116C0BE70FD70397187F806B0FC7183F800C0E9
S315080116D0159B974A83F800C04FF0030E89F800E07E
S315080116E0BAF800301380149A138018F0C9F8914B90
S315080116F0C3E9000199F8003007EE903AF8EEE77A67
S31508011700F5EE407AF1EE10FA04D1189A012389F818
S315080117100030137003B0BDEC088BBDE8F08F73B1D0
S31508011720002380F84B30037643768376C3760377B6
S3150801173043778377C377F0EE488AEB718AE5F0EE53
S31508011740488A87E5F2EE067AF4EE678AF1EE10FA30
S3150801175040F0CC8094F94A30207C94F811E0A67CBC
S31508011760E57C217D627D94F816B0E47D07EE103A9A
S315080117706CE7002B3FF454AF002384F84E3084F80D
S31508011780303084F8313084F8323084F8333084F8D4
S31508011790343084F8353084F8363084F83730AB7213
S315080117A03EE7002B00F09680002384F84C3084F83D
S315080117B0203084F8213084F8223084F8233084F8E4
S315080117C0243084F8253084F8263084F82730F0EE62
S315080117D04AAA2B7225E6002B00F08280002384F8A2
S315080117E0483023706370A370E37023716371A3712A
S315080117F0E371B0EE69AA2B71D5E5002B73D00023EE
S3150801180084F8493023726372A372E3722373637394
S31508011810A373E373F0EE499A6B718BE5002B00F025
S315080118208B80002384F84A3023746374A374E374A9
S3150801183023756375A375E375B0EE689AAB713FE5D9
S31508011840002B70D0002384F8503084F8403084F897
S31508011850413084F8423084F8433084F8443084F8BF
S31508011860453084F8463084F84730F0EE4BBA2B738E
S3150801187053E6002B63D0002384F84F3084F83830C0
S3150801188084F8393084F83A3084F83B3084F83C30AF
S3150801189084F83D3084F83E3084F83F30F0EE6B7AB8
S315080118A0EB728DE6CBB1002384F84D3084F82830ED
S315080118B084F8293084F82A3084F82B3084F82C30BF
S315080118C084F82D3084F82E3084F82F30B0EE6ABAB9
S315080118D06B72E4E5F0EE4AAAA3E5B0EE6ABADEE574
S315080118E0B0EE69AA5FE5F0EE499A23E5F2EE087AC9
S315080118F0B4EE679AF1EE10FA29D0F2EE0A7AF4EE0E
S31508011900679AF1EE10FA4DD194F94830207894F897
S3150801191001E0A678E5782179627994F806B0E47948
S3150801192007EE103A92E6F0EE4BBAF6E5000700200C
S3150801193044C8002010C80020B0EE689AC0E4F0EE52
S315080119406B7A3DE6D6ED007AF8EE678A82E494F979
S315080119504930207A94F809E0A67AE57A217B627BF8
S3150801196094F80EB0E47B07EE103A6FE6D6ED007AEE
S31508011970F8EE679ADEE4D6ED007AB8EE679A9FE448
S31508011980F8EE677A1CE6D6ED007AF8EE67BAC4E592
S31508011990D6ED007AB8EE67BA81E5D6ED007AF8EEAB
S315080119A067AA3EE5F3EE057AB4EE67AAF1EE10FAF8
S315080119B01BD0F3EE067AF4EE67AAF1EE10FA29D1F6
S315080119C094F94D3094F8280094F829E094F82A609F
S315080119D094F82B5094F82C1094F82D2094F82EB0E6
S315080119E094F82F4007EE103A30E694F94C3094F803
S315080119F0200094F821E094F8226094F8235094F892
S31508011A00241094F8252094F826B094F8274007EE78
S31508011A10103A1BE6F3EE077AB4EE67BAF1EE10FA5E
S31508011A2014D194F9503094F8400094F841E094F8B0
S31508011A30426094F8435094F8441094F8452094F879
S31508011A4046B094F8474007EE103AFFE5F3EE087AF8
S31508011A50F4EE67BAF1EE10FA14D194F94F3094F80E
S31508011A60380094F839E094F83A6094F83B5094F8C1
S31508011A703C1094F83D2094F83EB094F83F4007EEA8
S31508011A80103AE3E594F94E3094F8300094F831E0D1
S31508011A9094F8326094F8335094F8341094F8352059
S31508011AA094F836B094F8374007EE103ACEE500BF01
S31508011AB02DE9F047DDF82890DDF820A004461D46FB
S31508011AC00F469046D9E900010022264B17F09CFDE6
S31508011AD00126C9E900018AF800603B68224ADFF855
S31508011AE09CA0DDF82490334413603B602F78384678
S31508011AF017F0C6FE1D4AD9F800301360CAE900017D
S31508011B0027712360EB7963716B78A371AB78E37105
S31508011B10EB7823722B7963726B79A372AB79E372D3
S31508011B20134BB8F800201A80032013F0D7FF114B86
S31508011B3022791A70A2795A70E2799A70227ADA7041
S31508011B40627A1A71A27A5A71E27A9A7161790A4AA3
S31508011B50D9711080216830460822BDE8F04711F096
S31508011B6039BA00BF0000F03FA8C2002038BC0020E7
S31508011B7016C20020100700207AC2002020C10020CA
S31508011B800B791BB10023437483740B714B7843B1F2
S31508011B90CB7813B10023C371CB708B7843B900237B
S31508011BA04B700023C3714374837183740B70704740
S31508011BB000238B70F3E700BF2DE9F04FA5B011465E
S31508011BC01A462F9B0B93319B1E93329B3B9C129378
S31508011BD0339B0E931394349B3D9C20932294359BFF
S31508011BE03E9C21932394369B3F9C1093179438ABC4
S31508011BF0409CDDF8B8A0DDF8C0B0379DDDF8F0905F
S31508011C001894C8CB419C1F94429C1994439C1A94DE
S31508011C10449C1694459C1B94469C1C94479C1D9475
S31508011C2000286AD09BF8000010B901208BF8000043
S31508011C3093ED007BCDE90C127D4B002251EC170B7D
S31508011C408DED147B18F0FAF8804600285DD09BF8D4
S31508011C50043033B100238AF811308AF812308BF830
S31508011C6004309BF8013013B901238BF80130129B1C
S31508011C70188817F015FE02460B46DDE90C01CDE979
S31508011C800E2318F0DBF8002800F0A7801C9B00261D
S31508011C908AF80060D3E900890022664B4046494626
S31508011CA018F0F4F8002840F0A2810022624B404661
S31508011CB0494618F0E1F800240025002800F0F082D2
S31508011CC029F000452946404617F07EFA02460B469A
S31508011CD040462946CDE9102317F094FC0022044614
S31508011CE00D4600234046494618F0B2F84FF0010662
S31508011CF000B90646F601F6B27FE19BF80030002BE3
S31508011D0040F08E8025B0BDE8F08F169B0993139B92
S31508011D100793109B03930E9B0293129B01930B9BB4
S31508011D20CDF820900BF104028033009206970596B0
S31508011D300495DDE90C010AF11102FEF77FF99BF81A
S31508011D400130002BDED09BF803301BB18AF80780DF
S31508011D508BF803809BF8023013B100238BF802300D
S31508011D6000238AF807308AF806308BF8013025B047
S31508011D70BDE8F08FDFF8BC900026002400254FF05F
S31508011D8000080B9F8AF8086040464946D7E91C2394
S31508011D9017F0ECFDD7E91A238046894620462946DD
S31508011DA017F00EFF0022002304460D4618F050F8DE
S31508011DB0002840F0A5822046294617F005FA044670
S31508011DC00D464946404618F0A9F8294606442046D4
S31508011DD018F0A4F830448AF80500DDE90E23DDE998
S31508011DE00C0118F035F848BB9BF8033023B10023E2
S31508011DF08AF807308BF80330DDE90E23DDE90C019B
S31508011E0018F026F8002840F083809BF80230002B52
S31508011E103FF478AF00238AF806308BF8023071E771
S31508011E205946504625B0BDE8F04FFFF7A9BE00BF99
S31508011E300000F03F00001440000014C01799A04BA1
S31508011E400022D1E9000118F00DF89BF803300028AB
S31508011E5000F0C98013B901238BF80330129B188847
S31508011E6017F00EFD0022974B17F0CEFBDDE90C2388
S31508011E7017F0C8FB0022002304460D4617F0DEFFC3
S31508011E80002800F021821F9B1C78179BE401E4B20D
S31508011E908AF80F40D3E9000118F040F80001C5B2ED
S31508011EA01E9B8AF81050D3E9000118F037F82099DB
S31508011EB0229A2044284408709AF805304B709AF8FB
S31508011EC001308B709AF80230CB709AF803300B7197
S31508011ED09AF804304B719AF800308B719AF80030F1
S31508011EE0CB710B9BDB6F1360129B188817F0C8FC2C
S31508011EF0DDE90C2317F086FB0022002304460D4674
S31508011F0017F09CFF002800F06E8201238AF807303B
S31508011F1018996B4B0022D1E9000117F0A3FF00289D
S31508011F203FF473AF9BF8023013B901238BF80230E3
S31508011F30129B188817F0A4FC0022624B17F064FB69
S31508011F40DDE90C2317F05EFB0022002304460D464B
S31508011F5017F074FF002800F0A9811F9B1878189BB9
S31508011F60C001C5B28AF80D50D3E9000117F0D6FFB2
S31508011F700001C4B21E9B8AF80E40D3E9000117F08E
S31508011F80CDFF2199239A2044284408709AF80530F0
S31508011F904B709AF801308B709AF80230CB709AF828
S31508011FA003300B719AF804304B719AF800308B7133
S31508011FB09AF80030CB710B9B9B6F1360129B1888A4
S31508011FC017F05EFCDDE90C2317F01CFB0022002349
S31508011FD004460D4617F032FF002800F0F48101236C
S31508011FE08AF806308EE6002B7FF401AF90E79FED65
S31508011FF0327B8DED107B002400250B9F8AF80C603F
S31508012000D7E90423DDE9100117F0B0FCD7E902236B
S31508012010804689462046294617F0D2FD002200232C
S3150801202004460D4617F014FF002840F06281204649
S31508012030294617F0C9F804460D464946404617F0A1
S315080120406DFF29460644204617F068FF1B9B30445E
S315080120508AF80100D3E9006700221B4B304639464E
S3150801206017F014FFA0BB0022184B3046394617F06B
S3150801207003FF00240025002800F0068127F000450B
S315080120803046294617F0A0F802460B46804689468F
S315080120903046294617F0B6FA002204460D46304660
S315080120A00023394617F0D4FE4FF0010600B906465B
S315080120B0F601F6B213E000BF00000000000014406C
S315080120C000001C400000F03F00002440000024C02E
S315080120D0DFF860930026002400254FF000080B9FC7
S315080120E08AF80B6040464946D7E90A2317F03EFCB1
S315080120F0D7E90823804689462046294617F060FD18
S315080121000022002304460D4617F0A2FE002840F0DF
S3150801211053812046294617F057F804460D46494685
S31508012120404617F0FBFE29460644204617F0F6FE00
S315080121301A9B30448AF80200D3E900670022B84B9B
S315080121403046394617F0A2FE002800F00E81DDE977
S3150801215014890026002400250B9F8AF80A60404648
S315080121604946D7E9102317F001FCD7E90E23804623
S3150801217089462046294617F023FD002200230446F6
S315080121800D4617F065FE002840F0E88020462946EE
S3150801219017F01AF804460D464946404617F0BEFEA2
S315080121A029460644204617F0B9FE199B30448AF899
S315080121B00300D3E900670022994B3046394617F0E8
S315080121C065FE002800F0A3800026002400250B9F49
S315080121D08AF80960D7E91623DDE9140117F0C6FB69
S315080121E0D7E91423804689462046294617F0E8FC94
S315080121F00022002304460D4617F02AFE002871D155
S315080122002046294616F0E0FF04460D464946404653
S3150801221017F084FE29460644204617F07FFE1D9BCB
S3150801222030448AF80400D3E9006700227D4B304622
S31508012230394617F02BFE00287FF49CAD00227A4B15
S315080122403046394617F018FE0024002510B327F04A
S3150801225000453046294616F0B7FF02460B4680462A
S3150801226089463046294617F0CDF9002204460D461F
S3150801227030460023394617F0EBFD4FF0010600B949
S315080122800646F601F6B27CE54FF00008DFF8A491A0
S31508012290802624E74FF00008DFF88891802670E54C
S315080122A09FED5D7B80268DED107BA6E600225F4BB8
S315080122B020462946FDF728FF0022002317F0BEFD18
S315080122C000283FF47BAE48E60022564B20462946B5
S315080122D0FDF71AFF0022002317F0B0FD00283FF48E
S315080122E003AED0E52046294616F0E6FE04460D461D
S315080122F08CE72046294616F0DFFE04460D469CE685
S315080123002046294616F0D8FE04460D4659E5002210
S31508012310474B3046394617F0AFFD00240025002803
S3150801232075D027F000453046294616F04DFF02467E
S315080123300B4630462946CDE9142317F063F90022E6
S3150801234004460D4630460023394617F081FD4FF005
S31508012350010600B90646F601F6B238E720462946CF
S3150801236016F0AAFE04460D4616E70022304B304603
S31508012370394617F081FD00240025002843D027F0AF
S3150801238000453046294616F01FFF02460B46804691
S3150801239089463046294617F035F9002204460D4686
S315080123A030460023394617F053FD4FF0010600B9B0
S315080123B00646F601F6B2CFE62046294616F07CFE19
S315080123C004460D46ABE60022184B20462946FDF782
S315080123D09BFE0023002217F031FD4FF0010300B9DF
S315080123E00346DBB2FCE500220E4B20462946FDF7E3
S315080123F08BFE0023002217F021FD4FF0010300B9DF
S315080124000346DBB282E5DDE914898026A4E6802647
S31508012410DDE600BFAFF300800000000000001440B5
S315080124200000F03F00001440000014C000002040E6
S315080124300000F0BF000024402DE9F843089D0A9CDE
S31508012440002800F0E580217809B9012121701F468D
S315080124500C9B1888164617F023FA804689460246C9
S315080124600B463046394617F0E9FC20B100232B709C
S315080124700F9B1B786B7042464B463046394617F020
S31508012480E7FC002800F0E5801299964B0022D1E975
S31508012490000117F0E7FCA378002800F0C9800BB902
S315080124A00123A3700C9B188817F0EAF900228E4BBA
S315080124B017F0AAF832463B4617F0A4F80022002383
S315080124C08046894617F0BAFC002800F0FC80149B68
S315080124D093F80080129B4FEAC8185FFA88F885F8C6
S315080124E00680D3E9000117F019FD00015FFA80F9AA
S315080124F00B9B85F80790D3E9000117F00FFD0D9B9B
S315080125000D9A4044484418706B7853702B78937031
S315080125102B78D3702B7813712B7853712B78937191
S315080125202B78D371099B109A5B6813600C9B1888EA
S3150801253017F0A6F932463B4617F064F80022002345
S315080125408046894617F07AFC002800F0AB80012303
S31508012550EB701399634B0022D1E9000117F082FC55
S31508012560002872D063780BB9012363700C9B188815
S3150801257017F086F900225C4B17F046F832463B46BF
S3150801258017F040F8002200238046894617F056FCCA
S3150801259000287AD0149B1878139BC0015FFA80F83B
S315080125A085F80480D3E9000117F0B8FC0001C4B22C
S315080125B00B9B6C71D3E9000117F0B0FC0E9B0E9AC8
S315080125C02044404418706B7853702B7893702B789D
S315080125D0D3702B7813712B7853712B7893712B78D1
S315080125E0D371099B119A1B6813600C9B188817F005
S315080125F047F932463B4617F005F8002200230646FE
S315080126000F4617F01BFC80B30123AB70BDE8F883B6
S315080126102378E3B1A3780BB1E870A07063780BB1A6
S31508012620002363700023EB70AB702370BDE8F88359
S31508012630002B8ED00023EB70A37042464B463046E2
S31508012640394617F005FC002883D1637843B9BDE8FC
S31508012650F883A378002BF0D00023EB70A370ECE786
S315080126600023AB706370BDE8F88300221F4B304628
S315080126703946FDF749FD0023002217F0DFFB4FF02D
S31508012680010300B90346DBB2BFE70022174B4046F8
S315080126904946FDF739FD0022002317F0CFFB002834
S315080126A0A3D077E70022124B40464946FDF72CFD99
S315080126B00023002217F0C2FB4FF0010300B90346BD
S315080126C0DBB2EB7045E70022094B40464946FDF768
S315080126D01BFD0022002317F0B1FB00283FF426AFAB
S315080126E0F5E600BF00001C400000F03F0000204056
S315080126F000001440000000002DE9F04FA9B03399FD
S31508012700119135991D9138991491399921913A99CF
S3150801271023913B9922913C9924913D9915913E9992
S315080127201C913F991E914099169141991891439987
S31508012730329C349DDDF8D8A0DDF8DCB0DDF80891CF
S315080127401A9100284DD0297809B901212970CDE9B6
S315080127501223149BB3F80080404617F0A1F8DDE96F
S31508012760122306460F4617F091FB00284BD100238A
S31508012770209300231F9330463946DDE9122317F0CB
S315080127805DFB002858D1E37825932378269363784F
S315080127902793209B94F804B06779A079A278002B37
S315080127A040F0C181AB7883B1209AA273AA70149BB9
S315080127B094F804B0B3F80080E37825932378269338
S315080127C067796378A079A27827931F9B002B40F03D
S315080127D01A826B7813B11F9AE2726A7029B0BDE842
S315080127E0F08F2B78002BF9D0AB780BB1A073A870BA
S315080127F06B780BB100236B700023A373E3722B7004
S3150801280029B0BDE8F08F15990A4B0022D1E90001DC
S3150801281017F028FB011C18BF012120911C99054BB3
S315080128200022D1E9000117F01DFB0028A1D00123E0
S315080128301F93A0E700001C409BF8003023702693E5
S3150801284000269AF800306370A670D9E900892793A3
S315080128500022C74B4046494617F018FB002800F0EE
S315080128608B81DFF80CB3B046002700264FF0000A2B
S31508012870119B84F80A80D3E904235046594617F078
S3150801288075F8119B8246D3E9022330468B463946B1
S3150801289017F096F90022002306460F4617F0D8FAD4
S315080128A0002840F0E9813046394616F08DFC064687
S315080128B00F465946504617F031FB39468044304693
S315080128C017F02CFB4044C3B2E37025931A9BD3E956
S315080128D000670022A64B3046394617F0D7FA00287A
S315080128E040F07F810022A34B3046394617F0C4FADF
S315080128F0002800F0E281002200233046394617F00D
S31508012900A7FA4FF0010A002800F0E68127F00049EE
S315080129103046494616F058FCB04602460B4606466E
S315080129200F464046494616F06DFECDE91A014FEAB3
S31508012930CA1A5FFA8AFA3046119E84F809A0D6E9BE
S315080129400A23394617F012F8D6E90823804689463C
S31508012950DDE91A0117F034F90022002306460F466D
S3150801296017F076FA002840F072813046394616F09B
S315080129702BFC06460F464946404617F0CFFA39461C
S315080129808244304617F0CAFA50445FFA80FB189B16
S3150801299084F804B0D3E900670022754B30463946FE
S315080129A017F074FA002840F025810022714B304651
S315080129B0394617F061FA002800F0658100220023E4
S315080129C03046394617F044FA4FF0010A002800F05C
S315080129D07F8127F000493046494616F0F5FBB04697
S315080129E002460B4606460F464046494616F00AFE7B
S315080129F0CDE918014FEACA1A5FFA8AFA3046119EDA
S31508012A0084F808A0D6E91023394616F0AFFFD6E9AF
S31508012A100E2380468946DDE9180117F0D1F8002210
S31508012A20002306460F4617F013FA002840F01D81C9
S31508012A303046394616F0C8FB06460F464946404613
S31508012A4017F06CFA39468244304617F067FA504453
S31508012A50C7B2169B6771D3E900890022444B4046E9
S31508012A60494617F013FA002840F0B1800022414B7D
S31508012A704046494617F000FA002800F00D81002269
S31508012A8000234046494617F0E3F94FF001060028AE
S31508012A9000F01C8129F00043CDF858801793DDE931
S31508012AA0160116F091FB02460B4680468946DDE97A
S31508012AB0160116F0A7FDCDE91801F601F6B2119B2C
S31508012AC0E671D3E916234046494616F04FFF119B96
S31508012AD0CDE91601D3E91423DDE9180117F070F8D9
S31508012AE0002200238046894617F0B2F9002840F0F3
S31508012AF0B5804046494616F067FB80468946DDE9BA
S31508012B00160117F00BFA49460644404617F006FA2D
S31508012B103044149BC0B2A071B3F80080209B0022F8
S31508012B20002B3FF43FAE1E9B0E93159B0D93119BF5
S31508012B30069203F16401229B0C93219B0B931D9B27
S31508012B400A93279B0593269B0493259B0390AE1C0A
S31508012B5004F10E0E01930297CDF800B04046DDE967
S31508012B60122309960891CDF81CE0FDF765FB1EE6D0
S31508012B7000001440000014C000225B4B4046494641
S31508012B8017F07AF900260027002800F08F8029F02F
S31508012B9000474046394616F017FB02460B46824661
S31508012BA08B464046394616F02DFD002206460F464D
S31508012BB040460023494617F04BF94FF00108002813
S31508012BC000F088804FEAC8185FFA88F850E69FED4A
S31508012BD0447B4FF000088DED187BDFF81091002635
S31508012BE06DE79FED3F7B00268DED1A7B3F4F4FF03A
S31508012BF0000AA0E69FED3A7B00268DED187B3B4F38
S31508012C004FF0000AFAE6119B389260333A931E9BFD
S31508012C1040931C9B3F93249B3E93239B3D931D9B73
S31508012C203C93279B3793269B3693259B3393DDE964
S31508012C30122301350B34359040463B953994349728
S31508012C40CDF8C8B029B0BDE8F04FFDF78DBB3046C9
S31508012C50394616F031FA06460F468CE6404649468D
S31508012C6016F02AFA8046894649E73046394616F06B
S31508012C7023FA06460F46E1E63046394616F01CFAAF
S31508012C8006460F4615E69FED167B00268DED187B49
S31508012C90164F4FF0800AB1E69FED117B4FF0000801
S31508012CA08DED187BDFF84490802608E74FF0000A7F
S31508012CB0DFF838B04FF08008DAE59FED097B00268A
S31508012CC08DED1A7B094F4FF0800A34E60646E1E698
S31508012CD082467EE6804675E7824617E6AFF30080B0
S31508012CE00000000000000000000014C000001440AD
S31508012CF00B791BB10023437383730B714B7843B173
S31508012D00CB7813B100234371CB708B7843B9002379
S31508012D104B70002343714373037183730B707047C0
S31508012D2000238B70F3E700BF2DE9F04F9DB02EAC61
S31508012D30299912912A990B912B990E912C991891EF
S31508012D402D991991319910913299139134991A91B2
S31508012D5035991B9136991591379916913899DDF858
S31508012D6098A0DDF89CB0289FDDF8CC90179170CC1F
S31508012D7039991491002800F09F80397809B9012101
S31508012D8039701299CDE90C23D1E900010022B64B1D
S31508012D9017F054F88046002800F095803B792BB14E
S31508012DA000238AF80D308AF80E303B717B780BB90F
S31508012DB001237B700B9B188816F072FD02460B46A1
S31508012DC0DDE90C01CDE90E2317F038F8002800F0EB
S31508012DD01981A64B00268AF80060D3E900890022EA
S31508012DE0A34B4046494617F051F8002800F0758272
S31508012DF09FED997B8DED107B002400258AF80860EC
S31508012E00DBE90423DDE9100116F0B0FDDBE9022355
S31508012E10804689462046294616F0D2FE002200231E
S31508012E2004460D4617F014F8002840F07D82204626
S31508012E30294616F0C9F904460D464946404617F093
S31508012E406DF829460644204617F068F8894B304440
S31508012E508AF80100D3E900890022874B4046494692
S31508012E6017F014F800285DD10022844B40464946E4
S31508012E7017F002F800240025002800F0D78129F070
S31508012E8000452946404616F09FF902460B4640463C
S31508012E902946CDE9102316F0B5FB002204460D4656
S31508012EA000234046494616F0D3FF4FF0010600B904
S31508012EB00646F601F6B23CE03B78002B40F0C280AC
S31508012EC01DB0BDE8F08F149B0993139B0793109BC4
S31508012ED006930E9B02933A1D0B9B019300920BF1ED
S31508012EE05003CDF82090059604950394DDE90C016D
S31508012EF00AF10D02FDF7A2F87B78002BE0D0FB78EA
S31508012F001BB18AF8058087F80380BB780BB10023CB
S31508012F10BB7000238AF805308AF804307B701DB02F
S31508012F20BDE8F08F9FED4E7B8DED107B00260024CA
S31508012F3000258AF80760DBE90A23DDE9100116F0A6
S31508012F4015FDDBE90823804689462046294616F001
S31508012F5037FE0022002304460D4616F079FF0028A5
S31508012F6040F085812046294616F02EF904460D467D
S31508012F704946404616F0D2FF29460644204616F031
S31508012F80CDFF3F4B30448AF80200D3E9008900227D
S31508012F90374B4046494616F079FF002800F07581FF
S31508012FA09FED2D7B8DED107B0026002400258AF8E8
S31508012FB00660DBE91023DDE9100116F0D7FCDBE931
S31508012FC00E23804689462046294616F0F9FD002239
S31508012FD0002304460D4616F03BFF002840F04E81BB
S31508012FE02046294616F0F0F804460D46494640465D
S31508012FF016F094FF29460644204616F08FFF304402
S315080130008AF80300DDE90E23DDE90C0116F020FF3D
S31508013010002837D1FB781BB100238AF80530FB70ED
S31508013020DDE90E23DDE90C0116F012FF002840F058
S315080130309180BB78002B3FF443AF00238AF8043014
S31508013040BB703DE7394650461DB0BDE8F04FFFF766
S315080130504FBE00BFAFF30080000000000000F03F44
S315080130600000000000002440000010406800002015
S315080130700000F03F4000002000002440000024C06A
S31508013080080000201599C44B0022D1E9000116F069
S31508013090E9FEFB78002800F0C5800BB90123FB7017
S315080130A00B9B188816F0ECFB0022BC4B16F0ACFA09
S315080130B0DDE90C2316F0A6FA0022002304460D4684
S315080130C016F0BCFE002800F0B780179B1C78159BEC
S315080130D0E401E5B28AF80B50D3E9000116F01EFFA8
S315080130E00001C4B2129B8AF80C40D3E9000116F01C
S315080130F015FF2C4418991A9A204408709AF8033037
S315080131004B709AF801308B709AF80230CB709AF8A6
S3150801311000300B719AF800304B719AF800308B71B8
S315080131209AF80030CB71DBF84C3013600B9B18888A
S3150801313016F0A6FBDDE90C2316F064FA002200233B
S3150801314004460D4616F07AFE002800F00481012394
S315080131508AF805301699904B0022D1E9000116F03C
S3150801316081FE00283FF465AFBB780BB90123BB701C
S315080131700B9B188816F084FB0022884B16F044FA3C
S31508013180DDE90C2316F03EFA0022002304460D461B
S3150801319016F054FE00285DD0179B1C78169BE40197
S315080131A0E5B28AF80950D3E9000116F0B7FE000125
S315080131B0C4B2129B8AF80A40D3E9000116F0AEFEA2
S315080131C02C4419991B9A204408709AF803304B70BD
S315080131D09AF801308B709AF80230CB709AF8003061
S315080131E00B719AF800304B719AF800308B719AF886
S315080131F00030CB71DBF8483013600B9B188816F04A
S315080132003FFBDDE90C2316F0FDF9002200230446F5
S315080132100D4616F013FE002800F08D8001238AF86A
S3150801322004304DE6002B7FF4F7AE93E79FED567B0E
S3150801323080268DED107B7CE60022594B20462946D7
S31508013240FCF762FF0022002316F0F8FD00283FF480
S315080132506DAF3AE70022534B20462946FCF754FF47
S315080132600022002316F0EAFD0028C6D094E720467E
S31508013270294615F021FF04460D4679E620462946DA
S3150801328015F01AFF04460D46B0E60022464B4046A5
S31508013290494616F0F1FD00240025002800F0868035
S315080132A029F000452946404615F08EFF02460B4691
S315080132B040462946CDE9102316F0A4F90022044612
S315080132C00D4600234046494616F0C2FD4FF0010659
S315080132D000B90646F601F6B269E60022324B4046C7
S315080132E0494616F0C9FD00240025002843D029F0D7
S315080132F000452946404615F067FF02460B464046FB
S315080133002946CDE9102316F07DF9002204460D461B
S3150801331000234046494616F09BFD4FF0010600B9C9
S315080133200646F601F6B269E52046294615F0C4FEB9
S3150801333004460D4681E500221A4B20462946FCF72C
S31508013340E3FE0023002216F079FD4FF0010300B9D0
S315080133500346DBB263E70022114B20462946FCF7F8
S31508013360D3FE0023002216F069FD4FF0010300B9D0
S315080133700346DBB2ECE69FED067B80268DED107BDE
S315080133803CE500BFAFF300800000000000002440C8
S31508013390000000000000F03F00001C400000F03F64
S315080133A000001440000020400000F0BF9FED027BA2
S315080133B080268DED107BFAE5000000000000F03F45
S315080133C038B521F000430D4600221946154B04462F
S315080133D016F03EFDC8B10022134B2046294616F0C9
S315080133E04BFDA8B90022114B2046294616F04EFD81
S315080133F048B9204629460C4B002216F003F9BDE8C8
S31508013400384015F059BE002400252046294638BD06
S3150801341020462946044B002216F0F6F8BDE8384046
S3150801342015F0D2BE000030430000E03F0000E0BFC7
S3150801343038B500210446022011F0AAFC104B0022DF
S315080134400125C4E99023C4E95E23C4E9282384F845
S31508013450D252FDF7E5F9FDF787FE0021084611F07E
S3150801346097FC2846002111F093FC0021042011F055
S315080134708FFC00210320BDE8384011F089BC00BF4C
S315080134800000F03F000000002DE9F04F2DED068BFE
S315080134909146ADF50D7D92F84823DDF870821A93B1
S315080134A083468A4612B1002389F8483399F8D232FD
S315080134B0002B00F05A8499F8453313B9012389F88A
S315080134C04533A49B1B78002B01F0AF871A99B44B9F
S315080134D00022D1E9000116F0B1FC002801F0FF87AE
S315080134E099F8EC32002B01F0FA87012599F8463351
S315080134F0002B01F0FA87002D49F0788099F8EC3213
S315080135008BB19D99A64B0022C1E90023BAF8F8149C
S31508013510A8F8001099F8EC129AF8120589F8C80269
S3150801352009B1C9E90623A49A9D4900231370A59AEE
S31508013530002400250020137089F8EC32C9E9A24558
S31508013540CBE9000100230022DBE9000116F076FC35
S315080135504FF0010300B90346D9E9A24589F8D232E9
S315080135602046904B2946002216F086FC4FF00103AF
S3150801357000B9034689F8EC3200228A4B20462946CF
S3150801358016F07AFC002808F01387874B0022C9E950
S31508013590A22399F8C832B8F8000007EE903AF8EE77
S315080135A0E77A0024F5EE407AF1EE10FA0CBF7F4D6A
S315080135B07F4D16F075F902460B462046294616F048
S315080135C03DFCB0B10023A8F8003099F8C84220465E
S315080135D016F066F90AF59E63D3E9002316F038FC5E
S315080135E0744B002801F0538701341C701B7889F845
S315080135F0C83299F8D232002B40F0DC8399F8ED32C3
S3150801360013B9012389F8ED321A9B93ED007B55EC2A
S31508013610174B0022624B17EE100A29468DED1C7BCB
S3150801362016F00CFC002800F0138699F80C3313B930
S31508013630012389F80C3399F8C83207EE903AB8EEA7
S31508013640E79A99F83133B5EE409AF1EE10FA41F05E
S315080136506B8713B9012389F83133B8F80060DFEDB8
S31508013660569A07EE906AF8EEE78A08EE106AF4EEC3
S31508013670E98AF1EE10FAC0F2C380304616F010F965
